:020000040800F2
:10000000903300202502000879170008B116000877
:1000100001170008351300087B620008000000008B
:10002000000000000000000000000000C15E0008A9
:100030009515000800000000C3120008D55F0008F5
:100040003F0200083F0200083F0200083F0200088C
:100050003F0200083F0200083F0200083F0200087C
:100060003F0200083F0200083F0200083F0200086C
:100070003F0200083F0200083F0200083F0200085C
:100080003F0200083F0200083F0200083F0200084C
:100090003F0200083F0200083F0200083F0200083C
:1000A0003F0200083F0200083F0200083F0200082C
:1000B0003F0200083F0200083F0200083F0200081C
:1000C0003F0200083F0200083F0200083F0200080C
:1000D0003F020008516000083F0200083F0200088C
:1000E0003F0200083F0200083F0200083F020008EC
:1000F0003F0200083F0200083F0200083F020008DC
:100100003F0200083F0200083F0200083F020008CB
:100110003F0200083F0200083F0200083F020008BB
:100120003F0200083F0200083F0200083F020008AB
:1001300000F002F800F067F80AA090E8000C824492
:100140008344AAF10107DA4501D100F05CF8AFF26F
:10015000090EBAE80F0013F0010F18BFFB1A43F0A5
:1001600001031847306D0000506D00000A444FF045
:10017000000C10F8013B13F0070408BF10F8014B06
:100180001D1108BF10F8015B641E05D010F8016B4B
:10019000641E01F8016BF9D113F0080F1EBF10F8AF
:1001A000014BAD1C0C1B09D16D1E58BF01F801CBD2
:1001B000FAD505E014F8016B01F8016B6D1EF9D555
:1001C0009142D6D37047000000230024002500266A
:1001D000103A28BF78C1FBD8520728BF30C148BFAA
:1001E0000B607047662906F00085002070471FB538
:1001F00000F00AFB04000020002106F08BFBE06009
:100200001FBD10B510BD00F017FC1146FFF7EFFF42
:1002100006F0BEF900F035FC03B4FFF7F2FF03BCB3
:1002200006F048F80948804709480047FEE7FEE71E
:10023000FEE7FEE7FEE7FEE7FEE7FEE7FEE7FEE796
:1002400004480549054A064B70470000F15F000865
:1002500031010008902D002090330020902F0020C5
:10026000902F002072B6704762B67047EFF310808F
:1002700072B6704780F31088704730BF704720BF58
:100280007047B0FA80F0704790FAA0F0B0FA80F0B2
:10029000704790FAA0F07047704700000FB404490F
:1002A00010B503AA029800F09DFA10BC5DF814FB8B
:1002B0001C0000202DE9F0474FF0000A8946044653
:1002C000C0F820A02046E1688847002876D025287D
:1002D00006D0D4E901219047206A401C2062F1E752
:1002E000E168204600258847C4F81CA00646002780
:1002F000C4F818A02A2E09D0304605F0D4FF38B330
:1003000004EB8708303EC8F8186019E059F8041B60
:10031000204604EB87029161E1688847012F064679
:1003200018D1E069002820DA25F020051DE0D8F872
:10033000180000EB800006EB40003038C8F81800C9
:100340002046E1688847064605F0ADFF0028EED15B
:10035000012F0AD02E2E08D12046E16888477F1C45
:100360000646022F45F02005C4DBA069002803DA09
:10037000404245F00105A061E80701D025F01005D5
:10038000B6B1A6F14100192802D8203645F400651F
:100390004A463146204625604D46FFF723FF58B1B7
:1003A000012806D0ED1D25F0070000F1080989E7B6
:1003B00004E005F1040985E730468AE7206ABDE8D4
:1003C000F087704770477047704770472DE9FF4FBF
:1003D0000C461E464FF0FF378BB0D2E90001DDF826
:1003E00060800A908A46C1F30A5505B93D4600214E
:1003F00008464FF00000BAF1000F00F4400005DAA3
:1004000000EB80004FF4400101EA50004FEA9059A0
:10041000B9F1010F00DDB9460A9850EA4A000ED042
:1004200044F61050A5F2FF3545432F14B8F1000FE4
:100430001ED07542291E1EDDC9F100021CE0B8F174
:10044000010F4FF0000001D0302103E0F24305E03E
:100450002154401CB042FBDB3046002200212154D5
:100460000B99C1F80880C1E900200FB0BDE8F08FFA
:10047000BD1B6D1CDEE74A4600DA694206A800F0A3
:1004800065FA06AB93E8070003AB83E80700504624
:100490000A9900F03FFB8DE80700A0F500501F38D7
:1004A00000900398002D09DD42F21F014A460844DE
:1004B00003A90390684600F09EFD08E0A0F50050F7
:1004C0004A461F3803A90390684600F0A8FD8DE84E
:1004D00007000004000C03D04FF0FF30410800E09B
:1004E0001046B8F1000F03D00022009215461EE01E
:1004F000751E05D400F08CF9303262556D1EF9D5A9
:10050000B3460122084302D000227F1C04E0207879
:10051000302801D100227F1E002A099786D01DE0D5
:10052000112D07DA00F074F9303262556D1C50EA73
:100530000102F5D1084302D00098C8B10EE00021B5
:10054000681E05E0235C625C63542254401E491C13
:100550008142F7DBAB46A81B401E0990002004F83F
:100560000B000B98099AC0F80880C0E9002B7CE7C3
:1005700011264FF0000859E72DE9F04F8846044650
:10058000D21D22F0070191B0D1E90001CDE90A01A5
:1005900005F075FE02460B98C00F01D02D2007E034
:1005A0002068810701D52B2002E0202101EAC0004C
:1005B000032A099001D0072A05DB0346414620465D
:1005C00000F084F90BE12078800601D5E06900E0B5
:1005D0000620B8F1650F814606D0B8F1660F18D035
:1005E000B8F1670F70D131E00020B9F1110F009020
:1005F00001DB112301E009F101030AAA01A90CA8FA
:10060000FFF7E4FEDDE90C70002609F101058346E1
:1006100047E001204B4600904FF000470AAA01A98D
:100620000CA8FFF7D3FEDDE90DB00C995D4600265E
:1006300010B909F101000D18B9EB050003D4C0F1A0
:10064000FF3609F10105A5EB09002BE0B9F1010F17
:1006500001DA4FF001090020B9F1110F009048466E
:1006600001DD112300E003460AAA01A90CA8FFF747
:10067000ADFEDDE90C704D4600268346207800076C
:100680000AD4AB4500DA5D4601A8012D04DD41190D
:1006900011F8011C302907D04F4502DA17F1040F79
:1006A00004DA012082460FE06D1EEEE7002F02DC27
:1006B000ED1B3E4403E0781CA84200DD7D1CB81B06
:1006C00000F1010A4FF000472078000703D4AA4543
:1006D00001DB4FF0FF3A0021B7F1004F0DF1430865
:1006E0008DF8431024D002202B23002F01DA7F4203
:1006F0002D230A21021EA0F1010000DC5FB197FB4F
:10070000F1FC97FBF1F201FB1C7C17460CF1300C5D
:1007100008F801CDEEE7A8F1010003702188090572
:1007200001D5452100E06521A0F1010800F8011C78
:1007300009980FA9A1EB0807FF1D00B1012041197D
:1007400001EBEA70A1693844081A401EA0612078C4
:10075000C00602D42046AFF30080099828B1D4E93E
:1007600001219047206A401C20622078C00622D5D3
:100770002046AFF300801EE0002E04DBB34502DD0F
:1007800001A8805D00E03020D4E901219047206A73
:10079000401C2062761CAAF101005FEA000A0AD11F
:1007A00000F032F8C0680168405CD4E9012190474C
:1007B000206A401C2062281EA5F10105DCDC07E050
:1007C000D4E9012118F8010B9047206A401C2062EF
:1007D000381EA7F10107F3DC2046AFF300800320A9
:1007E00011B043E6074B70B50D467B4400F05BF853
:1007F0000446284600F018F910B14FF0FF3070BDE4
:10080000204670BD135D0000004870474C2D00204D
:1008100030B5B0F10A024FEA900E71F100034EEAD2
:10082000817EB0EB0E0061EB91014FEA101E4EEAA3
:10083000017E10EB0E0041EB11114FEA102E4EEA33
:10084000016E10EB0E0041EB11214FEA104E4EEA03
:10085000014E10EB0E0041EB1141401841F1000137
:100860004FEAD00040EA41704FEAD10110EB800519
:100870004FEA810444EA907444EB01046D1944EB9F
:100880000404521BA3414FF0000348BF0A3200D5B5
:1008900030BD401C41F1000130BD000001694A1C1F
:1008A00002610878704700B58FB0CDE901310021B1
:1008B000059105497944CDE9031011466846FFF7D3
:1008C000F9FC0FB000BD0000E5FFFFFF2DE9F0418E
:1008D0001F46044603260168072A01F4006004DB72
:1008E00008B116A505E016A503E008B115A500E0BE
:1008F00015A521F010002060A069C01EA0610FB1F5
:10090000401EA0612046AFF300804FB1D4E9012121
:1009100038469047206A401C2062C01C206206E0D6
:10092000206AFAE7D4E9012115F8010B9047761EF9
:10093000F8D22046AFF30080BDE8F0814E414E0072
:100940006E616E00494E4600696E66002DE9F04703
:10095000814616468AB0334878440DC88DE80D00AC
:1009600030487844801C03AC0DC884E80D0041F683
:100970009B300844372190FBF1F290FBF1F5A5F193
:10098000800501FB12041B3C02D56442012000E0FB
:100990000020DFF890A080460027FA44AAF1BE0AA2
:1009A0000DE0E00709D03246684607EB47010AEB45
:1009B000810100F034FB8DE8070064107F1C002CDF
:1009C000EFD1184F7F44AC3F18E0E80714D007EB95
:1009D00004100DF1180A90E80E008AE80E00C068B5
:1009E000F04201D198190890324606A903A800F0F8
:1009F00016FB03AB83E807006D10641C002DE4D1E7
:100A000032466946B8F1000F03A802D000F0F3FAAD
:100A100001E000F004FBC9E90001C9F808200AB0B0
:100A2000BDE8F08720650000007B00F08000704783
:100A3000004870472C2D00207546FFF7F9FFAE46A1
:100A400005006946534620F00700854618B020B5DA
:100A5000FFF7F6FBBDE820404FF000064FF000071F
:100A60004FF000084FF0000B21F00701AC46ACE856
:100A7000C009ACE8C009ACE8C009ACE8C0098D46C3
:100A8000704710B50446AFF300802046BDE8104023
:100A9000FFF7C2BB4FF0013C50F8042B51F8043B68
:100AA0009A4221D1A2EB0C03934313EACC1317D142
:100AB00050F8042B51F8043B9A4215D1A2EB0C03D9
:100AC000934313EACC130BD150F8042B51F8043B99
:100AD0009A4209D1A2EB0C03934313EACC13DBD067
:100AE0004FF00000704700BFD01A01BAB1FA81F18F
:100AF00001F0180122FA01F0CB40C1F12001DBB274
:100B0000C0B2C01A2CFA01F3D11A914311EAC311F1
:100B1000E6D170475FEA400C08BF91F0000F4FEA42
:100B20008C234FEAC12243EA51514FEA1C5018BFAF
:100B300000F5F0404FEA300018BF41F000415FEA95
:100B40006C5C00F02980BCF1FF3F08BF40F08040A2
:100B50007047130C06BF12044FF0100C4FF0000C3E
:100B6000130E04BF12020CF1080C130F04BF120184
:100B70000CF1040C930F04BF92000CF1020CD30F84
:100B800004BF52000CF1010C11464FF00002A0F11D
:100B90001F00A0EB0C00704711F0004F08BF70471A
:100BA00031F000413FF4D5AF0B0C06BF09044FF004
:100BB000100C4FF0000C0B0E04BF09020CF1080CD6
:100BC0000B0F04BF09010CF1040C8B0F04BF89004B
:100BD0000CF1020CCB0F04BF49000CF1010CCCF15D
:100BE0002003A0EB0C0022FA03F302FA0CF241EA14
:100BF000030100F10100704720F07F4C80EA030000
:100C000023F07F47ACEB070303F57C5300F0004073
:100C100003F1FF032DE980494FEA154B09B44FEA70
:100C2000144325EA0B4E24EA03480FF2042606EB90
:100C3000132749083E785FEA320203FB0667C7F5CF
:100C4000000707FB06F64FEA54374FEAD64606F18F
:100C5000020607FB066CCCF1005C4FEA1C472CEA4D
:100C6000074C07FB06F40CFB06F504EB15464FEAB0
:100C7000961634BF00204FF000404FEAD13706FBF4
:100C800007FC4FEA1C4C0CFB0BF7D21B03FB0CF7C9
:100C900061EB07010CFB0EF7B0EB074072EB17425C
:100CA0000CFB08F734BFA2EB0742B2EB074261EB43
:100CB00017414FEA0C444FEA910706FB07FC4FEA45
:100CC0001C4C0CFB0BF7B0EBC74072EB573203FB2D
:100CD0000CF734BFA2EBC742B2EBC74261EB57310E
:100CE0000CFB0EF7B0EBC70072EB57720CFB08F76A
:100CF00034BFA2EBC702B2EBC70261EB5771039F8F
:100D00004FEA816141EA921104EBCC044FEAD137FA
:100D10004FEA826206FB07FC42EA90124FEA8060CB
:100D20004FEA1C4C0CFB0BF7D21B03FB0CF761EBDF
:100D300007010CFB0EF7B0EB074072EB17420CFB00
:100D400008F734BFA2EB0742B2EB074261EB174151
:100D50004FEA8C554FEA910704EB9C2406FB07FCF5
:100D60004FEA1C4C0CFB0BF7B0EBC74072EB573251
:100D700003FB0CF734BFA2EBC742B2EBC74261EBF7
:100D800057310CFB0EF7B0EBC70072EB57720CFB40
:100D900008F734BFA2EBC702B2EBC70261EB577191
:100DA00015EB4C254FEA816141EA92114FEA8262CC
:100DB0004FEAD13742EA901206FB07FC44F10004E7
:100DC0004FEA80604FEA1C4C0CFB0BF7D21B03FB75
:100DD0000CF761EB07010CFB0EF7B0EB074072EB71
:100DE00017420CFB08F734BFA2EB0742B2EB0742F5
:100DF00061EB174115EB1C154FEA813141EA924135
:100E00004FEA823242EA90424FEA80304FEA0C7653
:100E100044F1000448EA03434EEA0B484FF0000E49
:100E2000B2EB080C71EB030724BF624639464EEB68
:100E30000E0E4FF0000B0018524149414BEB0B0BCB
:100E4000B2EB080C71EB03077BF1000B24BF624689
:100E500039464EEB0E0E4FF0000B0018524149413F
:100E60004BEB0B0BB2EB080C71EB03077BF1000BA8
:100E700024BF624639464EEB0E0E51EA020718BFF8
:100E800046F0010616EB0E7655F1000254F1000112
:100E900003D5BDE88901BDE80088BDE88901BDE84A
:100EA0000048B619524141EB0101A3F1010370471B
:100EB00080807F7E7D7C7B7A797877767675747397
:100EC000727171706F6E6E6D6C6C6B6A6A69686856
:100ED000676666656464636362616160605F5F5EEC
:100EE0005E5D5D5C5C5B5B5A5A5959585857575662
:100EF00056555555545453535252525151505050C7
:100F00004F4F4F4E4E4D4D4D4C4C4C4B4B4B4A4A18
:100F10004A4949494848484747474746464645455C
:100F20004544444444434343434242424241414195
:100F3000002B26D4770021D01CB54FEA370703B425
:100F40004FF010004FF010014FF000000FBCBDE853
:100F500010400BF1010BBBF1010F08BF5FEA17074F
:100F600022BF12F1010211F101014FF0004143F1E2
:100F7000000300F0004043EA00007047F9D357082F
:100F8000DAE746EA064613F1400F4FEA16461FDD40
:100F900013F1200FDFBF16430A46002120335B42C6
:100FA000C8D0C3F1200746EA064602FA07F74FEA1F
:100FB000164646EA0706C3F1200722FA03F201FAB1
:100FC00007F721FA03F14FF0000342EA0702B1E705
:100FD00046EA020646EA06464FEA164646EA010691
:100FE000BCBF46EA0646360C4FF000034FF0000245
:100FF0004FF000019EE72DE9C048934630B491E8D8
:10100000380007C831EA400C48BF34EA430C03D526
:10101000FFF7F2FDFFF78CFFF0BCBDE800882DE97B
:10102000C048934630B491E8380007C810F0804FAC
:1010300008BF13F0804F03D100F005F8FFF778FFE9
:10104000F0BCBDE8008820F07F4780EA030023F071
:101050007F4C07EB0C03A3F57C5300F00040A3F199
:10106000FE0392F0000F00F0B38095F0000F00F047
:1010700077802DE901494FEA11404FEA144621EAF1
:10108000004800FB06FC24EA064708FB06F607FBBF
:1010900008F800FB07F718EB06484CEB164C4FEA34
:1010A000124B18EB07484FEA15464CEB174022EA63
:1010B0000B4E0BFB06FC25EA06470EFB06F607FB6C
:1010C0000EFE0BFB07F71EEB064E4CEB164C4FF0DB
:1010D00000061EEB074E4CEB174B18EB0B0840F1CC
:1010E000000018EB0E0B58EB000840F100008F1ABF
:1010F0004FF000013CBFC943661B14BFB5EB040CA5
:1011000000213CBFC943F61B4FEA17444EEA8E0E3E
:1011100027EA04454FEA1C4704FB07622CEA074C08
:1011200005FB07F70CFB05F604FB0CFC16EB07466A
:1011300042EB174216EB0C4642EB1C421BEB060639
:1011400058EB0202414146EA9E0601D5BDE80189FD
:10115000B619524141EB0101A3F10103BDE8018938
:101160004FEA14454FEA114724EA054621EA074CA5
:1011700005FB07F406FB07F70CFB06F105FB0CFC6F
:1011800011EB074144EB17444FEA124711EB0C41B6
:1011900044EB1C4422EA074C05FB07F206FB07F769
:1011A0000CFB06F605FB0CFC16EB074642EB174260
:1011B00016EB0C4642EB1C456A1854F1000148BF7F
:1011C0007047B619524141EB0101A3F10103704789
:1011D00095F0000F37D04FEA11424FEA144721EA49
:1011E000024624EA074C02FB07F106FB07F70CFB5B
:1011F00006F402FB0CFC14EB074441EB17414FEAE9
:10120000154714EB0C4441EB1C4125EA074C02FB4B
:1012100007F506FB07F70CFB06F602FB0CFC16EBCA
:10122000074645EB174516EB0C4645EB1C421219D9
:1012300051F1000148BF7047B619524141EB01011D
:10124000A3F1010370474FEA14454FEA114724EA1E
:10125000054621EA074C05FB07F106FB07F70CFBE7
:1012600006F24FF0000605FB0CFC12EB074241EBC7
:10127000174112EB0C4251EB1C4148BF70479218CA
:1012800041EB0101A3F10103704700001D484FF637
:10129000FF710170002080F309881B48016881F309
:1012A00008881A484FF08051016062B6FEE717487F
:1012B0004FF080510160704714484FF08051016039
:1012C000704772B6EFF3098028B1203880E8F00F3C
:1012D0000F490968086000B50E4880475DF804EBC7
:1012E0000D480E490A78027009480D490A680260E3
:1012F000106890E8F00F203080F309884EF0040E5B
:1013000062B6704722ED00E02801002004ED00E005
:1013100020010020C1290008AE000020AF000020FD
:101320002401002000B585B0684604F05FFD0198F7
:1013300005B000BD00BFFEE710B500F0FBF800F0FF
:1013400003F800F0F3F810BD70B50026002018492E
:101350000880184908801849086018490860184929
:1013600008601849086018490860002400BFFEF7AB
:101370007DFF064600BF00250BE0002010490860F5
:1013800000F074F800F08CF80D4800680444681C04
:1013900085B2002DF1D00C48046000200849086097
:1013A0000849086000BF3046FEF764FF00BF70BD0B
:1013B0003C0000203E0000204000002044000020AF
:1013C0004C00002050000020480000200146084644
:1013D000044A1268904203D9024A1268801A00E057
:1013E000002070474800002070B5002500BFFEF7C0
:1013F0003DFF054600BF0648046800BF2846FEF7CB
:1014000039FF00BF2046FFF7E1FF0646304670BDBA
:101410004C00002070B50025FFF7E6FF044600BF32
:10142000FEF724FF054600BF00200449086000BF06
:101430002846FEF71FFF00BF204670BD4C0000206D
:1014400070B5002500BFFEF711FF054600BF064836
:10145000046800BF2846FEF70DFF00BF2046FFF7D7
:10146000B5FF0646304670BD5000002010B5094853
:101470000088401C074908800748008818B900F018
:1014800083F80649086004480088401C0249088027
:1014900010BD00003C0000203E0000204000002065
:1014A00010B50F480088401E0D4908800846008886
:1014B000A0B900F069F80B490860084600680A49BD
:1014C0000968441A09480068A04201D2074804602C
:1014D00007480068A04201D20548046010BD000022
:1014E0003E00002044000020400000204C0000206E
:1014F0005000002010B5002400BF00BFFEF7B6FE6C
:10150000044600BFFFF7B2FF00BF1021064800F0FD
:10151000F9F800BFFFF7C4FF00BF2046FEF7AAFEA0
:1015200000BF00BF10BD00001813002010B5FFF76A
:10153000E1FF10BD10B500200249086000F00AF874
:1015400010BD00003800002001490860704700000D
:101550003800002010B5FFF7E5FE04460848006893
:1015600040F080700649086000200649486008463F
:10157000006840F0010008602046FFF7E5FF10BD5D
:10158000FCED00E0001000E00149486870470000F1
:10159000001000E070472DE9F041024600250026CA
:1015A000002000230024002791F803C00CF00F0551
:1015B00091F803C00CF0100CBCF1000F03D091F8AF
:1015C00002C04CEA050591F800C0BCF1000F31D013
:1015D000146800202BE04FF0010C0CFA00F3B1F876
:1015E00000C00CEA03069E4220D183004FF00F0C8E
:1015F0000CFA03F7BC4305FA03FC4CEA040491F827
:1016000003C0BCF1280F06D14FF0010C0CFA00FC0E
:10161000C2F814C00AE091F803C0BCF1480F05D12C
:101620004FF0010C0CFA00FCC2F810C0401C082856
:10163000D1D31460B1F800C0BCF1FF0F34DD5468A1
:1016400000202EE000F1080C4FF0010808FA0CF31E
:10165000B1F800C00CEA03069E4221D183004FF08E
:101660000F0C0CFA03F7BC4305FA03FC4CEA040424
:1016700091F803C0BCF1280F05D100F1080C08FA5D
:101680000CF8C2F8148091F803C0BCF1480F07D1E0
:1016900000F1080C4FF0010808FA0CF8C2F81080AD
:1016A000401C0828CED35460BDE8F081016170472A
:1016B00000BFFEE708B50121482004F087FB202089
:1016C000ADF8000010208DF8030003208DF8020013
:1016D00069460948FFF75FFF20210748FFF7E6FF4B
:1016E0002020ADF8000069460448FFF754FF202190
:1016F0000248FFF7DBFF08BD000C01400018014065
:1017000000BFFEE730B505460C46224600212846BC
:1017100000F001F830BD2DE9F04103460C461746B4
:101720000FB9BDE8F08103B9FBE70025002202E014
:101730002D022543521C042AFAD3384603F0030C29
:101740001946BCF1000F08D0624603E001F8014BD6
:10175000401E521C08B1042AF8D30E4601E020C6F0
:10176000001F0428FBD2314602E001F8014B401E65
:101770000028FAD100BFD4E77047000070B50021FF
:1017800000230F22C47804B3154C246804F4E064E9
:10179000C4F5E064210AC1F10403CA40447804FAA4
:1017A00003F184781440214309010E4C0678A155B9
:1017B000047804F01F050124AC4005786D11AD00DC
:1017C00005F1E025C5F8004109E0047804F01F05A3
:1017D0000124AC40044D0678761145F8264070BDD2
:1017E0000CED00E000E400E080E100E0024901438C
:1017F000024A1160704700000000FA050CED00E09D
:101800007047000010B50348006810B10148006837
:10181000804710BD6400002070B5044600F0C2F897
:1018200000204849087048490870484908704849EC
:1018300008604849086048490870484908704849A4
:1018400008704849086048490860484908604849A4
:101850000870484800680A21B0FBF1F0464908606A
:101860004648006858B14648056845B1434806688F
:1018700003E0761E002028602D1D002EF9D10020E7
:101880004049086040490860404908604049086094
:101890004049086040490860404908604049087074
:1018A00002F044FA02F042FB204601F09FFB208840
:1018B00000B170BD204601F0B9FF208800B1F8E703
:1018C000204601F0BFFF208800B1F2E7204602F079
:1018D000A3F8208800B1ECE7204602F057FA2088F0
:1018E00000B1E6E7204602F0A7FC208800B1E0E75F
:1018F000204603F011F8208800B1DAE7204601F015
:1019000001FF208800B1D4E7204601F00BFD2088BC
:1019100000B1CEE7204604F067F8208800B1C8E7A0
:10192000204602F03DFF208800B1C2E7204604F0C7
:10193000B7F8208800B1BCE701F07EFAFFF760FF3E
:1019400000BFB6E77800002080000020C80000201B
:101950002001002024010020AE000020AF00002064
:10196000B0000020BC000020C0000020C400002007
:10197000D0000020506C0008CC000020206C000833
:101980001C6C0008580000205C0000206000002053
:1019900064000020680000206C000020700000201F
:1019A000FE0000200A4A1168002002E0002204C163
:1019B000401C084A12689042F8D3054A1268054B49
:1019C0001B6802EB8302121F034B1A607047000072
:1019D0001C6C0008206C00082801002008480078D2
:1019E000012800D0704707480078FA2800DBF9E7A3
:1019F00004480078401C0349087000BFF2E700006B
:101A0000800000207800002010B500242E480078C7
:101A1000012800D010BD00BFFEF728FC044600BF1F
:101A20002A48007828B900BF2046FEF723FC00BFF3
:101A3000F0E726480078401E2449087008460078E0
:101A4000002805DD00BF2046FEF714FC00BFE1E7DB
:101A50001F480078002805DD00BF2046FEF70AFC7D
:101A600000BFD7E702F04EF91A490870084600781F
:101A700000EB4000184951F820001849086008465A
:101A8000006817490968884205D100BF2046FEF763
:101A9000F1FB00BFBEE711480068D0F89000401C81
:101AA0000E490968C1F890000E480068401C0D49B5
:101AB00008604FF080500C49086000BF2046FEF7D8
:101AC000D9FB00BF00BFA5E7800000207800002000
:101AD000C8000020AF00002054290020240100206D
:101AE00020010020F400002004ED00E010B50024E7
:101AF00020480078002800DD10BD1F48007800282D
:101B000000DDF9E700BFFEF7B1FB044600BF02F0BD
:101B1000F9F81A4908700846007800EB40001849A7
:101B200051F82000174908600846006816490968FE
:101B3000884205D100BF2046FEF79CFB00BFDBE7D3
:101B400010480068D0F89000401C0E490968C1F8A0
:101B500090000E480068401C0C4908604FF080500F
:101B60000B49086000BF2046FEF784FB00BF00BFA2
:101B7000C2E7000078000020C8000020AF0000206D
:101B8000542900202401002020010020F40000201E
:101B900004ED00E070B5044600251A4800780028DE
:101BA00003DD46F66250208070BD1748007801289A
:101BB00003D045F689602080F6E714480078FA28BB
:101BC00003DB45F209202080EEE700BF00BFFEF7EF
:101BD0004DFB054600BFFFF749FC00BF0B480078EE
:101BE000401C0A49087002F085FA00BFFFF758FC54
:101BF00000BF2846FEF73EFB00BF00BF002020804C
:101C000000BFD1E77800002080000020C80000203D
:101C10002DE9F04105460C461646002700BF00BFDF
:101C2000FEF724FB074600BFFFF720FC00BF012D95
:101C300003D000200E49087002E001200C49087012
:101C400014B10C48046006E00B4800680A21B0FBA0
:101C5000F1F00849086000BFFFF722FC00BF3846DA
:101C6000FEF708FB00BF00BF00203080BDE8F08118
:101C7000D0000020CC000020506C000870B5044655
:101C8000002523480078002803DD46F665502080B3
:101C900070BD20480078012803D045F68960208077
:101CA000F6E71D48007818B946F664502080EFE743
:101CB00000BF00BFFEF7DAFA054600BFFFF7D6FB0C
:101CC00000BF15480078401E134908700846007888
:101CD00000280CDD00BFFFF7E3FB00BF2846FEF73E
:101CE000C9FA00BF00BF46F663502080D0E702F07B
:101CF0000FFA00BFFFF7D4FB00BF2846FEF7BAFA81
:101D000000BF00BFFFF7F2FE0020208000BFBFE74A
:101D10007800002080000020C800002010B5044694
:101D200012480078E8B901F0EDFF11490870084643
:101D30000078104908700E48007800EB40000E490A
:101D400051F820000D490860084600680C490860F9
:101D5000012006490870FFF799FA43F69920208080
:101D600002E045F68A60208010BD0000800000205F
:101D7000AF000020AE0000205429002024010020E4
:101D8000200100202DE9F04107464FF0000800BF78
:101D900000BFFEF76BFA804600BFFFF767FB00BF8E
:101DA000002047490860474908804749088047495B
:101DB0000860474908604749086047490860474943
:101DC00008604749088100BFFFF76AFB00BF404633
:101DD000FEF750FA00BF00BF00BF00BFFEF746FA93
:101DE000804600BFFFF742FB00BF3E48046800BFCB
:101DF000FFF756FB00BF4046FEF73CFA00BF00BFAE
:101E000026E000BF00BFFEF731FA804600BFFFF7B3
:101E10002DFB00BF00207834E06320642060206345
:101E2000A061A082E0826062A062FFF7ADFB206249
:101E3000783C04F164060020B081D4F8C04000BFB3
:101E4000FFF72EFB00BF4046FEF714FA00BF00BFAD
:101E5000002CD6D100BF00BFFEF708FA804600BFB5
:101E6000FFF704FB00BF2048056800BFFFF718FB21
:101E700000BF4046FEF7FEF900BF00BF16E000BFFE
:101E800000BFFEF7F3F9804600BFFFF7EFFA00BF8F
:101E900005F120060020B081AD6900BFFFF700FB0F
:101EA00000BF4046FEF7E6F900BF00BF002DE6D1B7
:101EB00003F062FC03F0F0FE00203880BDE8F08102
:101EC000940000208E000020DE000020F0000020A2
:101ED00004010020100100207C000020C000002030
:101EE00048290020F8000020B4000020F8B504467E
:101EF00000266946364800F033FDBDF8000018B1F1
:101F0000BDF800002080F8BD6A460021022000F0E4
:101F1000A9FDBDF8000018B1BDF800002080F2E76F
:101F200000BF00BFFEF7A2F9064600BFFFF79EFA0A
:101F300000BF00202749086000BFFFF7B1FA00BFCB
:101F40003046FEF797F900BF00BF00252248006821
:101F500022490968884205D91F4800681F49096855
:101F6000B0FBF1F525B91C4800680A21B0FBF1F57A
:101F70006A460021284600F075FD6946144800F0C5
:101F8000A5FABDF8000018B1BDF800002080BAE73E
:101F900000BF00BFFEF76AF9064600BFFFF766FA0A
:101FA00000BF00200E4908600A4800680D4908601B
:101FB00001200D49087000BFFFF772FA00BF3046DC
:101FC000FEF758F900BF00BF0020208000BF9AE74D
:101FD000642C0020E0000020506C0008386C0008E1
:101FE000F0000020E4000020EC00002010B50348C1
:101FF000006810B101480068804710BD68000020EB
:102000002DE9FF4F87B004469046DDE91BA5DDE9C9
:102010001496179F0020039095480078002805DD4E
:1020200047F24A1028800BB0BDE8F08F1CB947F288
:10203000AD102880F7E7B8F1000F03D147F24F1039
:102040002880F0E71EB946F62F602880EBE7894824
:102050000068874203D246F630602880E3E716988E
:10206000B84203D346F631602880DCE7B9F1200F8F
:1020700003D346F273202880D5E7B9F1000F06D1CB
:102080007D48844203D046F273202880CBE7B9F123
:102090001F0F06D17948844203D046F2732028806E
:1020A000C1E7204602F048FC002028800AF0010029
:1020B00090B10AF0020078B105960020069008E081
:1020C0000021059801600598001D05900698401CA8
:1020D00006900698B842F3D3169806EB8000049059
:1020E000CDE9007A32464046049B0A9900F0D8FBBD
:1020F0000590C4F828800A98E0620898206284F865
:102100003790059820600498A06019986065199828
:1021100018B95B480068A06501E01998A0651A9895
:1021200060606662A763A4F83CA04FF0000B08E073
:10213000002104F17C0040F82B100BF1010000F0AD
:10214000FF0BBBF1000FF3D004F16400189901F00C
:10215000D9FB204600F09EF800BF00BF00BFFEF78D
:1021600085F8039000BFFFF781F900BF454800786C
:10217000401C4449087008460078012801D101F04C
:10218000B9FF00BFFFF78CF900BF0398FEF772F8A4
:1021900000BF00BF00BF94F8370001F0D3FD204618
:1021A00001F00CFF204602F07DFB37480088401C00
:1021B0003549088035480078012837D000BF00BF76
:1021C00000BFFEF753F8039000BFFFF74FF900BFC1
:1021D0002C480078401E2B49087008460078D0B97A
:1021E00001F096FF2A48008800280BDD00BFFFF7AA
:1021F00057F900BF0398FEF73DF800BF00BF01F09C
:102200004BFF11E000BFFFF74BF900BF0398FEF74B
:1022100031F800BF08E000BFFFF742F900BF0398A4
:10222000FEF728F800BF00BF00BFFCE600BF00BFFC
:1022300000BFFEF71BF8039000BFFFF717F900BFC0
:1022400010480078401E0F4908700846007808B909
:1022500001F05EFF00BFFFF723F900BF0398FEF710
:1022600009F800BF00BF00BFFFF740FC00BFDAE67F
:10227000780000204C6C000880280020B82700203F
:10228000CC000020C8000020FC00002080000020BE
:102290008C00002010B504460348006818B12046A1
:1022A00001490968884710BD5800002070B50446F0
:1022B0000D46002678480078002803DD47F24E10CE
:1022C000288070BD7548844203D147F24C102880A5
:1022D000F7E77348844203D147F24D102880F0E7B6
:1022E0009CB900BF00BFFDF7C1FF064600BFFFF766
:1022F000BDF800BF6B48046800BFFFF7D1F800BF0E
:102300003046FDF7B7FF00BF00BF00BF00BF00BFF2
:10231000FDF7ACFF064600BFFFF7A8F800BF624814
:102320000078401C6049087008460078012801D1F7
:1023300001F0E0FE00BFFFF7B3F800BF3046FDF745
:1023400099FF00BF00BF00BF94F8360008282DD2C7
:10235000DFE800F004090E10080A0F11204601F012
:102360006DFE5EE05DE000BF204603F0E9F958E055
:1023700000BF00BF00BF204603F0E2F994F834002C
:10238000082810D2DFE800F004070508090A0B0648
:1023900000BF00BF08E000BF00BF00BF00BF204675
:1023A00001F001FC00E000BF00BF3AE000BF00BF49
:1023B00000BFFDF75BFF064600BFFFF757F800BF01
:1023C00039480078401E3849087008460078D0B96E
:1023D00001F09EFE3548008800280BDD00BFFFF7A6
:1023E0005FF800BF3046FDF745FF00BF00BF01F0BA
:1023F00053FE11E000BFFFF753F800BF3046FDF772
:1024000039FF00BF08E000BFFFF74AF800BF3046C1
:10241000FDF730FF00BF00BF00BF46F62D602880EB
:102420004FE700BF04F1640001F04AFA204600F0D3
:1024300041F8204602F04EFA1D480088401E1C4913
:102440000880204602F078FAFF2084F8360000BFAA
:1024500000BF00BFFDF70AFF064600BFFFF706F802
:1024600000BF11480078401E0F49087008460078E8
:1024700008B901F04DFE00BFFFF712F800BF30466B
:10248000FDF7F8FE00BF00BF00BF00202880FFF767
:102490002DFB00BF15E7000078000020B8270020C2
:1024A0008028002020010020C80000208C0000208F
:1024B000FC00002010B504460348006818B120460F
:1024C00001490968884710BD5C0000207FB50446BB
:1024D0000D46002600BF00BFFDF7C8FE064600BF40
:1024E000FEF7C4FF00BF1CB11748006884420CD13E
:1024F00000BFFEF7D5FF00BF3046FDF7BBFE00BFB3
:1025000000BF47F2571028807FBD00BFFEF7C8FF0D
:1025100000BF3046FDF7AEFE00BF00BF0B4800789D
:1025200000280BDD00200090019003460246214662
:10253000CDE90205064800F02DFFE5E729462046D3
:1025400002F0A6FB00BFDFE720010020780000209A
:102550005452455310B504460348006818B120464C
:1025600001490968884710BD600000202DE9F04747
:1025700080460E4614461D464FF000098C480078F0
:10258000002805DD46F2AE1028800020BDE8F08767
:102590001EB1B6F5004F02D100E000BF04E045F6E1
:1025A000256028800020F1E700BF0CB100202060EA
:1025B00000BF00BFFDF75AFE814600BFFEF756FF81
:1025C00000BF7C480068406CB8B37A480068406C33
:1025D000401E78490968486476480068476C1CB119
:1025E00074480068006C2060FEF7CEFF71490968EE
:1025F000096C401A6F490968C1F8A4006D48006869
:10260000D0F8A8006B490968D1F8A410884207D215
:1026100068480068D0F8A40066490968C1F8A800B5
:1026200000BFFEF73DFF00BF4846FDF723FE00BF99
:1026300000BF002028803846A8E7FFE706F40040E6
:1026400068B100BFFEF72CFF00BF4846FDF712FE41
:1026500000BF00BF46F2B0102880002096E7564821
:10266000007800280DDD00BFFEF71AFF00BF4846C6
:10267000FDF700FE00BF00BF46F663502880002033
:1026800084E700BF4C480078401C4B49087008465E
:102690000078012801D101F02DFD00BFFEF700FFF9
:1026A00000BF4846FDF7E6FD00BF00BF00BF434640
:1026B00007220021084601F0BBF900BF00BF00BFA0
:1026C000FDF7D4FD814600BFFEF7D0FE00BF3A48BB
:1026D0000078401E384908700846007808B901F0B3
:1026E00017FD00BFFEF7DCFE00BF4846FDF7C2FD48
:1026F00000BF00BF00BFFFF7F9F900BF00BFFDF743
:10270000B5FD814600BFFEF7B1FE00BF2948006855
:1027100090F8350020B1012826D0032834D12CE0D0
:10272000FCB124480068006C2060FEF72DFF2149B1
:102730000968096C401A1F490968C1F8A4001D48BE
:102740000068D0F8A8001B490968D1F8A410884295
:1027500007D218480068D0F8A40016490968C1F8E3
:10276000A8000020288013E01CB112480068006C0B
:10277000206046F2A91028800AE00CB100202060F9
:1027800047F2D920288003E046F62E60288000BF5B
:1027900000BF08480068476C00BFFEF781FE00BF1D
:1027A0004846FDF767FD00BF00BF3846EEE6000073
:1027B0007800002020010020C80000202DE9F0470B
:1027C00005460E4617461C464FF0000A3248007870
:1027D000002804DD47F259102080BDE8F0871EB9BB
:1027E00046F2D5202080F8E71FB946F2D520208098
:1027F000F3E700BF00BFFDF739FD824600BFFEF7DB
:1028000035FE00BF0DB925480568286878B900BFB6
:10281000FEF746FE00BF5046FDF72CFD00BF00BF8F
:1028200000203060386047F252102080D5E795F8DC
:102830003C0000F0010078B900BFFEF731FE00BF98
:102840005046FDF717FD00BF00BF00203060386024
:1028500047F254102080C0E700BFFEF721FE00BF02
:102860005046FDF707FD00BF00BF4FF00008D5F848
:10287000249003E009F1040908F10108D9F80000E7
:102880000028F7D0C6F80080A86BA0EB08003860DD
:102890000020208000BFA0E7780000202001002059
:1028A000F0B50446DDE9055602EB85004FF0807C6B
:1028B000071F3846C7F800C0071F38463C60DFF8DE
:1028C0009CC0071F3846C7F800C04FF0123C071FD6
:1028D0003846C7F800C04FF0033C071F3846C7F81A
:1028E00000C04FF0023C071F3846C7F800C0071F62
:1028F00038463B60071F384639604FF0113C071FD0
:102900003846C7F800C04FF0103C071F3846C7F8DC
:1029100000C04FF0093C071F3846C7F800C04FF011
:10292000083C071F3846C7F800C04FF0073C071F98
:102930003846C7F800C04FF0063C071F3846C7F8B6
:1029400000C04FF0053C071F3846C7F800C04FF0E5
:10295000043C071F3846C7F800C0F0BD0D4E000804
:102960007FB505460C461248854203D147F25B10FD
:1029700020807FBD0F48854203D147F25C10208044
:10298000F7E70D48007800280BDD0020009001904B
:10299000034602462946CDE90204084800F0FAFC45
:1029A000E7E72146284602F011FD00BFE1E70000FD
:1029B000B827002080280020780000205453555369
:1029C00070B52448006810B1224800688047FEF7BF
:1029D000DBFD04462048006820490968884215D07C
:1029E0001D480068D0F89800201A1B490968C1F8F2
:1029F000940019480068D0F89C0017490968D1F87C
:102A00009410084414490968C1F89C0013480068F0
:102A1000C0F89840FEF7FEFC05460F480068D0F865
:102A2000B400A84203D20C480068C0F8B4500A4869
:102A30000068D0F8B8000A490968884205D20848F9
:102A4000006805490968C1F8B80000200449086019
:102A500070BD00006C000020200100202401002037
:102A6000C40000202DE9F04105460E46144600271B
:102A70004D480078002804DD47F275202080BDE82D
:102A8000F0814A480078002803DD46F66350208034
:102A9000F5E736B1022E05D0042E0AD0082E09D152
:102AA00001E000BF00BF1DB947F27E202080E6E7AD
:102AB00004E003E045F625602080E0E700BF00BFAA
:102AC00000BF00BFFDF7D2FB074600BFFEF7CEFCFC
:102AD00000BF36480078401C34490870084600782A
:102AE000012801D101F006FB00BFFEF7D9FC00BFB1
:102AF0003846FDF7BFFB00BF00BF00BF01202C49D7
:102B0000096881F83600234632462946284800687D
:102B100002F038FD2088F0B100BF00BF00BFFDF714
:102B2000A5FB074600BFFEF7A1FC00BF1F480078C9
:102B3000401E1E4908700846007808B901F0E8FAFE
:102B400000BFFEF7ADFC00BF3846FDF793FB00BFAA
:102B500000BF00BF93E71648006801F06FFA00BF9E
:102B600000BF00BFFDF782FB074600BFFEF77EFCFB
:102B700000BF0E480078401E0C49087008460078D7
:102B800008B901F0C5FA00BFFEF78AFC00BF38465D
:102B9000FDF770FB00BF00BF00BFFEF7A7FF0020DE
:102BA000208000BF6BE7000078000020C8000020F4
:102BB000200100202DE9FF5F05460E461746984686
:102BC000DDE90EA40020009081480078002804DD93
:102BD00047F275202080BDE8FF9F7E4800780028DE
:102BE00003DD46F663502080F5E70AF00E0BBBF1DB
:102BF000000F09D0BBF1020F07D0BBF1040F10D0BA
:102C0000BBF1080F0ED101E000BF00BFB8F1000F0B
:102C100006D12FB926B91DB947F27E202080DAE708
:102C200004E003E045F625602080D4E700BF2AF0E9
:102C30001E0008B1012000E0002003900398012845
:102C400003D145F625602080C5E7CAF30010029045
:102C50000298C0B9B8F57A7F03D347F27B20208071
:102C6000B9E73B2F03DD47F27A202080B3E73B2E04
:102C700003DD47F279202080ADE7632D12DD47F2B6
:102C800078202080A7E742F20F70864203DD47F2EA
:102C9000792020809FE7B5F57A7F03DB47F2782023
:102CA000208098E74C48D0F800904FF4FA70B0FBC1
:102CB000F9F0404400FB09F04FF47A71B0FBF1F1F8
:102CC0004FF461606843C6EB061200EB82003844A3
:102CD00000FB091001900198002873D000BF00BFCD
:102CE00000BFFDF7C3FA009000BFFEF7BFFB00BFB7
:102CF00038480078401C3749087008460078012899
:102D000001D101F0F7F900BFFEF7CAFB00BF009840
:102D1000FDF7B0FA00BF00BF00BF01202F490968CE
:102D200081F8360023465A462C480199006802F083
:102D300029FC2088F0B100BF00BF00BFFDF796FA64
:102D4000009000BFFEF792FB00BF22480078401EB3
:102D5000204908700846007808B901F0D9F900BF89
:102D6000FEF79EFB00BF0098FDF784FA00BF00BF8E
:102D700000BF30E71948006801F060F900BF00BFEC
:102D800000BFFDF773FA009000BFFEF76FFB00BFB6
:102D900010480078401E0F4908700846007808B9AE
:102DA00001F0B6F900BFFEF77BFB00BF0098FDF70E
:102DB00061FA00BF00BF00BFFEF798FE0020208030
:102DC00003E0FFE747F27E20208000BF03E700001A
:102DD00078000020C8000020506C0008200100206E
:102DE00010B586B000F01EF8FEF7CEFB044605A82D
:102DF00000210091CDE9011403900748007800EB11
:102E00004000064A02EB800100231A46044800F005
:102E1000C1FA06B010BD0000AE0000205429002009
:102E20005449434B10B50348006810B1014800688D
:102E3000804710BD70000020254A2649264A274AAF
:102E40002749284A2848294A294A2A4A2A4A2B48EF
:102E50002B482C482C4A2D482D4A2E482E4A2F48C4
:102E60002F4830483048314A314A324A3248334A92
:102E7000334A344834483548354836483648374868
:102E8000374A384A384A394A39483A483A483B4A30
:102E90003B4A3C4A3C483D483D483E493E483F4A03
:102EA0003F4A404A404A414A414A424A4248434ACC
:102EB000434A44484448454A454A4648464A474AA0
:102EC00047484848484800BF00BF00BF704700005F
:102ED000946C0008FC6D0008956C0008966C000866
:102EE000986C00089C6C0008A06C00089D6C0008A1
:102EF000C86C0008C96C0008CA6C0008CC6C0008DB
:102F0000CE6C0008D06C0008D26C0008D46C0008AD
:102F1000F46C0008F66C0008F86C0008FA6C000805
:102F2000FC6C0008FE6C0008006D00082C6D0008A9
:102F30002D6D00082E6D0008306D0008326D000800
:102F4000336D0008346D0008366D0008386D0008D8
:102F50003A6D00083C6D00083E6D0008406D0008A9
:102F6000706D0008716D0008726D0008736D0008C7
:102F7000746D0008766D0008786D0008A06D00087B
:102F8000A16D0008A26D0008A36D0008A46D0008E3
:102F9000A66D0008A86D0008AC6D0008AD6D0008B6
:102FA000AE6D0008AF6D0008B06D0008B16D00088F
:102FB000B26D0008B36D0008B46D0008B66D00086E
:102FC000B76D0008B86D0008BA6D0008BC6D000848
:102FD000BD6D0008C06D0008F46D0008F56D0008B7
:102FE000F66D0008F86D0008FA6D00080021034A2C
:102FF0001160034A11800180704700009800002092
:103000009C0000202DE9F04F85B004468946924689
:103010009B46DDF838800020009000BF00BFFDF720
:1030200025F9009000BFFEF721FA00BFBAF1000FAA
:103030000AD0BAF1010F0DD0BAF5004F05D06FF4E8
:103040000040504460B906E000BF206A40EA090031
:10305000206216E000BF206A20EA0900206210E02A
:1030600000BFFEF71DFA00BF0098FDF703F900BF8F
:1030700000BF45F62560A8F80000002005B0BDE8B7
:10308000F08F00BFC4F824B004F10800019001984B
:10309000008968B900BFFEF703FA00BF0098FDF78A
:1030A000E9F800BF00BF0020A8F80000206AE5E7AB
:1030B00000BF71480078401C6F49087008460078CE
:1030C000012801D101F016F800BFFEF7E9F900BFB1
:1030D0000098FDF7CFF800BF00BF00BF0198076858
:1030E000BD6889E07868029095F8880000F00F00CC
:1030F00003900398012821D002282ED0042802D062
:10310000082836D10EE0206AD5F8801000EA0106C2
:10311000D5F88000B04204D15A463146284600F026
:10312000AFF863E0206AD5F8801000EA010626B106
:103130005A463146284600F0A3F857E0D5F88000FB
:10314000216A20EA0106D5F88000B04204D15A462F
:103150003146284600F094F848E0D5F88000216A0E
:1031600020EA010626B15A463146284600F088F882
:103170003CE000BF00BF00BFFDF778F8009000BF43
:10318000FEF774F900BF3C480078401E3A490870C9
:1031900008460078D0B900F0BBFF38480088002806
:1031A0000BDD00BFFEF77CF900BF0098FDF762F869
:1031B00000BF00BF00F070FF11E000BFFEF770F924
:1031C00000BF0098FDF756F800BF08E000BFFEF70B
:1031D00067F900BF0098FDF74DF800BF00BF00BFC2
:1031E00043F6FF20A8F80000002047E700BF029F39
:1031F0000FB1BD6800E00025002D7FF473AF00BF64
:1032000000BF00BFFDF732F8009000BFFEF72EF9B7
:1032100000BF19480078401E17490870084600781A
:1032200008B900F075FF00BFFEF73AF900BF00983B
:10323000FDF720F800BF00BF00BF0AF4004008B946
:10324000FEF754FC00BF00BFFDF710F8009000BF70
:10325000FEF70CF900BF206A049000BFFEF720F9CA
:1032600000BF0098FDF706F800BF00BF0020A8F8D7
:103270000000049802E70000C80000208C00002035
:1032800070B504460E46154634342665002060703D
:103290002070E560A078343C082816D2DFE800F002
:1032A000040508090706101100BF00BF00BF0DE0AC
:1032B00000BF204601F0DEFC002084F8360005E067
:1032C00000BF042084F8360000E000BF00BF2046A5
:1032D00000F069FC70BD0000002400BF1DE000BFCD
:1032E00000BFFCF7C3FF044600BFFEF7BFF800BFF6
:1032F0000A480068401C0949086009480068401CE9
:103300000749086000BFFEF7CBF800BF2046FCF776
:10331000B1FF00BF00BFFEF775FAE0E774000020C0
:10332000E000002010B58AB0044600200E49086075
:103330000B2000210591CDE90704069108460B49B1
:1033400009680B4A12680B4B1B68CDE90132CDE9C5
:1033500003101F200023084A08A100900C48FEF724
:103360004FFE0AB010BD000074000020F86B00088A
:10337000F46B0008F06B0008D932000875432F4F3A
:10338000532D4949492049646C65205461736B0091
:10339000B82700202DE9F84F04460D4616461F4673
:1033A000DDE90BABDDF82890DDF8348000200090DB
:1033B00000BF00BFFCF75AFF009000BFFEF756F8B1
:1033C00000BF2C4800882C49098888423EDA2948E9
:1033D0000088401C274908802848008809888842BE
:1033E00003DA2448008825490880254800680460DD
:1033F00023480068856022480068C660204800684D
:1034000007821F480068C0F814901D480068A0F8A3
:1034100018A01B480068C0F81CB019480068406834
:10342000174908600120174908811748086048605B
:10343000002000F087FC1548007818B11348007888
:10344000134908700020A8F8000008E0114800881F
:10345000401C1049088044F25360A8F8000000BFE7
:10346000FEF71EF800BF0098FCF704FF00BF00BF86
:10347000BDE8F88F8C000020046C00088E0000204E
:10348000840000205429002080280020AE00002065
:10349000B0000020900000203EB559480068006848
:1034A000584A811A904279D00FDC574908440028C5
:1034B0003ED056490844A8B155490844002860D078
:1034C0005449084400286AD13FE053480844002882
:1034D00050D052490844002862D05149084400287D
:1034E000F1D110E002A8464D00902D68EB69444DE3
:1034F0002D682A8B424D2D686969414D2D68A86859
:10350000FFF780FD7AE002A93D480068C0693C4DA4
:10351000CDE900012D682B8B394D2D682A8A384D55
:103520002D68E968364D2D68A86800F03BFC65E021
:10353000334B1B68DA69324B1B68198B304B1B68A5
:10354000986802AB00F084FE58E002A92C4800689D
:10355000C0692B4DCDE900012D682B8B284D2D68BE
:103560002A8A274D2D68E968254D2D68A86801F045
:103570004BFA43E022490968886802A901F088FBF8
:103580003CE01F4B1B68DA691D4B1B68198B1C4BF9
:103590001B68986802AB01F045FC2FE007E02CE0C7
:1035A00017490968886802A901F010FF26E01D4943
:1035B000097801EB41011C4A02EB810000F0C6FDD5
:1035C0000F48006802AB0021C269184801F02AFCCC
:1035D00017480068401E164908600846006858B938
:1035E000144800680860FDF7CFFF044602AB22468E
:1035F0000021114801F016FC00E000BF00BF3EBDF5
:10360000880000205449434BADBAB2BE0DF90BFA05
:10361000F2F8F7FF0006F6FF00F7FDF700FFEFFFF7
:1036200003FE0FFEB0000020542900209C2B002038
:103630001C01002018010020642C0020002700BF7E
:1036400056E0002652E000BF00BFFCF70FFE074621
:1036500000BFFDF70BFF00BF2648008898B9002087
:10366000254908810860486000F07EFB00BFFDF737
:1036700017FF00BF3846FCF7FDFD00BF00BFFEF797
:1036800035FA012632E000BFFDF70AFF00BF3846D9
:10369000FCF7F0FD00BF00BFFDF776FF0546FFF722
:1036A000FBFEFDF771FF441B14480068A04201D2E5
:1036B0001248046000BF00BFFCF7D8FD074600BFFA
:1036C000FDF7D4FE00BF0E48006840680C49086052
:1036D00008480088401E0749088000BFFDF7E0FE4B
:1036E00000BF3846FCF7C6FD00BF00BF002EAAD0C1
:1036F000A7E700008C00002054290020940000203F
:1037000088000020F0B589B00546002031490880C6
:103710003148006820B944F25260288009B0F0BDF9
:103720002E480088022803DA44F254602880F5E726
:1037300000202B49086028480468264620360027C8
:103740000CE0284820600020A060E06020826061DA
:103750002083666020342036781C87B21F4800889A
:103760008742EEDB203C1C48066866601E48066007
:103770001E48066000201E4908801E4908801E4819
:10378000006818B944F255602880C7E71B480068F4
:103790001B490968884203D244F256602880BDE77D
:1037A000032000210591CDE9070506911348006823
:1037B000144A1268104B1B68CDE90301CDE90132B0
:1037C00000910B46104A11A11748FEF719FC00BFE3
:1037D000A4E7000090000020006C0008046C0008C2
:1037E000940000204E4F4E458400002088000020A9
:1037F0008C0000208E0000200C6C0008146C000867
:103800004C6C0008106C00083D36000875432F4FC3
:10381000532D4949492049535220517565756520FA
:103820005461736B00000000802800200021034ACF
:103830001160034A1180018070470000A000002041
:10384000A400002070B501461A4D2D681DB945F23F
:103850001E750D8070BD184D2D881DB945F21D7562
:103860000D80F7E7134D28682A681032124D2D8815
:103870006D1EACB2002308E00260002545600581A2
:10388000C560103010325D1CABB2A342F4DB0025E2
:10389000056045600581C560064D2D68074E3560A1
:1038A000054D2D88B5800025F58035810D8000BF40
:1038B000D0E70000306C0008286C00084829002080
:1038C00010B5014648894B89002B17DD0A680C4B5F
:1038D0001B6813600A4C4B6823602346DB884C89C5
:1038E0001B1B074CE38023469B884C892344044CD4
:1038F000A38000234B818B810B604B6010BD0000C7
:1039000048290020018100224281828102604260B8
:10391000704700002DE9F0410D46DDE90674B0F86E
:103920000AC0B0F80880C44505DB46F2935CA4F8F1
:1039300000C0BDE8F081DFF8DCC0BCF804C0BCF119
:10394000000F04D145F21D7CA4F800C0F1E7DFF8B8
:10395000C4C0DCF80010DFF8BC80D1F800C0C8F8A3
:1039600000C0C446BCF804C0ACF1010CA8F804C007
:10397000C446BCF806C00CF1010CA8F806C0C44649
:10398000BCF808C0B8F80680C44507DADFF884C080
:10399000BCF806C0DFF87C80A8F808C0B0F80AC000
:1039A000BCF1000F0AD1016041604FF0010CA0F89A
:1039B0000AC04FF0000CC1F800C017E003F0100C73
:1039C000BCF1000F07D10668316001604FF0000CB8
:1039D000C1F800C004E0D0F804C0C1F800C04160E4
:1039E000B0F80AC00CF1010CA0F80AC0B0F80CC085
:1039F000B0F80A80C44503DAB0F80AC0A0F80CC0D9
:103A00004D600A81CF604FF0000CA4F800C000BFE9
:103A10008FE70000482900200021034A1160034A73
:103A20001180018070470000A8000020AC00002039
:103A30002DE9F04105460C4616461F46154800681C
:103A400080F8346000201349096881F83500394650
:103A50001048006800F00AFF6CB104F10808EC603F
:103A6000012229460B48006800F016F82946404616
:103A700000F066F806E0002006490968C887054995
:103A80000968086303480168204600F019F8BDE89A
:103A9000F08100002001002010B5C28701630023DF
:103AA0000AE000244C600C600C614C610C83CC611A
:103AB000886020315C1CA3B29342F2DB10BD000091
:103AC00030B548B14568C1F8C45000F10804226817
:103AD00093681D6AC56113E091F83450022D02D03D
:103AE000072D08D103E007A5C1F8C45007E007A5DA
:103AF000C1F8C45003E008A5C1F8C45000BF00BF1E
:103B000030BD00005461736B205100005461736B31
:103B10002053656D000000002000000030B507A5AF
:103B2000C1F8C45000F1080422681AB193681D6AF4
:103B3000C56101E001A5C56130BD000020000000A5
:103B4000F0B58E6896F8375007893FB9012707818D
:103B500000274F600F600160416023E007897F1CF0
:103B60000781026806E0946894F83770AF4200DD80
:103B700002E05268002AF6D100BF32B900274F6038
:103B800043680B60596041600CE017682FB9116001
:103B900000270F604A60016004E013680B604A6010
:103BA00059601160F0BD2DE9F0410446256BE68FA8
:103BB0000AE0D5F80C8008F108072946384600F0DD
:103BC0000AF82035701E86B2002EF2DC0020E08755
:103BD0002063BDE8F08110B50489012C03D10024D5
:103BE0000460446011E00C6824B94A680024146041
:103BF00002600AE04C6824B90B6800245C604360F2
:103C000003E00B684A685A6013600489641E0481EB
:103C100000244C600C6010BD2DE9F84306460C46AC
:103C200017469846089D94F83600082850D2DFE8D9
:103C300000F00405080906072B2C00BF00BF00BFD9
:103C400047E000BF94F83400032807D143463A46C2
:103C500021463046009500F03FF803E0E765A4F800
:103C60006080256436B12046FFF79DFF214630462F
:103C7000FFF754FF204600F0FDFF00203434A07011
:103C8000607004F8340924E000BF94F8340003287D
:103C900007D143463A4621463046009500F01CF8CD
:103CA00003E0E765A4F860802564204601F048FD44
:103CB00036B12046FFF777FF21463046FFF72EFF4B
:103CC00004203434A0700020607004F8340900E04F
:103CD00000BF00BFBDE8F883F0B50446059E086B41
:103CE000CD8F0AE0C768A74204D104614261038313
:103CF000C66104E020306F1EBDB2002DF2DC00BFB3
:103D0000F0BD000070B50025074C03E005F1200070
:103D1000C5B2241D20680028F8D02068FCF7B1FA4D
:103D20002844C5B2284670BD54000020002004E09D
:103D30000021034A42F82010401C0028F8D07047A8
:103D40005400002030B5420900F01F030121C3F1E7
:103D50001F04A140034C54F822400C43014D45F888
:103D6000224030BD5400002030B5420900F01F034E
:103D70000121C3F11F04A140034C54F822408C439D
:103D8000014D45F8224030BD540000200021034A77
:103D90001160034A1180018070470000B4000020C8
:103DA000B80000202DE9F04F85B007468A469346BB
:103DB0001C460020029000BF00BF00BFFCF756FA6F
:103DC000029000BFFDF752FB00BF56480078401C30
:103DD0005449087008460078012801D100F08AF99A
:103DE00000BFFDF75DFB00BF0298FCF743FA00BF80
:103DF00000BF00BF07F10806308900284CD104F04D
:103E0000100010B94FF0000801E04FF01008DDE994
:103E10000E0143465A46CDE90001514607F1200004
:103E2000FFF778FD00BF00BF00BFFCF71FFA02904C
:103E300000BFFDF71BFB00BF3A480078401E394920
:103E4000087008460078D0B900F062F9364800885A
:103E500000280BDD00BFFDF723FB00BF0298FCF735
:103E600009FA00BF00BF00F017F911E000BFFDF72D
:103E700017FB00BF0298FCF7FDF900BF08E000BF88
:103E8000FDF70EFB00BF0298FCF7F4F900BF00BF7E
:103E900000BF05B0BDE8F08F04F4007008B13589AB
:103EA00000E00125D6F8009011E0D9F80800039051
:103EB000D9F8040004900E985B46524600903846AC
:103EC0000399FFF7A9FEDDF81090681E85B2002D5A
:103ED000EBD100BF00BF00BFFCF7C8F9029000BFE4
:103EE000FDF7C4FA00BF0F480078401E0D49087066
:103EF0000846007808B900F00BF900BFFDF7D0FACA
:103F000000BF0298FCF7B6F900BF00BF00BF04F481
:103F1000004008B9FDF7EAFD00210F98018000BFBD
:103F2000B7E70000C80000208C00002000210AE054
:103F300001EB4102054B03EB82000022028102608B
:103F400042604A1CD1B22029F2D370475429002084
:103F500010B5044694F83700FFF7F4FE94F83700E4
:103F600005490978884203D1204600F027F802E08D
:103F7000204600F003F810BDAE00002010B590F808
:103F8000373003EB43030C4C04EB83010B893BB943
:103F900001230B810023C36003610860486009E0CE
:103FA0000B895B1C0B810B68C360002303610A68EB
:103FB0001061086010BD00005429002010B590F871
:103FC000373003EB43030B4C04EB83010B893BB904
:103FD00001230B810023C36003610860486008E08F
:103FE0000B895B1C0B810023C3604A680261D060AF
:103FF000486010BD5429002010B501460C8924B139
:10400000012C03D0022C0CD101E000BF14E00868A1
:104010004A6802610024C4601461D0600A6048608C
:104020000AE008684A68C36800241C61C460026131
:10403000D0600B60486000BF00BF10BD2DE9F041AB
:10404000054695F8370000EB4000124901EB80046B
:104050002F69EE6887B946B9002020812060606032
:1040600095F83700FFF780FE0EE02089401E208182
:1040700000203061266007E02089401E2081FE601C
:104080000EB9676000E0376100202861E860BDE894
:10409000F08100005429002010B5002400BFFCF777
:1040A000E5F8044600BF00200D4908700D480E4990
:1040B000086008460068D0F89000401C0968C1F804
:1040C00090000A480068401C084908604FF0805082
:1040D0000749086000BF2046FCF7CCF800BF10BDC0
:1040E000AF0000208028002024010020F4000020E0
:1040F00004ED00E010B504480078012803D1FDF775
:1041000043FA0249086010BDC8000020BC0000202E
:1041100010B50A48007880B9FDF736FA08490968F1
:10412000441A08480068A04201D2064804600648C4
:104130000068A04201D20448046010BDC8000020FD
:10414000BC000020C0000020C400002070B505465F
:10415000002635480078012800D070BD00BF00BFA0
:10416000FCF784F8064600BFFDF780F900BF2C6815
:104170004CB900BFFDF794F900BF3046FCF77AF860
:1041800000BF00BFE9E72948844209D100BFFDF71D
:1041900087F900BF3046FCF76DF800BF00BFDCE7D1
:1041A000A06D10B1A06D401EA065A06D48B100BF0C
:1041B000FDF776F900BF3046FCF75CF800BF00BFA2
:1041C000CBE72889022809DA00BFFDF769F900BFAB
:1041D0003046FCF74FF800BF00BFBEE71448007838
:1041E000002809DD00BFFDF75BF900BF3046FCF792
:1041F00041F800BF00BFB0E72846FFF7FDFE2C687E
:10420000606D18B90B480068A06501E0606DA0659D
:1042100000BFFDF745F900BF3046FCF72BF800BFA3
:1042200000BF00BF99E70000D0000020B8270020A1
:10423000C8000020CC0000200021034A1160034A7E
:104240001180018070470000D4000020D8000020B9
:104250002DE9FF5F0446884691461D4600200190E7
:1042600000BF00BFFCF702F8019000BFFDF7FEF8A9
:1042700000BF04F108073889002857D1042001281D
:1042800004D0022816D004283AD127E0206AFF285B
:104290000FD100BFFDF704F900BF0198FBF7EAFF5B
:1042A00000BF00BF46F6C5502880002004B0BDE81E
:1042B000F09F26E04FF6FF71206A88420DD100BFC3
:1042C000FDF7EEF800BF0198FBF7D4FF00BF00BF79
:1042D00046F6C55028800020E8E712E0206A401C1E
:1042E00068B900BFFDF7DCF800BF0198FBF7C2FF1B
:1042F00000BF00BF46F6C55028800020D6E700E08A
:1043000000BF00BF206A401C2062D4F820A0C4F87F
:10431000249000BFFDF7C4F800BF0198FBF7AAFF87
:1043200000BF00BF002028805046BFE700BF2D48D7
:104330000078401C2B49087008460078012801D1FC
:10434000FFF7D8FE00BFFDF7ABF800BF0198FBF701
:1043500091FF00BF00BF00BF08F4007008B13E89A4
:1043600000E00126D7F800B011E0DBF80800029069
:10437000DBF80400039000231A46CDF80090204695
:104380000299FFF749FCDDF80CB0701E86B2002ED2
:10439000EBD1D4F820A000BF00BF00BFFBF766FF41
:1043A000019000BFFDF762F800BF0E480078401E84
:1043B0000C4908700846007808B9FFF7A9FE00BF4D
:1043C000FDF76EF800BF0198FBF754FF00BF00BF78
:1043D00000BF08F4004008B9FDF788FB00202880E2
:1043E000504663E7C800002086B00020009000BF60
:1043F00006E0D9490968480001AA0021FEF732FB0E
:10440000D64800780128F4D101A8FDF7BBFC0027AD
:10441000D3480068D0490968884205D9D048006867
:10442000CD490968B0FBF1F727B9CD4800680A21EA
:10443000B0FBF1F78EE1FDF7A7F88246FDF700F833
:10444000C849086000BF00BFFBF710FF009000BF25
:10445000FDF70CF800BFC4480068C449086000209C
:10446000C149086000BFFDF71BF800BF0098FBF7CB
:1044700001FF00BF00BFBE480068BC490968884210
:1044800048D9BB480068BB49884205D242F2107047
:1044900003900120029023E0B5480068B6498842A5
:1044A00005D24FF47A7003900A20029018E0B048C9
:1044B0000068B249884203D26420039002900FE062
:1044C000AB480068AE49884205D20A2003904FF4F9
:1044D0007A70029004E00120039042F21070029082
:1044E000A34801680298B1FBF0F9A0490398096854
:1044F0004843B0FBF9F042F21071081AA149088054
:10450000A14800880988884208DA9E4800889E49A8
:10451000088003E042F210709A490880FDF766FDBA
:10452000002500BF00BFFBF7A1FE009000BFFCF715
:104530009DFF00BF9548046800BFFCF7B1FF00BFB6
:104540000098FBF797FE00BF00BF72E000BF00BFFE
:1045500000BFFBF78BFE009000BFFCF787FF00BF9A
:104560008B480078401C8A4908700846007801286A
:1045700001D1FFF7BFFD00BFFCF792FF00BF00981D
:10458000FBF778FE00BF00BF00BF54F89C0F6060CF
:10459000002044F89C0900BF00BF00BFFBF766FE87
:1045A000009000BFFCF762FF00BF79480078401E12
:1045B0007749087008460078D0B9FFF7A9FD75481B
:1045C000008800280BDD00BFFCF76AFF00BF0098E1
:1045D000FBF750FE00BF00BFFFF75EFD11E000BF1C
:1045E000FCF75EFF00BF0098FBF744FE00BF08E049
:1045F00000BFFCF755FF00BF0098FBF73BFE00BF74
:1046000000BF00BFD4F8A000054400BF00BFFBF707
:104610002DFE009000BFFCF729FF00BFD4F8C0407A
:1046200000BFFCF73DFF00BF0098FBF723FE00BF73
:1046300000BF002C8AD145B34E48854205D242F2D4
:10464000107005904FF0010B1BE04B48854205D2DE
:104650004FF47A7005904FF00A0B12E047488542FC
:1046600003D26420059083460BE04548854204D27E
:104670000A2005904FF47A7B03E00120059042F276
:10468000107BB5FBFBF0049003E0002005900120B7
:10469000049000BF00BFFBF7E9FD009000BFFCF7EE
:1046A000E5FE00BF3948046800BFFCF7F9FE00BF13
:1046B0000098FBF7DFFD00BF00BF2FE0D4F8A0009B
:1046C000059948430499B0FBF1F086B242F21070AC
:1046D000864200D90646A4F88C60B4F88E00B04239
:1046E00001DAA4F88E6001AB04F1AC02111D204682
:1046F000FEF764F800BF00BFFBF7B8FD009000BFF5
:10470000FCF7B4FE00BFD4F8C04000BFFCF7C8FE01
:1047100000BF0098FBF7AEFD00BF00BF002CCDD15D
:104720001D480078012805D100201B49087001A808
:10473000FDF728FBFCF728FFA0EB0A0817480068E4
:10474000404502D21548C0F8008001AA0021384631
:10475000FEF788F96FE60000386C0008EC000020D6
:10476000506C00087C000020E0000020E8000020E1
:10477000E4000020801A060000093D00005A620291
:104780000084D717DC000020DE000020F8000020A5
:10479000C80000208C000020DA000020F00000207B
:1047A00010B58AB0044600201F4908601F49086000
:1047B0001F4908601F4908701F4908701F4800689A
:1047C00020B946F62B6020800AB010BD1C48006856
:1047D0001C490968884203D246F62C602080F3E722
:1047E000194800781F2803D346F62A602080EBE79B
:1047F000032000210591CDE90704069108461049E0
:104800000968124A12680D4B1B68CDE90132CDE9E7
:1048100003100D48007800230D4A0EA100901248A5
:10482000FDF7EEFB00BFCFE7E0000020E80000202E
:10483000E4000020EC000020DA0000203C6C0008BE
:10484000446C00084C6C0008346C0008406C000894
:10485000E943000875432F4F532D494949205374AC
:104860006174205461736B00D42A002038B504466B
:104870000D4685B16B4602222946204600F082FE95
:10488000BDF8000018B9032084F8360006E00220C5
:1048900084F8360002E0022084F836002046FFF754
:1048A000CDFB38BD0021C0F8BC100949096819B911
:1048B0000021C0F8C01007E005490968C0F8C01021
:1048C00003490968C1F8BC0001490860704700004D
:1048D000F8000020D0F8BC20D0F8C0104AB90D4B29
:1048E000196011B10023C1F8BC300023C0F8C030FA
:1048F0000FE029B90023C2F8C030C0F8BC3008E08E
:10490000C2F8C010C1F8BC200023C0F8C030C0F805
:10491000BC307047F80000200021044A1160044AAE
:104920001180044A1160018070470000F8000020E7
:10493000FC000020F400002070B504460020206038
:10494000A0606060E06020616061A061E0612BA018
:10495000206200206062A062E0622063E087206441
:10496000E065A4F86000002104F16400FEF7CAFFCE
:10497000002044F8740F6060E060A0822061743C05
:10498000002506E0002104F17C0040F82510681C99
:10499000C5B2002DF6D00020343420612067606756
:1049A000606084F85600E067A06720814FF0004007
:1049B00060610020A061E06120626062A4F858009C
:1049C000A4F85A00E0652066FCF7DEFD0646666640
:1049D0000020A066C4F88000C4F8840020706070D5
:1049E000A0702020E0700020C4F88800C4F88C007B
:1049F00004A0C4F89000343C70BD00003F546173C3
:104A00006B000000200000002DE9FC4704460F4623
:104A100090469946DDE90A654FF0000A00BF00BFE5
:104A200000BFFBF723FC824600BFFCF71FFD00BF61
:104A30008D480078401C8C49087008460078012891
:104A400001D1FFF757FB00BFFCF72AFD00BF50461E
:104A5000FBF710FC00BF00BF00BF0CB9834804681F
:104A60000020288094F8360008287CD2DFE800F087
:104A70000405484906074A4B00BF00BF00BF4B462C
:104A80004246394604F16400CDE90065FEF742FF75
:104A900000BF00BF00BFFBF7E9FB824600BFFCF789
:104AA000E5FC00BF70480078401E6F49087008465A
:104AB0000078D0B9FFF72CFB6D48008800280BDD8B
:104AC00000BFFCF7EDFC00BF5046FBF7D3FB00BF77
:104AD00000BFFFF7E1FA11E000BFFCF7E1FC00BF07
:104AE0005046FBF7C7FB00BF08E000BFFCF7D8FC4F
:104AF00000BF5046FBF7BEFB00BF00BF00BFAFE0EA
:104B000000BF00BF00BF94F8340002282CD14346F8
:104B10003A46214600200096FFF77EF800BF00BF0E
:104B200000BFFBF7A3FB824600BFFCF79FFC00BF62
:104B30004D480078401E4C4908700846007808B976
:104B4000FFF7E6FA00BFFCF7ABFC00BF5046FBF7EF
:104B500091FB00BF00BF00BF09F40040002843D113
:104B6000FCF7C4FF40E040E04B464246394604F1C2
:104B70006400CDE90065FEF7CDFE00BF00BF00BFB9
:104B8000FBF774FB824600BFFCF770FC00BF3648A1
:104B90000078401E3449087008460078D0B9FFF705
:104BA000B7FA3348008800280BDD00BFFCF778FC1B
:104BB00000BF5046FBF75EFB00BF00BFFFF76CFA7B
:104BC00011E000BFFCF76CFC00BF5046FBF752FB46
:104BD00000BF08E000BFFCF763FC00BF5046FBF7D6
:104BE00049FB00BF00BF00BF3AE000BF00BF00BFED
:104BF000FBF73CFB824600BFFCF738FC00BF1A48BD
:104C00000078401E1849087008460078D0B9FFF7B0
:104C10007FFA1748008800280BDD00BFFCF740FC36
:104C200000BF5046FBF726FB00BF00BFFFF734FA7A
:104C300011E000BFFCF734FC00BF5046FBF71AFB45
:104C400000BF08E000BFFCF72BFC00BF5046FBF79D
:104C500011FB00BF00BF00BF46F62D60288000BFDB
:104C600000BFBDE8FC870000C80000202001002034
:104C70008C00002010B50446204600F061FD94F839
:104C8000360000F0040010B92046FFF761F910BDAE
:104C900070B504460D46002600BF00BFFBF7E6FADC
:104CA000064600BFFCF7E2FB00BF0020288094F816
:104CB000360008287ED2DFE800F004050607145607
:104CC0006A8000BF00BF00BF00BFFCF7E9FB00BF68
:104CD0003046FBF7CFFA00BF00BF47F253102880E1
:104CE0008CE000BF48480078401C474908700846DF
:104CF0000078012801D1FFF7FDF900BFFCF7D0FBD8
:104D000000BF3046FBF7B6FA00BF00BF00BF14F883
:104D10008A0F401E207014F88A0928B9002084F8F0
:104D200036002046FFF7A6FF00BF00BF00BFFBF71D
:104D30009DFA064600BFFCF799FB00BF3248007899
:104D4000401E314908700846007808B9FFF7E0F9BD
:104D500000BFFCF7A5FB00BF3046FBF78BFA00BF96
:104D600000BF00BF4AE014F88A0F401E207014F8FC
:104D70008A0910B9012084F8360000BFFCF790FBC7
:104D800000BF3046FBF776FA00BF00BF36E014F8EC
:104D90008A0F401E207014F88A0910B9022084F886
:104DA000360000BFFCF77CFB00BF3046FBF762FA21
:104DB00000BF00E015E000BF20E014F88A0F401E9D
:104DC000207014F88A0910B9032084F8360000BF57
:104DD000FCF766FB00BF3046FBF74CFA00BF00BF94
:104DE0000CE000BFFCF75CFB00BF3046FBF742FA6B
:104DF00000BF00BF46F62D60288070BD00BFFCF7E5
:104E000075FE00BFF9E70000C800002008B504489F
:104E10000068FDF79FFB69460020FDF747FA08BDD3
:104E2000200100202DE9F8430446884617461D4618
:104E30004FF0000900BF00BF00BFFBF717FA814623
:104E400000BFFCF713FB00BFFB480078401CFA4989
:104E5000087008460078012801D1FFF74BF900BF20
:104E6000FCF71EFB00BF4846FBF704FA00BF00BF7B
:104E700000BF0CB9F148046827640020288094F82A
:104E8000360008287AD2DFE800F00405FEFD0607A8
:104E9000FCFB00BF00BF00BF0420012804D0022893
:104EA00043D004286BD184E0606CFF283CD100BF64
:104EB00000BF00BFFBF7DAF9814600BFFCF7D6FA66
:104EC00000BFDD480078401EDB49087008460078C6
:104ED000D0B9FFF71DF9DA48008800280BDD00BFC4
:104EE000FCF7DEFA00BF4846FBF7C4F900BF00BF7D
:104EF000FFF7D2F811E000BFFCF7D2FA00BF484636
:104F0000FBF7B8F900BF08E000BFFCF7C9FA00BF23
:104F10004846FBF7AFF900BF00BF00BF46F6C550DB
:104F200028800020BDE8F88385E04FF6FF71606CB3
:104F300088423DD100BF00BF00BFFBF797F9814613
:104F400000BFFCF793FA00BFBB480078401EBA4987
:104F5000087008460078E0B9FFF7DAF8B84800882A
:104F600000280DDD00BFFCF79BFA00BF4846FBF7A9
:104F700081F900BF00BFFFF78FF813E0E2E159E0CD
:104F800000BFFCF78DFA00BF4846FBF773F900BF7E
:104F900008E000BFFCF784FA00BF4846FBF76AF957
:104FA00000BF00BF00BF46F6C55028800020B9E70B
:104FB00041E0606C401CD8BB00BF00BF00BFFBF7E6
:104FC00055F9814600BFFCF751FA00BF9A480078B6
:104FD000401E9949087008460078D0B9FFF798F844
:104FE0009748008800280BDD00BFFCF759FA00BF86
:104FF0004846FBF73FF900BF00BFFFF74DF811E04F
:1050000000BFFCF74DFA00BF4846FBF733F900BF7D
:1050100008E000BFFCF744FA00BF4846FBF72AF956
:1050200000BF00BF00BF46F6C5502880002079E7CA
:10503000FFE700E000BF00BF606C401C6064666C6E
:1050400000BF00BF00BFFBF711F9814600BFFCF7AE
:105050000DFA00BF78480078401E7749087008466E
:105060000078F8B9FFF754F875480088002810DD7B
:1050700000BFFCF715FA00BF4846FBF7FBF803E05A
:105080001EE01CE01AE018E000BF00BFFFF704F8C4
:1050900011E000BFFCF704FA00BF4846FBF7EAF84E
:1050A00000BF08E000BFFCF7FBF900BF4846FBF774
:1050B000E1F800BF00BF00BF80E100BF00BF00BF3C
:1050C00094F8340007282CD100231A4621461846AC
:1050D0000097FEF7A1FD666C00BF00BF00BFFBF7A5
:1050E000C5F8814600BFFCF7C1F900BF52480078FF
:1050F000401E514908700846007808B9FFF708F8C3
:1051000000BFFCF7CDF900BF4846FBF7B3F800BF7E
:1051100000BF00BF08F40040002801D1FCF7E6FC06
:105120000FE10420012804D0022842D0042872D1C3
:1051300089E0606CFF283BD100BF00BF00BFFBF7D8
:1051400095F8814600BFFCF791F900BF3A48007816
:10515000401E3949087008460078D0B9FEF7D8FFDC
:105160003748008800280BDD00BFFCF799F900BF25
:105170004846FBF77FF800BF00BFFEF78DFF11E048
:1051800000BFFCF78DF900BF4846FBF773F800BF7E
:1051900008E000BFFCF784F900BF4846FBF76AF857
:1051A00000BF00BF00BF46F6C55028800020B9E60A
:1051B0008BE04FF6FF71606C884243D100BF00BFA7
:1051C00000BFFBF753F8814600BFFCF74FF900BF63
:1051D00019480078401E1849087008460078D8B968
:1051E000FEF796FF1648008800280BDD00BFFCF78D
:1051F00057F900BF4846FBF73DF800BF00BFFEF778
:105200004BFF12E000BFFCF74BF900BF4846FBF72D
:1052100031F800BF09E057E000BFFCF741F900BFDB
:105220004846FBF727F800BF00BF00BF46F6C55051
:105230002880002076E60000C80000202001002021
:105240008C00002041E0606C401CD8BB00BF00BF58
:1052500000BFFBF70BF8814600BFFCF707F900BF62
:1052600058480078401E5749087008460078D0B961
:10527000FEF74EFF5448008800280BDD00BFFCF706
:105280000FF900BF4846FAF7F5FF00BF00BFFEF771
:1052900003FF11E000BFFCF703F900BF4846FAF72F
:1052A000E9FF00BF08E000BFFCF7FAF800BF48467E
:1052B000FAF7E0FF00BF00BF00BF46F6C5502880E8
:1052C00000202FE6FFE700E000BF00BF606C401C3D
:1052D0006064666C00BF00BF00BFFAF7C7FF81467D
:1052E00000BFFCF7C3F800BF36480078401E3549C0
:1052F000087008460078D0B9FEF70AFF32480088E7
:1053000000280BDD00BFFCF7CBF800BF4846FAF7DA
:10531000B1FF00BF00BFFEF7BFFE11E000BFFCF70A
:10532000BFF800BF4846FAF7A5FF00BF08E000BF7E
:10533000FCF7B6F800BF4846FAF79CFF00BF00BF75
:1053400000BF3BE000BF00BF00BFFAF78FFF814600
:1053500000BFFCF78BF800BF1A480078401E1949BF
:10536000087008460078D0B9FEF7D2FE16480088CB
:1053700000280BDD00BFFCF793F800BF4846FAF7A2
:1053800079FF00BF00BFFEF787FE11E000BFFCF70A
:1053900087F800BF4846FAF76DFF00BF08E000BF7E
:1053A000FCF77EF800BF4846FAF764FF00BF00BF75
:1053B00000BF46F62D602880002600BF00BF3046A3
:1053C000B0E50000C80000208C00002070B5044645
:1053D0000D46002600BF00BFFAF748FF064600BF93
:1053E000FCF744F800BF0CB95A48046859480068F3
:1053F000844210D15848007800280CDD00BFFCF72B
:105400004FF800BF3046FAF735FF00BF00BF46F641
:105410006350288070BD0020288094F8360008284A
:1054200073D2DFE800F0044252627374757600BFF5
:1054300049480078401C484908700846007801280F
:1054400001D1FEF757FE00BFFCF72AF800BF304637
:10545000FAF710FF00BF00BF00BF042084F8360039
:10546000012084F88A002046FEF7E8FD00BF00BF57
:1054700000BFFAF7FBFE064600BFFBF7F7FF00BFD1
:1054800035480078401E344908700846007808B94D
:10549000FEF73EFE00BFFCF703F800BF3046FAF708
:1054A000E9FE00BF00BF00BF4FE0052084F83600D2
:1054B000012084F88A0000BFFBF7F2FF00BF3046EE
:1054C000FAF7D8FE00BF00BF3FE0062084F83600A0
:1054D000012084F88A0000BFFBF7E2FF00BF3046DE
:1054E000FAF7C8FE00BF00BF2FE0072084F836009F
:1054F000012084F88A0000BFFBF7D2FF00BF3046CE
:10550000FAF7B8FE00BF00BF1FE011E000BF00BF08
:1055100000BF94F88A00401C84F88A0000BFFBF7A3
:10552000BFFF00BF3046FAF7A5FE00BF00BF0CE08A
:1055300000BFFBF7B5FF00BF3046FAF79BFE00BF88
:1055400000BF46F62D60288064E700BFFCF7CEFA66
:1055500000BF5FE720010020C8000020002108E014
:10556000064A02EBC100002202608280C2804A1C0F
:1055700091B2034A12889142F2DB7047A8240020BE
:10558000686C00082DE9F04F0C4616461D46042EA7
:105590001ED1DFF8A091D9F80090A4EB0909A9F178
:1055A000010313F5803F0DD94FF00009C0F84C906E
:1055B000C0F85090C0F81C9047F27E29A5F80090E2
:1055C000BDE8F08FC46403F10109C0F850903FE0DA
:1055D00084B3082E25D1D0F8489009EB0407DFF8F2
:1055E0005491D9F80090A7EB0909A9F10103A3424E
:1055F00001D2C76406E0DFF83C91D9F80090A144DD
:10560000C0F84C90DFF82CA1D0F84C90DAF800A04C
:10561000A9EB0A09C0F85090D0F84C90C0F8489017
:1056200016E0DFF81091D9F80090A144C0F84C9032
:1056300004650DE0FFE74FF00009C0F84C90C0F89A
:105640005090C0F81C9047F27E29A5F80090B7E76B
:10565000DFF8E4A0BAF800A0D0F84C90B9FBFAFB50
:105660000AFB1B991FFA89F8DFF8D09009EBC802F2
:10567000B2F80490B9F1000F0BD14FF00009C0F857
:105680001490C0F8189010604FF00109A2F804902F
:105690003EE0116834E0DFF89CA0D1F84C90DAF8D5
:1056A00000A0A9EB0A09C1F85090D0F85090D1F8A9
:1056B00050A0D1450ED9D1F81490B9F1000F01D006
:1056C00049691DE04FF00009C0F8149081614861FC
:1056D000002115E0D1F81890B9F1000F07D14FF073
:1056E0000009C0F8189041618861106007E0D1F8A6
:1056F00018C0C0F818C04161CCF8140088610021BE
:105700000029C8D1B2F8049009F10109A2F8049067
:10571000B2F80690B2F804A0D14503DAB2F80490CA
:10572000A2F80690C2614FF00009A5F8009000BFF2
:1057300046E7000000010020686C0008A824002053
:1057400010B5C269BAB1002404651468844205D159
:105750004169116039B100248C6104E081694369B9
:105760004B6103B19961002444618461C461C464E4
:105770009488641E948010BD002006E0054A02EB68
:10578000C0010022CA80421C90B2034A1288904293
:10579000F4DB7047A8240020686C00082DE9F05F56
:1057A0004FF0000B00BF00BF00BFFAF75FFD83465C
:1057B00000BFFBF75BFE00BF7A480078401C7949C8
:1057C000087008460078012801D1FEF793FC00BF5D
:1057D000FBF766FE00BF5846FAF74CFD00BF00BF5E
:1057E00000BFFBF7D1FE05466F480068401C6E49BC
:1057F0000860084600686D490988B0FBF1F201FBBA
:1058000012001FFA80FA6A4800EBCA08D8F8004074
:10581000002782E0002C7FD0D4F8149094F8360052
:10582000082875D2DFE800F00408051B063D075084
:1058300000BF00BF00BF6CE05B49E06C0968401A24
:1058400020655949E06C0968884206D1002084F837
:1058500036002046FFF70EFA00E0012759E05249D2
:10586000E06C0968401A20654F49E06C096888427D
:1058700015D10020E065A4F86000FBF785FE2064E8
:105880002046FEF790F92046FFF7F4F90020343463
:10589000A07003206070002004F8340900E00127A4
:1058A00037E04149E06C0968401A20653E49E06CE8
:1058B0000968884206D1042084F836002046FFF7A4
:1058C0003FFF00E0012724E03749E06C0968401AF7
:1058D00020653549E06C0968884217D10020E065F1
:1058E000A4F86000FBF750FE20642046FEF75BF949
:1058F0002046FFF725FF04203434A0700320607099
:10590000002004F8340902E006E001E0012700E08D
:1059100000BF00BF4C4600E00127002F3FF47AAFE4
:10592000FBF732FE461B23480068B04201D22148F3
:10593000066000BF00BF00BFFAF798FC834600BFB7
:10594000FBF794FD00BF17480078401E154908700A
:1059500008460078D0B9FEF7DBFB1748008800281E
:105960000BDD00BFFBF79CFD00BF5846FAF782FC39
:1059700000BF00BFFEF790FB11E000BFFBF790FDFA
:1059800000BF5846FAF776FC00BF08E000BFFBF7FF
:1059900087FD00BF5846FAF76DFC00BF00BF00BF8F
:1059A000BDE8F09FC800002000010020686C0008DE
:1059B000A8240020040100208C0000201CB500BF9A
:1059C0000EE001AB6A4600210846FCF7CFFDBDF8AA
:1059D000040028B903480078012801D1FFF7DEFE52
:1059E000EFE700008000002010B58AB004460020D8
:1059F0001D4908601D490860FFF7B0FD1C4800689C
:105A000020B947F2122020800AB010BD1948006862
:105A100019490968884203D247F213202080F3E72E
:105A2000164800781F2803D347F211202080EBE7A7
:105A30000B20002105910A46CDE9070406910D4887
:105A400000680F4909680A4B1B68CDE90131CDE9AF
:105A500003020A48007800230A4A0BA100900F486D
:105A6000FCF7CEFA00BFCFE70001002004010020C0
:105A7000586C0008606C00084C6C0008546C0008FE
:105A80005C6C0008BD59000875432F4F532D4949E0
:105A900049205469636B205461736B009C2B002078
:105AA00070B58AB00446002031490860314800686A
:105AB00040B1314800682F490968B0FBF1F02F4927
:105AC000086006E02C4800680A21B0FBF1F02B4981
:105AD00008602A4800682A490860002029490860AF
