:020000040800F2
:10000000F8F20020B95600086D0500086F050008D9
:1000100073050008770500087B0500080000000054
:100020000000000000000000000000007F05000844
:1000300081050008000000009B3E010849540008AB
:10004000D3560008D3560008D3560008D3560008EC
:10005000D3560008D3560008D3560008D3560008DC
:10006000D3560008D3560008D3560008D3560008CC
:10007000D3560008D3560008D3560008D3560008BC
:10008000D3560008D3560008D3560008D3560008AC
:10009000D3560008D3560008D3560008D35600089C
:1000A000D3560008D3560008D3560008D35600088C
:1000B000D3560008D3560008A57F0008D356000881
:1000C000D3560008D3560008D3560008D35600086C
:1000D000D356000827560008D3560008D356000808
:1000E000D3560008D3560008D3560008D35600084C
:1000F000D3560008D3560008D3560008D35600083C
:10010000D3560008D3560008D3560008D35600082B
:10011000D3560008D3560008D3560008D35600081B
:10012000D3560008D3560008D3560008D35600080B
:1001300000F002F800F06BF80AA090E8000C82448E
:100140008344AAF10107DA4501D100F060F8AFF26B
:10015000090EBAE80F0013F0010F18BFFB1A43F0A5
:1001600001031847DC3C0500FC3C05000A444FF045
:10017000000C10F8013B13F0070408BF10F8014B06
:100180001D1108BF10F8015B641E05D010F8016B4B
:10019000641E01F8016BF9D113F0080F1EBF10F8AF
:1001A000014BAD1C0C1B09D16D1E58BF01F801CBD2
:1001B000FAD505E014F8016B01F8016B6D1EF9D555
:1001C0009142D6D37047000000230024002500266A
:1001D000103A28BF78C1FBD8520728BF30C148BFAA
:1001E0000B607047642913F0F582752913F0F282D1
:1001F000782913F02B83632913F06785732913F093
:100200006C85002070471FB51FBD10B510BD13F0E1
:10021000F7FD1146FFF7F7FF00F0F5F813F015FEB4
:1002200003B4FFF7F2FF03BC05F0A2F910B50446D2
:1002300000BF12F069FE10BD0EB500BF1CE000202B
:10024000B049086002A808214FF4FA730022CDE9F2
:1002500000101146104611F0A2FC0120AA49C1F875
:10026000940102A808214FF496730022CDE90010F2
:100270001146104611F093FCE1E70EB500BF1BE0FC
:100280000120A249086002A808214FF4FA73002255
:10029000CDE900101146104611F081FC00209C4968
:1002A000C1F8940102A8082164230022CDE90010BE
:1002B0001146104611F073FCE2E730B58BB00446EE
:1002C000002500BF09F082F90AA80FF0F6F80AAA83
:1002D000012108460BF07BF90121402006F021F8AE
:1002E00014F0F6FD00BF00BF00BF09F0A7FA0546F5
:1002F00000BF00BF87480078401C8649087000BFD7
:1003000000BF284609F09EFA00BF00BF00BF0AA840
:10031000032100220592CDE90621089010464021D4
:1003200006227D4BCDE90132CDE9031004200023E4
:10033000AFF2B90279A100907B480FF095FC0AA8B2
:10034000032100220592CDE90621089010464021A4
:100350000622764BCDE90132CDE9031005200023BA
:10036000AFF22B1272A1009074480FF07DFC0AA826
:10037000032100220592CDE90621089010464FF492
:10038000806166226E4BCDE90132CDE90310062073
:100390000023AFF267126BA100906D480FF064FC70
:1003A0000AA96C4810F0D5FF00BF00BF00BF09F0DC
:1003B00045FA054600BF00BF56480078401E554923
:1003C000087008460078A0B963480088002809DD55
:1003D00000BF00BF284609F035FA00BF00BF0BF090
:1003E000DEFC0DE000BF00BF284609F02BFA00BF7D
:1003F00006E000BF00BF284609F024FA00BF00BF96
:1004000000BF0BB030BD10B58AB0002405F028F84D
:100410004FF4A06006F0FAF94FF4E13005F0B7F8B8
:1004200000F0A0F900F0C4F901F075F900F03EFA0F
:10043000002007F07EF9012007F07BF909A80AF0F7
:1004400097FE00BF00BF00BF09F0F8F9044600BFE7
:1004500000BF30480078401C2E49087000BF00BF24
:10046000204609F0EFF900BF00BF00BF09A8032133
:1004700000220592CDE906210890104680210C2229
:10048000364BCDE90132CDE9031003200023AFF252
:10049000D51233A100902F480FF0E6FB00BF00BF3C
:1004A00000BF09F0CBF9044600BF00BF194800782F
:1004B000401E1849087008460078A0B926480088F0
:1004C000002809DD00BF00BF204609F0BBF900BFCE
:1004D00000BF0BF064FC0DE000BF00BF204609F038
:1004E000B1F900BF06E000BF00BF204609F0AAF93D
:1004F00000BF00BF00BF09A80BF009F900200AB037
:1005000010BD000094012342000023429481214247
:10051000008021427C020020280800206C656430A5
:10052000207461736B00000064070020EC09002058
:100530006C656431207461736B0000002809002031
:10054000B00B00206C6364207461736B00000000CA
:10055000EC0A0020A00400204002002064050020D6
:100560007374617274207461736B0000704700BF14
:10057000FEE700BFFEE700BFFEE700BFFEE77047F3
:10058000704700000CB50020019000906C48006896
:1005900040F480306A49086000BF6948006800F490
:1005A000003000900198401C0190009818B9019803
:1005B000B0F5A06FF1D16248006800F4003010B1CE
:1005C0000120009001E0002000900098012843D114
:1005D0005C48006840F010005A490860084600680E
:1005E00020F0030008600846006840F00200086040
:1005F0005348406852494860084640684860084689
:10060000406840F4806048600846406820F47C10F0
:1006100048600846406840F4E810486008460068B2
:1006200040F08070086000BF4548006800F000702E
:100630000028F9D04248406820F003004049486053
:100640000846406840F00200486000BF3C484068EF
:1006500000F00C000828F9D10CBD10B5FFF792FF8F
:1006600010BD10B53648006840F0010034490860FC
:1006700008464068344908403149486008460068E7
:10068000324908402E4908600846006820F480205E
:1006900008600846406820F4FE0048604FF41F00E0
:1006A0008860FFF7DAFF4FF000602949086010BD4D
:1006B00010B5002100200022214B5B6803F00C01E3
:1006C00021B1042906D0082928D107E0214B224C6A
:1006D000236027E01F4B204C236023E0184B5B680E
:1006E00003F47010164B5B6803F48032022303EBB3
:1006F000904022B9194B4343174C23600DE0104B37
:100700005B6803F4003323B1144B4343124C236062
:1007100003E0104B4343104C236003E00D4B0E4CA1
:10072000236000BF00BF064B5B68C3F303130C4C90
:10073000E15C094B1B68CB40074C236010BD0000F7
:1007400000100240002002400000FFF8FFFFF6FE0C
:1007500008ED00E000127A000000002000093D00D2
:100760000400002008B50121482005F0E7FD202005
:10077000ADF8000010208DF8030003208DF8020072
:100780006946094805F01EFB2021074805F0C7FB14
:100790002020ADF800006946044805F013FB202135
:1007A000024805F0BCFB08BD000C014000180140E8
:1007B00008B50121442005F0C1FD1C20ADF8000062
:1007C00048208DF803006946354805F0FBFA012002
:1007D000ADF8000028208DF803006946314805F087
:1007E000F1FA08BD10B5044614B101202E49087075
:1007F0002D480078002837D01021294805F075FBD6
:1008000078B10821264805F070FB50B10421244836
:1008100005F06BFB28B10121224805F066FB012899
:1008200022D10A2004F075FE00201F490870102113
:100830001B4805F05AFB08B9012010BD08211848D3
:1008400005F053FB08B90220F7E70421144805F02E
:100850004CFB08B90320F0E70121124805F045FBE5
:1008600001281BD10420E8E710210D4805F03DFBCD
:10087000012813D108210A4805F037FB01280DD1C2
:100880000421074805F031FB012807D10121054863
:1008900005F02BFB10B90120034908700020CCE7BC
:1008A00000180140000801401400002000B597B076
:1008B000012140F2E11005F041FD0121080205F09F
:1008C00030FD4FF63370ADF8000018208DF80300AE
:1008D00003208DF802006946364805F073FA4FF69A
:1008E0008370ADF800006946334805F06BFA4FF2AB
:1008F0003F00ADF800006946304805F063FA40F269
:100900003F40ADF8000069462D4805F05BFA002035
:10091000019002900320039000200490059006901F
:10092000079004200890002009900A9010200B9056
:1009300000200C900E900D900F9010904FF480506E
:100940001190002012901390149001A81590169009
:1009500008A804F01DFF0121042005F081F817B05C
:1009600000BD10B506E004784FF0D0435C54891CFC
:10097000401C521E002AF6D110BD06E04FF0D043B5
:100980005B5C00F8013B891C521E002AF6D17047BF
:1009900013B50C46012221466846FFF7E2FF1CBD55
:1009A00018B50446012221466846FFF7E6FF9DF888
:1009B000000018BD0014014000180140001C014057
:1009C00000200140F74908807047F649891C0880DB
:1009D000704708B5F348801C00880090BDF80000FF
:1009E00008BDF04A1080921C1180704710B5044673
:1009F0002046FFF7E7FF052004F060FDFFF7E9FF61
:100A000010BDE9480089E74908807047E549891C1D
:100A10000880704730B5014601F01F04C1F345134B
:100A2000CA0AE50205EB43151544A8B230BD00BF64
:100A3000011EA0F10102D0B2FAD1704710B50346F1
:100A40000C46D948808849F24131884205D0D648C1
:100A5000808845F21031884214D1D3494889FFF784
:100A6000B1FF1812FFF7B1FFD8B2FFF7AEFFCE49C2
:100A70008889FFF7A7FF2012FFF7A7FFE0B2FFF773
:100A8000A4FFABE0C848808846F6040188421DD127
:100A9000C5488079012804D1C3480088401EC01A87
:100AA00083B2C1494889FFF78DFF1812FFF78DFF08
:100AB000D8B2FFF78AFFBC498889FFF783FF20126D
:100AC000FFF783FFE0B2FFF780FF87E0B64880883A
:100AD00041F66311884247D1B3488079A8B9B2483A
:100AE0000088401EC01A83B2AF494889FFF76AFFE9
:100AF0000020FFF76AFF0020FFF767FF1812FFF7DB
:100B000064FFD8B2FFF761FF16E0A7494889FFF7F5
:100B100059FF1812FFF759FFD8B2FFF756FFA24945
:100B20000988491EC1F30F20FFF74FFF9E4909783E
:100B3000491EC8B2FFF749FF9B498889FFF742FF6A
:100B40002012FFF742FFE0B2FFF73FFF96494988C6
:100B5000491EC1F30F20FFF738FF93498978491EDA
:100B6000C8B2FFF732FF39E08F48808845F2105154
:100B7000884220D18C494889FFF724FF1812FFF7DB
:100B800024FF89494989491C88B2FFF71BFFD8B265
:100B9000FFF71BFF84498889FFF714FF2012FFF736
:100BA00014FF81498989491C88B2FFF70BFFE0B225
:100BB000FFF70BFF12E07C488079012804D17A48C6
:100BC0000088401EC01A83B2774948891946FFF74A
:100BD00008FF754988892146FFF703FF10BD2DE9FD
:100BE000F04105460E4600240027A0466E480088C6
:100BF000A84203DD6C484088B04202DC0020BDE81A
:100C0000F08131462846FFF719FF6748808849F28E
:100C10004131884211D06448808846F604018842F8
:100C20000BD06148808845F21031884205D05E487B
:100C3000808841F66311884203D12E20FFF7C2FE5F
:100C40000DE05948808845F21051884204D14FF494
:100C50003850FFF7B7FE02E02220FFF7B3FE5248FC
:100C6000808849F22031884202D10220FFF7DFFE5E
:100C7000FFF7AFFE04464C48808841F66311884276
:100C800001D12046BBE70220FFF7D1FEFFF7A1FE0E
:100C900004464548808849F2413188420BD0424899
:100CA000808845F21031884205D03F48808845F25F
:100CB000105188420AD10220FFF7B9FEFFF789FEE2
:100CC0008046E7B24FF6FF7000EA07273648808873
:100CD00049F22531884216D03348808844F2355194
:100CE000884210D030488088091F88420BD02E4897
:100CF00080884BF20551884205D02B4880884CF201
:100D00000551884201D1204679E72748808849F279
:100D1000413188420BD02448808845F21031884206
:100D200005D02148808845F21051884207D1E01251
:100D3000C002B91240EA411040EAE8205FE72046CD
:100D4000FFF768FE5BE700B51748808849F241313C
:100D5000884211D01448808846F6040188420BD09E
:100D60001148808845F21031884205D00E488088AD
:100D700041F66311884203D12920FFF723FE0FE0DB
:100D80000948808845F21051884204D14FF424501C
:100D9000FFF718FE04E040F273110720FFF721FE71
:100DA00000BD0000FE07006CB01B002000B5FD4830
:100DB000808849F24131884211D0FA48808846F64D
:100DC000040188420BD0F748808845F210318842F0
:100DD00005D0F448808841F66311884203D1282069
:100DE000FFF7F0FD0EE0EF48808845F21051884291
:100DF00004D14FF42050FFF7E5FD03E00021072068
:100E0000FFF7EFFD00BD70B5044600230026E5485E
:100E1000807901280BD1E348808846F60401884296
:100E200005D0E048808841F66311884208D1DD484A
:100E30008079F0B9DB48808841F66311884218D187
:100E4000082C15D2DFE804F00406080A0C0E101274
:100E500006240DE007240BE0042409E0052407E044
:100E6000012405E0002403E0032401E0022400BF84
:100E700000BFCC48808849F24131884217D0C94828
:100E8000808846F60401884211D0C648808845F221
:100E9000103188420BD0C348808845F210518842F7
:100EA00005D0C048808841F6631188427ED1082C65
:100EB0001CD2DFE804F00406090C0F12151800BF5D
:100EC00014E043F0800311E043F040030EE043F0F0
:100ED000C0030BE043F0200308E043F0600305E0AB
:100EE00043F0A00302E043F0E00300BF00BFAD48C1
:100EF000808845F21051884202D14FF4585600E0E4
:100F00003626A848808845F2103188420DD0A54881
:100F1000808845F21051884207D0A248808841F667
:100F20006311884201D043F008039E48808846F64A
:100F30000401884201D143F0020319463046FFF70D
:100F400050FD9848808841F6631188421DD003F017
:100F5000200068B19348008892494988884214DA91
:100F60009048058840888F490880084645800CE0F5
:100F70008C4800888B494988884206DD8948058865
:100F8000408888490880084645808648808845F220
:100F90001051884254D183494889FFF713FD00203E
:100FA000FFF713FD7F494989491C00E077E088B2CB
:100FB000FFF708FD0020FFF708FD7A494989891CE1
:100FC00088B2FFF7FFFC77490988491EC1F30F205B
:100FD000FFF7FBFC73494989C91C88B2FFF7F2FC93
:100FE00070490978491EC8B2FFF7EFFC6D4988893E
:100FF000FFF7E8FC0020FFF7E8FC6A498989491CF3
:1010000088B2FFF7DFFC0020FFF7DFFC6549898924
:10101000891C88B2FFF7D6FC62494988491EC1F392
:101020000F20FFF7D2FC5F498989C91C88B2FFF7FE
:10103000C9FC5C498978491EC8B2FFF7C6FC55E077
:1010400058494889FFF7BEFC0020FFF7BEFC00208E
:10105000FFF7BBFC53490988491EC1F30F20FFF776
:10106000B4FC50490978491EC8B2FFF7AEFC4D499F
:101070008889FFF7A7FC0020FFF7A7FC0020FFF7F7
:10108000A4FC48494988491EC1F30F20FFF79DFC85
:1010900044498978491EC8B2FFF797FC26E0082C1E
:1010A0001CD2DFE804F004070A0D0F12151843F0F4
:1010B000300313E043F0100310E043F020030DE091
:1010C00000BF0BE043F0380308E043F0280305E0DD
:1010D00043F0180302E043F0080300BF00BF0326FB
:1010E00043F4805319463046FFF77BFC70BD30B5A2
:1010F00004460D4629462046FFF7A0FCFFF781FC79
:10110000294800882949088030BD30B503460C467F
:1011100015462448808849F24131884205D021484B
:10112000808845F21031884214D11E494889FFF762
:1011300049FC1812FFF749FCD8B2FFF746FC1949E1
:101140008889FFF73FFC2012FFF73FFCE0B2FFF772
:101150003CFC93E01348808845F21051884227D127
:1011600010494889FFF72EFC1812FFF72EFC0D4995
:101170004989491C88B2FFF725FCD8B2FFF725FC46
:1011800008498889FFF71EFC2012FFF71EFC05495D
:101190008989491C88B2FFF715FCE0B2FFF715FCFE
:1011A0006CE00000B01B0020160000200008006C5E
:1011B000FC48808841F66311884228D1F94880793B
:1011C00020B9F8480088401EC01A83B2F549488902
:1011D000FFF7F8FB1812FFF7F8FBD8B2FFF7F5FBA3
:1011E0001812FFF7F2FBD8B2FFF7EFFBED49888941
:1011F000FFF7E8FB2012FFF7E8FBE0B2FFF7E5FBA3
:101200002012FFF7E2FBE0B2FFF7DFFB36E0E54834
:10121000808846F6040188421DD1E2488079012881
:1012200004D1E0480088401EC01A83B2DD494889D5
:10123000FFF7C8FB1812FFF7C8FBD8B2FFF7C5FBD2
:10124000D8498889FFF7BEFB2012FFF7BEFBE0B24A
:10125000FFF7BBFB12E0D3488079012804D1D148C5
:101260000088401EC01A83B2CE4948891946FFF74C
:10127000B8FBCC4988892146FFF7B3FBC9480089F0
:10128000C9490880881C058030BD2DE9F047044617
:10129000BE20FFF797FB0520FFF797FB20461AF0CB
:1012A00056FE07464FF06632C04B1AF063FE054605
:1012B0001AF020FE1FFA80F94846FFF786FB01204E
:1012C000FFF783FBFF20FFF780FB0020FFF77DFB8C
:1012D0000020FFF77AFBBDE8F08710B50446002C2C
:1012E00066D1B0498871F02008804FF4A070488022
:1012F0000846808849F2413188420BD0A94880884D
:1013000046F60401884205D0A648808845F210318F
:1013100088421AD12C20A34908812A2048812B20F9
:1013200088810846808846F60401884205D09D4899
:10133000808845F21031884206D14FF4A070994957
:1013400008804FF4F0704880A1E09648808845F20C
:101350001051884210D14FF43050924908814FF417
:10136000285048814FF42C5088814FF4F070088049
:101370004FF4487048808AE08A48808841F66311BB
:1013800088420DD12C20874908812B2048812A20B2
:1013900088814FF4F07008804FF44870488076E000
:1013A00022208049088120204881212088816EE008
:1013B00001207C4988714FF4A0700880F02048809B
:1013C0000846808849F24131884205D075488088B6
:1013D00045F21031884207D12C20724908812A2019
:1013E00048812B2088813FE06E48808846F60401C2
:1013F000884207D12C206B4908812B2048812A2064
:10140000888131E06748808845F21051884210D1C8
:101410004FF43050634908814FF4285048814FF40D
:101420002C5088814FF4487008804FF4F070488049
:101430001AE05C48808841F6631188420DD12C2067
:10144000584908812A2048812B2088814FF4487010
:1014500008804FF4F070488006E02220514908814E
:1014600021204881202088814E48808846F604014A
:10147000884205D04B48808845F21031884206D119
:101480004FF4F070474908804FF4A0704880002066
:10149000FFF7B9FC10BD2DE9F04F86B004460D46AC
:1014A0009046994604EB0800401E86B205EB090001
:1014B000401E87B23B48808849F24131884215D0AE
:1014C0003848808845F2103188420FD035488088EE
:1014D00046F60401884209D032488079012826D195
:1014E0003048808841F66311884220D12D494889CF
:1014F000FFF768FA2012FFF768FAE0B2FFF765FA23
:101500003012FFF762FAF0B2FFF75FFA25498889D7
:10151000FFF758FA2812FFF758FAE8B2FFF755FA22
:101520003812FFF752FAF8B2FFF74FFABEE01D4843
:10153000808841F6631188423AD11A480088A0EBAE
:101540000800001B84B205EB0900401E1FFA80F959
:1015500014494889FFF736FA2012FFF736FAE0B24D
:10156000FFF733FA04EB0801491EC1F30F20FFF720
:101570002CFA04EB0801491EC8B2FFF726FA094904
:101580008889FFF71FFA2812FFF71FFAE8B2FFF762
:101590001CFA4FEA2920FFF718FA09F0FF00FFF7BD
:1015A00014FA83E0B01B0020FE07006C666604405E
:1015B000FE48808845F21051884244D1FB49488951
:1015C000FFF700FA2012FFF700FAF8494989491C91
:1015D00088B2FFF7F7F9E0B2FFF7F7F9F349498965
:1015E000891C88B2FFF7EEF93012FFF7EEF9EF49E8
:1015F0004989C91C88B2FFF7E5F9F0B2FFF7E5F9B0
:10160000EA498889FFF7DEF92812FFF7DEF9E74992
:101610008989491C88B2FFF7D5F9E8B2FFF7D5F9F7
:10162000E2498989891C88B2FFF7CCF93812FFF7A3
:10163000CCF9DE498989C91C88B2FFF7C3F9F8B231
:10164000FFF7C3F932E0D948807901280ED1AA46C4
:10165000BB46D6480088801B401E80B20190D3480C
:101660000088001B401E80B2009003E0A246B346F3
:10167000019500975020059051200490522003902E
:101680005320029051460598FFF7ABF9594604984C
:10169000FFF7A7F901990398FFF7A3F900990298BA
:1016A000FFF79FF929462046FFF7C8F906B0BDE8C5
:1016B000F08F70B504460026BC4805884088454335
:1016C000BA48808846F60401884216D1B748807926
:1016D000012812D10020B54988712A2048812B2089
:1016E000888100210846FFF7A9F90120AF498871D8
:1016F0002B2048812A20888103E000210846FFF73B
:101700009DF9FFF77EF9002602E0A9480480761CC7
:10171000AE42FAD370BD00B59FB00121080204F0BB
:1017200000FE01214FF4B47004F008FE0120ADF872
:10173000780010208DF87B0003208DF87A001EA918
:101740009C4804F03FFB4CF23370ADF87800182051
:101750008DF87B0003208DF87A001EA9964804F0CE
:1017600031FB4FF68070ADF8780018208DF87B00C3
:1017700003208DF87A001EA9904804F023FB41F263
:101780000100ADF8780018208DF87B0003208DF85B
:101790007A001EA98A4804F015FB01200890002059
:1017A00009900F200A9000200B900C900D900E9045
:1017B0000190029003200390002004900590069071
:1017C000079006200F90002010901190102012908A
:1017D0000020139015901490169017904FF480509D
:1017E0001890002019904FF480401A9000201B9010
:1017F00008A81C9001A81D900FA803F0C9FF0121A3
:10180000062004F02DF9322003F083FE0020FFF7BC
:10181000EDF86649888008468088FF280ADB08467C
:1018200080884FF6FF71884204D060488088B0F508
:10183000134F7CD1D320FFF7C5F8FFF7CAF85B49F7
:101840008880FFF7C6F859498880FFF7C2F85749E2
:101850008880084680884FF6FF7101EA00205349CE
:101860008880FFF7B6F85149898808434F49888036
:101870000846808849F24131884258D0BF20FFF79E
:10188000A1F8FFF7A6F849498880FFF7A2F8474971
:101890008880FFF79EF845498880FFF79AF843490A
:1018A0008880084680884FF6FF7101EA00203F4992
:1018B0008880FFF78EF83D49898808433B49888036
:1018C0000846808846F60401884230D0D420FFF7CD
:1018D00079F8FFF77EF835498880FFF77AF83349C1
:1018E0008880FFF776F831498880084680884FF66F
:1018F000FF7101EA00202D498880FFF76AF82B4923
:1019000089880843294988800846808845F2103133
:10191000884263D04FF45A40FFF754F8FFF759F864
:10192000224988804FF45B40FFF74CF800E055E017
:10193000FFF74FF81D498880084680884FF6FF71F1
:1019400001EA0020194988804FF45C40FFF73AF81B
:10195000FFF73FF8154989880843144988800846ED
:101960008088B0F5004F02D145F2105088800F48B2
:10197000808845F21051884230D0A120FFF722F82C
:10198000FFF727F809498880FFF723F8074988807F
:10199000084680884FF6FF7101EA002003498880DD
:1019A000FFF717F80149898808430BE0B01B0020B6
:1019B0000008006C000C01400014014000180140B8
:1019C00000200140FE4988800846808845F2617108
:1019D000884203D141F66310F9498880F84881882C
:1019E000F8A011F09BFEF648808849F24131884208
:1019F0007ED1CF20FEF7E6FF0020FEF7E6FFC120F4
:101A0000FEF7E3FF3020FEF7E0FFED20FEF7DAFF00
:101A10006420FEF7DAFF0320FEF7D7FF1220FEF75F
:101A2000D4FF8120FEF7D1FFE820FEF7CBFF852011
:101A3000FEF7CBFF1020FEF7C8FF7A20FEF7C5FFA8
:101A4000CB20FEF7BFFF3920FEF7BFFF2C20FEF7AB
:101A5000BCFF0020FEF7B9FF3420FEF7B6FF0220DE
:101A6000FEF7B3FFF720FEF7ADFF2020FEF7ADFF36
:101A7000EA20FEF7A7FF0020FEF7A7FF0020FEF7F1
:101A8000A4FFC020FEF79EFF1B20FEF79EFFC12093
:101A9000FEF798FF0120FEF798FFC520FEF792FFA2
:101AA0003020FEF792FF3020FEF78FFFC720FEF7B1
:101AB00089FFB720FEF789FF3620FEF783FF482015
:101AC000FEF783FF3A20FEF77DFF5520FEF77DFFEE
:101AD000B120FEF777FF0020FEF777FF1A20FEF710
:101AE00074FFB620FEF76EFF0A20FEF76EFF00E0DF
:101AF00097E0A220FEF769FFF220FEF763FF0020C7
:101B0000FEF763FF2620FEF75DFF0120FEF75DFF75
:101B1000E020FEF757FF0F20FEF757FF2A20FEF7C1
:101B200054FF2820FEF751FF0820FEF74EFF0E203D
:101B3000FEF74BFF0820FEF748FF5420FEF745FF55
:101B4000A920FEF742FF4320FEF73FFF0A20FEF7E1
:101B50003CFF0F20FEF739FF0020FEF736FF002084
:101B6000FEF733FF0020FEF730FF0020FEF72DFFC9
:101B7000E120FEF727FF0020FEF727FF1520FEF7E4
:101B800024FF1720FEF721FF0720FEF71EFF11207C
:101B9000FEF71BFF0620FEF718FF2B20FEF715FFB0
:101BA0005620FEF712FF3C20FEF70FFF0520FEF740
:101BB0000CFF1020FEF709FF0F20FEF706FF3F2065
:101BC000FEF703FF3F20FEF700FF0F20FEF7FDFEAC
:101BD0002B20FEF7F7FE0020FEF7F7FE0020FEF7B1
:101BE000F4FE0120FEF7F1FE3F20FEF7EEFE2A2074
:101BF000FEF7E8FE0020FEF7E8FE0020FEF7E5FE17
:101C00000020FEF7E2FEEF20FEF7DFFE1120FEF7D8
:101C1000D9FE782003F07DFC2920FEF7D3FE03F0E7
:101C200027B96748808846F6040188427ED1112092
:101C3000FEF7C8FE142003F06CFCD020FEF7C2FEB5
:101C40000720FEF7C2FE4220FEF7BFFE1D20FEF772
:101C5000BCFED120FEF7B6FE0020FEF7B6FE1A202D
:101C6000FEF7B3FE0920FEF7B0FED220FEF7AAFE73
:101C70000120FEF7AAFE2220FEF7A7FEC020FEF7F5
:101C8000A1FE1020FEF7A1FE3B20FEF79EFE0020E5
:101C9000FEF79BFE0220FEF798FE1120FEF795FE50
:101CA000C520FEF78FFE0320FEF78FFEC820FEF74B
:101CB00089FE0020FEF789FE2520FEF786FE212002
:101CC000FEF783FE0520FEF780FE0020FEF77DFE76
:101CD0000A20FEF77AFE6520FEF777FE2520FEF744
:101CE00074FE7720FEF771FE5020FEF76EFE0F2087
:101CF000FEF76BFE0020FEF768FEF820FEF762FE9E
:101D00000120FEF762FEFE20FEF75CFE0020FEF7DB
:101D10005CFE0220FEF759FE2020FEF753FE36201F
:101D2000FEF750FE0820FEF750FE00E02AE03A20C1
:101D3000FEF748FE5520FEF748FE2B20FEF742FE38
:101D40000020FEF742FE0020FEF73FFE0120FEF7D6
:101D50003CFE3F20FEF739FE2A20FEF733FE00202E
:101D6000FEF733FE0020FEF730FE0120FEF72DFEC9
:101D7000DF20FEF72AFE782003F0CBFB2920FEF7B8
:101D800021FE4CE70E48808845F21031884240F031
:101D90008687ED20FEF716FE0120FEF716FEFE20D8
:101DA000FEF713FEEE20FEF70DFEDE20FEF70DFE21
:101DB0002120FEF70AFEF120FEF704FE01200BE0D1
:101DC000B01B0020205446545F4C43442049443A01
:101DD00025780D0A00000000FEF7F7FDDF20FEF772
:101DE000F1FD1020FEF7F1FDC420FEF7EBFD8F2082
:101DF000FEF7EBFDC620FEF7E5FD0020FEF7E5FD52
:101E0000E220FEF7E2FDE220FEF7DFFDE220FEF732
:101E1000DCFDBF20FEF7D6FDAA20FEF7D6FDB020E0
:101E2000FEF7D0FD0D20FEF7D0FD0020FEF7CDFD22
:101E30000D20FEF7CAFD0020FEF7C7FD1120FEF7BA
:101E4000C4FD0020FEF7C1FD1920FEF7BEFD0020F5
:101E5000FEF7BBFD2120FEF7B8FD0020FEF7B5FD23
:101E60002D20FEF7B2FD0020FEF7AFFD3D20FEF76E
:101E7000ACFD0020FEF7A9FD5D20FEF7A6FD0020C9
:101E8000FEF7A3FD5D20FEF7A0FD0020FEF79DFDFF
:101E9000B120FEF797FD8020FEF797FD0020FEF7AA
:101EA00094FD8B20FEF791FD0020FEF78EFD96201D
:101EB000FEF78BFD0020FEF788FDB220FEF782FDC5
:101EC0000020FEF782FD0020FEF77FFD0220FEF7D6
:101ED0007CFD0020FEF779FD0320FEF776FD002053
:101EE000FEF773FDB320FEF76DFD0020FEF76DFDDC
:101EF0000020FEF76AFD0020FEF767FD0020FEF7D8
:101F000064FD0020FEF761FD0020FEF75EFD00206D
:101F1000FEF75BFD0020FEF758FD0020FEF755FDA3
:101F20000020FEF752FD0020FEF74FFD0020FEF7D7
:101F30004CFD0020FEF749FD0020FEF746FD002085
:101F4000FEF743FD0020FEF740FD0020FEF73DFDBB
:101F50000020FEF73AFD0020FEF737FD0020FEF7D7
:101F600034FD0020FEF731FD0020FEF72EFD00209D
:101F7000FEF72BFD0020FEF728FDB420FEF722FD22
:101F80008B20FEF722FD0020FEF71FFD9620FEF7B6
:101F90001CFD0020FEF719FDA120FEF716FD002014
:101FA000FEF713FDB520FEF70DFD0220FEF70DFD37
:101FB0000020FEF70AFD0320FEF707FD0020FEF7D4
:101FC00004FD0420FEF701FD0020FEF7FEFCB62014
:101FD000FEF7F8FC0020FEF7F8FC0020FEF7F5FC09
:101FE000B720FEF7EFFC0020FEF7EFFC0020FEF725
:101FF000ECFC3F20FEF7E9FC0020FEF7E6FC5E204B
:10200000FEF7E3FC0020FEF7E0FC6420FEF7DDFCB9
:102010000020FEF7DAFC8C20FEF7D7FC0020FEF74C
:10202000D4FCAC20FEF7D1FC0020FEF7CEFCDC2077
:10203000FEF7CBFC0020FEF7C8FC7020FEF7C5FCC5
:102040000020FEF7C2FC9020FEF7BFFC0020FEF748
:10205000BCFCEB20FEF7B9FC0020FEF7B6FCDC2050
:10206000FEF7B3FC0020FEF7B0FCB820FEF7AAFC98
:102070000020FEF7AAFC0020FEF7A7FC0020FEF7D8
:10208000A4FC0020FEF7A1FC0020FEF79EFC00202F
:10209000FEF79BFC0020FEF798FC0020FEF795FC65
:1020A000BA20FEF78FFC2420FEF78FFC0020FEF7FD
:1020B0008CFC0020FEF789FC0020FEF786FCC12086
:1020C000FEF780FC2020FEF780FC0020FEF77DFC60
:1020D0005420FEF77AFC0020FEF777FCFF20FEF785
:1020E00074FC0020FEF771FCC220FEF76BFC0A2096
:1020F000FEF76BFC0020FEF768FC0420FEF765FC91
:102100000020FEF762FCC320FEF75CFC3C20FEF7DB
:102110005CFC0020FEF759FC3A20FEF756FC00203C
:10212000FEF753FC3920FEF750FC0020FEF74DFC73
:102130003720FEF74AFC0020FEF747FC3C20FEF764
:1021400044FC0020FEF741FC3620FEF73EFC002058
:10215000FEF73BFC3220FEF738FC0020FEF735FC92
:102160002F20FEF732FC0020FEF72FFC2C20FEF77C
:102170002CFC0020FEF729FC2920FEF726FC00207D
:10218000FEF723FC2620FEF720FC0020FEF71DFCB6
:102190002420FEF71AFC0020FEF717FC2420FEF78F
:1021A00014FC0020FEF711FC2320FEF70EFC00209B
:1021B000FEF70BFC3C20FEF708FC0020FEF705FCB8
:1021C0003620FEF702FC0020FEF7FFFB3220FEF770
:1021D000FCFB0020FEF7F9FB2F20FEF7F6FB0020AA
:1021E000FEF7F3FB2C20FEF7F0FB0020FEF7EDFBE3
:1021F0002920FEF7EAFB0020FEF7E7FB2620FEF78A
:10220000E4FB0020FEF7E1FB2420FEF7DEFB0020CC
:10221000FEF7DBFB2420FEF7D8FB0020FEF7D5FB02
:102220002320FEF7D2FB0020FEF7CFFBC420FEF7F1
:10223000C9FB6220FEF7C9FB0020FEF7C6FB0520A4
:10224000FEF7C3FB0020FEF7C0FB8420FEF7BDFBBA
:102250000020FEF7BAFBF020FEF7B7FB0020FEF7E8
:10226000B4FB1820FEF7B1FB0020FEF7AEFBA42064
:10227000FEF7ABFB0020FEF7A8FB1820FEF7A5FB3E
:102280000020FEF7A2FB5020FEF79FFB0020FEF788
:102290009CFB0C20FEF799FB0020FEF796FB172015
:1022A000FEF793FB0020FEF790FB9520FEF78DFBD9
:1022B0000020FEF78AFBF320FEF787FB0020FEF7E5
:1022C00084FBE620FEF781FB0020FEF77EFBC520A5
:1022D000FEF778FB3220FEF778FB0020FEF775FB57
:1022E0004420FEF772FB0020FEF76FFB6520FEF72F
:1022F0006CFB0020FEF769FB7620FEF766FB0020F2
:10230000FEF763FB8820FEF760FB0020FEF75DFB15
:10231000C620FEF757FB2020FEF757FB0020FEF7F4
:1023200054FB1720FEF751FB0020FEF74EFB012067
:10233000FEF74BFB0020FEF748FBC720FEF742FBF1
:102340000020FEF742FB0020FEF73FFB0020FEF7D7
:102350003CFB0020FEF739FBC820FEF733FB0020D2
:10236000FEF733FB0020FEF730FB0020FEF72DFBCD
:102370000020FEF72AFBC920FEF724FB0020FEF711
:1023800024FB0020FEF721FB0020FEF71EFB0020AF
:10239000FEF71BFB0020FEF718FB0020FEF715FBE5
:1023A0000020FEF712FB0020FEF70FFB0020FEF7D7
:1023B0000CFB0020FEF709FB0020FEF706FB0020C7
:1023C000FEF703FB0020FEF700FB0020FEF7FDFAFE
:1023D0000020FEF7FAFA0020FEF7F7FAE020FEF7F9
:1023E000F1FA1620FEF7F1FA0020FEF7EEFA1C20B3
:1023F000FEF7EBFA0020FEF7E8FA2120FEF7E5FAF7
:102400000020FEF7E2FA3620FEF7DFFA0020FEF7A2
:10241000DCFA4620FEF7D9FA0020FEF7D6FA522061
:10242000FEF7D3FA0020FEF7D0FA6420FEF7CDFACB
:102430000020FEF7CAFA7A20FEF7C7FA0020FEF75E
:10244000C4FA8B20FEF7C1FA0020FEF7BEFA9920ED
:10245000FEF7BBFA0020FEF7B8FAA820FEF7B5FA9F
:102460000020FEF7B2FAB920FEF7AFFA0020FEF71F
:10247000ACFAC420FEF7A9FA0020FEF7A6FACA209B
:10248000FEF7A3FA0020FEF7A0FAD220FEF79DFA8D
:102490000020FEF79AFAD920FEF797FA0020FEF7FF
:1024A00094FAE020FEF791FA0020FEF78EFAF3206E
:1024B000FEF78BFA0020FEF788FAE120FEF782FA99
:1024C0001620FEF782FA0020FEF77FFA1C20FEF7A6
:1024D0007CFA0020FEF779FA2220FEF776FA002037
:1024E000FEF773FA3620FEF770FA0020FEF76DFA59
:1024F0004520FEF76AFA0020FEF767FA5220FEF741
:1025000064FA0020FEF761FA6420FEF75EFA00200C
:10251000FEF75BFA7A20FEF758FA0020FEF755FA2C
:102520008B20FEF752FA0020FEF74FFA9920FEF7B3
:102530004CFA0020FEF749FAA820FEF746FA0020E0
:10254000FEF743FAB920FEF740FA0020FEF73DFA05
:10255000C420FEF73AFA0020FEF737FACA20FEF749
:1025600034FA0020FEF731FAD220FEF72EFA0020CE
:10257000FEF72BFAD820FEF728FA0020FEF725FAFE
:10258000E020FEF722FA0020FEF71FFAF320FEF704
:102590001CFA0020FEF719FAE220FEF713FA0520D4
:1025A000FEF713FA0020FEF710FA0B20FEF70DFAE3
:1025B0000020FEF70AFA1B20FEF707FA0020FEF7BC
:1025C00004FA3420FEF701FA0020FEF7FEF9442059
:1025D000FEF7FBF90020FEF7F8F94F20FEF7F5F9BA
:1025E0000020FEF7F2F96120FEF7EFF90020FEF778
:1025F000ECF97920FEF7E9F90020FEF7E6F98820EA
:10260000FEF7E3F90020FEF7E0F99720FEF7DDF989
:102610000020FEF7DAF9A620FEF7D7F90020FEF732
:10262000D4F9B720FEF7D1F90020FEF7CEF9C22089
:10263000FEF7CBF90020FEF7C8F9C720FEF7C5F971
:102640000020FEF7C2F9D120FEF7BFF90020FEF707
:10265000BCF9D620FEF7B9F90020FEF7B6F9DD2067
:10266000FEF7B3F90020FEF7B0F9F320FEF7ADF95D
:102670000020FEF7AAF9E320FEF7A4F90520FEF7F3
:10268000A4F90020FEF7A1F90A20FEF79EF9002028
:10269000FEF79BF91C20FEF798F90020FEF795F94C
:1026A0003320FEF792F90020FEF78FF94420FEF761
:1026B0008CF90020FEF789F95020FEF786F90020FA
:1026C000FEF783F96220FEF780F90020FEF77DF91E
:1026D0007820FEF77AF90020FEF777F98820FEF7D8
:1026E00074F90020FEF771F99720FEF76EF90020CB
:1026F000FEF76BF9A620FEF768F90020FEF765F9F2
:10270000B720FEF762F90020FEF75FF9C220FEF75E
:102710005CF90020FEF759F9C720FEF756F90020B2
:10272000FEF753F9D120FEF750F90020FEF74DF9DE
:10273000D520FEF74AF90020FEF747F9DD20FEF725
:1027400044F90020FEF741F9F320FEF73EF900209E
:10275000FEF73BF9E420FEF735F90120FEF735F9E5
:102760000020FEF732F90120FEF72FF90020FEF7D6
:102770002CF90220FEF729F90020FEF726F92A207D
:10278000FEF723F90020FEF720F93C20FEF71DF9A3
:102790000020FEF71AF94B20FEF717F90020FEF78C
:1027A00014F95D20FEF711F90020FEF70EF97420F0
:1027B000FEF70BF90020FEF708F98420FEF705F973
:1027C0000020FEF702F99320FEF7FFF80020FEF745
:1027D000FCF8A220FEF7F9F80020FEF7F6F8B32087
:1027E000FEF7F3F80020FEF7F0F8BE20FEF7EDF854
:1027F0000020FEF7EAF8C420FEF7E7F80020FEF715
:10280000E4F8CD20FEF7E1F80020FEF7DEF8D32053
:10281000FEF7DBF80020FEF7D8F8DD20FEF7D5F84C
:102820000020FEF7D2F8F320FEF7CFF80020FEF7E5
:10283000CCF8E520FEF7C6F80020FEF7C6F8002029
:10284000FEF7C3F80020FEF7C0F80020FEF7BDF841
:102850000220FEF7BAF80020FEF7B7F82920FEF7AD
:10286000B4F80020FEF7B1F83C20FEF7AEF80020E7
:10287000FEF7ABF84B20FEF7A8F80020FEF7A5F80E
:102880005D20FEF7A2F80020FEF79FF87420FEF707
:102890009CF80020FEF799F88420FEF796F80020B7
:1028A000FEF793F89320FEF790F80020FEF78DF8DE
:1028B000A220FEF78AF80020FEF787F8B320FEF783
:1028C00084F80020FEF781F8BE20FEF77EF8002095
:1028D000FEF77BF8C420FEF778F80020FEF775F8C5
:1028E000CD20FEF772F80020FEF76FF8D320FEF738
:1028F0006CF80020FEF769F8DC20FEF766F800208F
:10290000FEF763F8F320FEF760F80020FEF75DF8AD
:10291000E620FEF757F81120FEF757F80020FEF7E3
:1029200054F83420FEF751F80020FEF74EF85620F8
:10293000FEF74BF80020FEF748F87620FEF745F842
:102940000020FEF742F87720FEF73FF80020FEF760
:102950003CF86620FEF739F80020FEF736F88820AC
:10296000FEF733F80020FEF730F89920FEF72DF837
:102970000020FEF72AF8BB20FEF727F80020FEF71C
:1029800024F89920FEF721F80020FEF71EF86620B3
:10299000FEF71BF80020FEF718F85520FEF715F893
:1029A0000020FEF712F85520FEF70FF80020FEF782
:1029B0000CF84520FEF709F80020FEF706F8432042
:1029C000FEF703F80020FEF700F84420FDF7FDFFB6
:1029D0000020FDF7FAFFE720FDF7F4FF3220FDF7B6
:1029E000F4FF0020FDF7F1FF5520FDF7EEFF00207A
:1029F000FDF7EBFF7620FDF7E8FF0020FDF7E5FF90
:102A00006620FDF7E2FF0020FDF7DFFF6720FDF7FE
:102A1000DCFF0020FDF7D9FF6720FDF7D6FF00207F
:102A2000FDF7D3FF8720FDF7D0FF0020FDF7CDFF96
:102A30009920FDF7CAFF0020FDF7C7FFBB20FDF777
:102A4000C4FF0020FDF7C1FF9920FDF7BEFF002065
:102A5000FDF7BBFF7720FDF7B8FF0020FDF7B5FFBE
:102A60004420FDF7B2FF0020FDF7AFFF5620FDF731
:102A7000ACFF0020FDF7A9FF2320FDF7A6FF0020F3
:102A8000FDF7A3FF3320FDF7A0FF0020FDF79DFF1A
:102A90004520FDF79AFF0020FDF797FFE820FDF79E
:102AA00091FF0020FDF791FF0020FDF78EFF992098
:102AB000FDF78BFF0020FDF788FF8720FDF785FFDE
:102AC0000020FDF782FF8820FDF77FFF0020FDF743
:102AD0007CFF7720FDF779FF0020FDF776FF662069
:102AE000FDF773FF0020FDF770FF8820FDF76DFFF5
:102AF0000020FDF76AFFAA20FDF767FF0020FDF721
:102B000064FFBB20FDF761FF0020FDF75EFF992009
:102B1000FDF75BFF0020FDF758FF6620FDF755FF2E
:102B20000020FDF752FF5520FDF74FFF0020FDF775
:102B30004CFF5520FDF749FF0020FDF746FF4420DC
:102B4000FDF743FF0020FDF740FF4420FDF73DFF68
:102B50000020FDF73AFF5520FDF737FF0020FDF775
:102B600034FFE920FDF72EFFAA20FDF72EFF0020FD
:102B7000FDF72BFF0020FDF728FF0020FDF725FFC4
:102B80000020FDF71FFFAA20FDF71FFFCF20FDF754
:102B900019FF0020FDF719FF0020FDF716FF0020A8
:102BA000FDF713FF0020FDF710FF0020FDF70DFFDC
:102BB0000020FDF70AFF0020FDF707FF0020FDF7CA
:102BC00004FF0020FDF701FF0020FDF7FEFE0020BE
:102BD000FDF7FBFE0020FDF7F8FE0020FDF7F5FEF7
:102BE0000020FDF7F2FE0020FDF7EFFE0020FDF7CC
:102BF000ECFE0020FDF7E9FEF020FDF7E3FE0020EB
:102C0000FDF7E3FE5020FDF7E0FE0020FDF7DDFEBE
:102C10000020FDF7DAFE0020FDF7D7FEF320FDF7D8
:102C2000D1FE0020FDF7D1FEF920FDF7CBFE0620F6
:102C3000FDF7CBFE1020FDF7C8FE2920FDF7C5FEED
:102C40000020FDF7C2FE3A20FDF7BCFE5520FDF73F
:102C5000BCFE1120FDF7B6FE642002F05AFC2920CC
:102C6000FDF7B0FE3520FDF7ADFE0020FDF7ADFE0F
:102C70005120FDF7A7FEFF20FDF7A7FE5320FDF72B
:102C8000A1FE2C20FDF7A1FE5520FDF79BFE822022
:102C9000FDF79BFE2C20FDF795FE02F0E9B8FE48FB
:102CA000808845F2105188427ED155214FF4704002
:102CB000FDF797FEAA214FF20100FDF792FE522187
:102CC0004FF20200FDF78DFE08214FF20300FDF7E1
:102CD00088FE01214FF20400FDF783FE0D214FF421
:102CE0003040FDF77EFE0D214BF20100FDF779FE2D
:102CF0000D214BF20200FDF774FE34214FF43640F3
:102D0000FDF76FFE34214BF20160FDF76AFE3421BE
:102D10004BF20260FDF765FE0D214FF43140FDF7E7
:102D200060FE0D214BF20110FDF75BFE0D214BF211
:102D30000210FDF756FE34214FF43740FDF751FEE7
:102D400034214BF20170FDF74CFE34214BF202703E
:102D5000FDF747FE00214FF43240FDF742FE00210F
:102D60004BF20120FDF73DFE00214BF20220FDF762
:102D700038FE24214FF43840FDF733FE24214BF672
:102D80000100FDF72EFE24214BF60200FDF729FE7F
:102D900001214FF43F40FDF724FE0F214FF4334053
:102DA000FDF71FFE0F2100E0FEE34BF20130FDF7BF
:102DB00018FE0F214BF20230FDF713FE34214FF4C1
:102DC0003940FDF70EFE34214BF60110FDF709FEE8
:102DD00034214BF60210FDF704FE08214FF4354074
:102DE000FDF7FFFD08214BF20150FDF7FAFD082128
:102DF0004BF20250FDF7F5FD03214FF44240FDF781
:102E0000F0FD24214FF43A40FDF7EBFD24214BF671
:102E10000120FDF7E6FD24214BF60220FDF7E1FD40
:102E200000214FF43C40FDF7DCFD78214BF60140DA
:102E3000FDF7D7FD00214BF60240FDF7D2FD002142
:102E40004FF43D40FDF7CDFD78214BF60150FDF7E5
:102E5000C8FD00214BF60250FDF7C3FD00214FF4E1
:102E60003E40FDF7BEFD64214BF60160FDF7B9FD64
:102E700000214FF45140FDF7B4FD33214DF2011014
:102E8000FDF7AFFD00214DF20210FDF7AAFD342140
:102E90004DF20310FDF7A5FD00214DF20410FDF7E2
:102EA000A0FD3A214DF20510FDF79BFD00214DF2EA
:102EB0000610FDF796FD4A214DF20710FDF791FD32
:102EC00000214DF20810FDF78CFD5C214DF2091038
:102ED000FDF787FD00214DF20A10FDF782FD8121EB
:102EE0004DF20B10FDF77DFD00214DF20C10FDF7AA
:102EF00078FDA6214DF20D10FDF773FD00214DF276
:102F00000E10FDF76EFDE5214DF20F10FDF769FD86
:102F100001214DF21010FDF764FD13214DF2111047
:102F2000FDF75FFD01214DF21210FDF75AFD54210E
:102F30004DF21310FDF755FD01214DF21410FDF770
:102F400050FD82214DF21510FDF74BFD01214DF290
:102F50001610FDF746FDCA214DF21710FDF741FD91
:102F600002214DF21810FDF73CFD00214DF2191021
:102F7000FDF737FD02214DF21A10FDF732FD012158
:102F80004DF21B10FDF72DFD02214DF21C10FDF737
:102F900028FD34214DF21D10FDF723FD02214DF2D5
:102FA0001E10FDF71EFD67214DF21F10FDF719FDE4
:102FB00002214DF22010FDF714FD84214DF2211065
:102FC000FDF70FFD02214DF22210FDF70AFDA421AD
:102FD0004DF22310FDF705FD02214DF22410FDF7FF
:102FE00000FDB7214DF22510FDF7FBFC02214DF24B
:102FF0002610FDF7F6FCCF214DF22710FDF7F1FC6E
:1030000002214DF22810FDF7ECFCDE214DF22910D3
:10301000FDF7E7FC02214DF22A10FDF7E2FCF22158
:103020004DF22B10FDF7DDFC02214DF22C10FDF7C7
:10303000D8FCFE214DF22D10FDF7D3FC03214DF2FB
:103040002E10FDF7CEFC10214DF22F10FDF7C9FC1C
:1030500003214DF23010FDF7C4FC33214DF2311045
:10306000FDF7BFFC03214DF23210FDF7BAFC6D21D4
:103070004DF23310FDF7B5FC00214FF45240FDF73F
:10308000B0FC33214DF20120FDF7ABFC00214DF2E5
:103090000220FDF7A6FC01E0B01B002034214DF218
:1030A0000320FDF79EFC00214DF20420FDF799FC62
:1030B0003A214DF20520FDF794FC00214DF2062047
:1030C000FDF78FFC4A214DF20720FDF78AFC002115
:1030D0004DF20820FDF785FC5C214DF20920FDF73B
:1030E00080FC00214DF20A20FDF77BFC81214DF28E
:1030F0000B20FDF776FC00214DF20C20FDF771FC52
:10310000A6214DF20D20FDF76CFC00214DF20E20A2
:10311000FDF767FCE5214DF20F20FDF762FC012170
:103120004DF21020FDF75DFC13214DF21120FDF74B
:1031300058FC01214DF21220FDF753FC54214DF2B1
:103140001320FDF74EFC01214DF21420FDF749FC40
:1031500082214DF21520FDF744FC01214DF216208D
:10316000FDF73FFCCA214DF21720FDF73AFC022182
:103170004DF21820FDF735FC00214DF21920FDF726
:1031800030FC02214DF21A20FDF72BFC01214DF2FB
:103190001B20FDF726FC02214DF21C20FDF721FC2F
:1031A00034214DF21D20FDF71CFC02214DF21E20A2
:1031B000FDF717FC67214DF21F20FDF712FC0221DD
:1031C0004DF22020FDF70DFC84214DF22120FDF76A
:1031D00008FC02214DF22220FDF703FCA4214DF250
:1031E0002320FDF7FEFB02214DF22420FDF7F9FB21
:1031F000B7214DF22520FDF7F4FB02214DF22620E8
:10320000FDF7EFFBCF214DF22720FDF7EAFB02216E
:103210004DF22820FDF7E5FBDE214DF22920FDF7D8
:10322000E0FB02214DF22A20FDF7DBFBF2214DF2FB
:103230002B20FDF7D6FB02214DF22C20FDF7D1FB10
:10324000FE214DF22D20FDF7CCFB03214DF22E2067
:10325000FDF7C7FB10214DF22F20FDF7C2FB032124
:103260004DF23020FDF7BDFB33214DF23120FDF74B
:10327000B8FB03214DF23220FDF7B3FB6D214DF277
:103280003320FDF7AEFB00214FF45340FDF7A9FBBF
:1032900033214DF20130FDF7A4FB00214DF2023045
:1032A000FDF79FFB34214DF20330FDF79AFB00211F
:1032B0004DF20430FDF795FB3A214DF20530FDF754
:1032C00090FB00214DF20630FDF78BFB4A214DF2B9
:1032D0000730FDF786FB00214DF20830FDF781FB3A
:1032E0005C214DF20930FDF77CFB00214DF20A30E4
:1032F000FDF777FB81214DF20B30FDF772FB0021CA
:103300004DF20C30FDF76DFBA6214DF20D30FDF7AF
:1033100068FB00214DF20E30FDF763FBE5214DF215
:103320000F30FDF75EFB01214DF21030FDF759FB28
:1033300013214DF21130FDF754FB01214DF21230F3
:10334000FDF74FFB54214DF21330FDF74AFB0121ED
:103350004DF21430FDF745FB82214DF21530FDF79B
:1033600040FB01214DF21630FDF73BFBCA214DF227
:103370001730FDF736FB02214DF21830FDF731FB17
:1033800000214DF21930FDF72CFB02214DF21A30CD
:10339000FDF727FB01214DF21B30FDF722FB022137
:1033A0004DF21C30FDF71DFB34214DF21D30FDF7B1
:1033B00018FB02214DF21E30FDF713FB67214DF281
:1033C0001F30FDF70EFB02214DF22030FDF709FB07
:1033D00084214DF22130FDF704FB02214DF2223011
:1033E000FDF7FFFAA4214DF22330FDF7FAFA02218E
:1033F0004DF22430FDF7F5FAB7214DF22530FDF7F7
:10340000F0FA02214DF22630FDF7EBFACF214DF212
:103410002730FDF7E6FA02214DF22830FDF7E1FAF8
:10342000DE214DF22930FDF7DCFA02214DF22A307F
:10343000FDF7D7FAF2214DF22B30FDF7D2FA022137
:103440004DF22C30FDF7CDFAFE214DF22D30FDF777
:10345000C8FA03214DF22E30FDF7C3FA10214DF2C8
:103460002F30FDF7BEFA03214DF23030FDF7B9FAE7
:1034700033214DF23130FDF7B4FA03214DF23230F1
:10348000FDF7AFFA6D214DF23330FDF7AAFA0021B6
:103490004FF45440FDF7A5FA33214DF20140FDF7FA
:1034A000A0FA00214DF20240FDF79BFA34214DF2C3
:1034B0000340FDF796FA00214DF20440FDF791FA22
:1034C0003A214DF20540FDF78CFA00214DF20640FD
:1034D000FDF787FA4A214DF20740FDF782FA0021F5
:1034E0004DF20840FDF77DFA5C214DF20940FDF7F1
:1034F00078FA00214DF20A40FDF773FA81214DF26E
:103500000B40FDF76EFA00214DF20C40FDF769FA11
:10351000A6214DF20D40FDF764FA00214DF20E4058
:10352000FDF75FFAE5214DF20F40FDF75AFA012150
:103530004DF21040FDF755FA13214DF21140FDF701
:1035400050FA01214DF21240FDF74BFA54214DF291
:103550001340FDF746FA01214DF21440FDF741FA00
:1035600082214DF21540FDF73CFA01214DF2164043
:10357000FDF737FACA214DF21740FDF732FA022162
:103580004DF21840FDF72DFA00214DF21940FDF7DC
:1035900028FA02214DF21A40FDF723FA01214DF2DB
:1035A0001B40FDF71EFA00E004E302214DF21C402F
:1035B000FDF717FA34214DF21D40FDF712FA0221F2
:1035C0004DF21E40FDF70DFA67214DF21F40FDF749
:1035D00008FA02214DF22040FDF703FA84214DF252
:1035E0002140FDF7FEF902214DF22240FDF7F9F9E5
:1035F000A4214DF22340FDF7F4F902214DF22440BD
:10360000FDF7EFF9B7214DF22540FDF7EAF9022168
:103610004DF22640FDF7E5F9CF214DF22740FDF7A9
:10362000E0F902214DF22840FDF7DBF9DE214DF2F1
:103630002940FDF7D6F902214DF22A40FDF7D1F9D4
:10364000F2214DF22B40FDF7CCF902214DF22C4036
:10365000FDF7C7F9FE214DF22D40FDF7C2F9032118
:103660004DF22E40FDF7BDF910214DF22F40FDF730
:10367000B8F903214DF23040FDF7B3F933214DF293
:103680003140FDF7AEF903214DF23240FDF7A9F9C3
:103690006D214DF23340FDF7A4F900214FF4554060
:1036A000FDF79FF933214DF20150FDF79AF9002102
:1036B0004DF20250FDF795F934214DF20350FDF71C
:1036C00090F900214DF20450FDF78BF93A214DF2AB
:1036D0000550FDF786F900214DF20650FDF781F9FE
:1036E0004A214DF20750FDF77CF900214DF20850B8
:1036F000FDF777F95C214DF20950FDF772F90021D1
:103700004DF20A50FDF76DF981214DF20B50FDF796
:1037100068F900214DF20C50FDF763F9A6214DF236
:103720000D50FDF75EF900214DF20E50FDF759F9ED
:10373000E5214DF20F50FDF754F901214DF21050E3
:10374000FDF74FF913214DF21150FDF74AF9012110
:103750004DF21250FDF745F954214DF21350FDF78B
:1037600040F901214DF21450FDF73BF982214DF251
:103770001550FDF736F901214DF21650FDF731F9DC
:10378000CA214DF21750FDF72CF902214DF21850C5
:10379000FDF727F900214DF21950FDF722F902211A
:1037A0004DF21A50FDF71DF901214DF21B50FDF7A6
:1037B00018F902214DF21C50FDF713F934214DF296
:1037C0001D50FDF70EF902214DF21E50FDF709F9CB
:1037D00067214DF21F50FDF704F902214DF22050F0
:1037E000FDF7FFF884214DF22150FDF7FAF8022190
:1037F0004DF22250FDF7F5F8A4214DF22350FDF7CC
:10380000F0F802214DF22450FDF7EBF8B7214DF20C
:103810002550FDF7E6F802214DF22650FDF7E1F8BC
:10382000CF214DF22750FDF7DCF802214DF2285050
:10383000FDF7D7F8DE214DF22950FDF7D2F802212D
:103840004DF22A50FDF7CDF8F2214DF22B50FDF745
:10385000C8F802214DF22C50FDF7C3F8FE214DF2BD
:103860002D50FDF7BEF803214DF22E50FDF7B9F8AB
:1038700010214DF22F50FDF7B4F803214DF23050D6
:10388000FDF7AFF833214DF23150FDF7AAF80321CF
:103890004DF23250FDF7A5F86D214DF23350FDF792
:1038A000A0F800214FF45640FDF79BF833214DF26C
:1038B0000160FDF796F800214DF20260FDF791F8E6
:1038C00034214DF20360FDF78CF800214DF20460C5
:1038D000FDF787F83A214DF20560FDF782F80021E7
:1038E0004DF20660FDF77DF84A214DF20760FDF7C5
:1038F00078F800214DF20860FDF773F85C214DF275
:103900000960FDF76EF800214DF20A60FDF769F8D5
:1039100081214DF20B60FDF764F800214DF20C603F
:10392000FDF75FF8A6214DF20D60FDF75AF8002172
:103930004DF20E60FDF755F8E5214DF20F60FDF7F1
:1039400050F801214DF21060FDF74BF813214DF2B4
:103950001160FDF746F801214DF21260FDF741F8C4
:1039600054214DF21360FDF73CF801214DF2146033
:10397000FDF737F882214DF21560FDF732F801218D
:103980004DF21660FDF72DF8CA214DF21760FDF7D4
:1039900028F802214DF21860FDF723F800214DF2BE
:1039A0001960FDF71EF802214DF21A60FDF719F8B3
:1039B00001214DF21B60FDF714F802214DF21C604D
:1039C000FDF70FF834214DF21D60FDF70AF80221D2
:1039D0004DF21E60FDF705F867214DF21F60FDF7FF
:1039E00000F802214DF22060FCF7FBFF84214DF22C
:1039F0002160FCF7F6FF02214DF22260FCF7F1FF97
:103A0000A4214DF22360FCF7ECFF02214DF224606B
:103A1000FCF7E7FFB7214DF22560FCF7E2FF02213A
:103A20004DF22660FCF7DDFFCF214DF22760FCF759
:103A3000D8FF02214DF22860FCF7D3FFDE214DF2C2
:103A40002960FCF7CEFF02214DF22A60FCF7C9FF86
:103A5000F2214DF22B60FCF7C4FF02214DF22C60E5
:103A6000FCF7BFFFFE214DF22D60FCF7BAFF0321EA
:103A70004DF22E60FCF7B5FF10214DF22F60FCF7E0
:103A8000B0FF03214DF23060FCF7ABFF33214DF264
:103A90003160FCF7A6FF03214DF23260FCF7A1FF75
:103AA0006D214DF23360FCF79CFF55214FF47040BF
:103AB000FCF797FFAA214FF20100FCF792FF522179
:103AC0004FF20200FCF78DFF08214FF20300FCF7D4
:103AD00088FF00214FF20400FCF783FFCC214FF454
:103AE0003140FCF77EFF00214BF20110FCF779FF1B
:103AF00005214FF43640FCF774FF70214FF4374036
:103B0000FCF76FFF70214BF20170FCF76AFF012197
:103B10004FF43840FCF765FF03214BF60100FCF73A
:103B200060FF03214BF60200FCF75BFF03214BF61D
:103B30000300FCF756FF02214FF43C40FCF751FF15
:103B400000214BF60140FCF74CFF00214BF60240F0
:103B5000FCF747FFD0214FF44940FCF742FF022118
:103B60004CF60110FCF73DFF50214CF60210FCF71B
:103B700038FF50214CF60310FCF733FF50214CF670
:103B80000410FCF72EFF00214FF45450FCF729FFDE
:103B900055214FF46850FCF724FF4FF48850FCF790
:103BA00011FF782001F08AFC4FF42450FCF70AFF43
:103BB00001F05EB9FE48808849F2253188427DD106
:103BC00047F6F001E520FCF70CFF4FF4807101206F
:103BD000FCF707FF4FF4E0610220FCF702FF41F21F
:103BE00030010320FCF7FDFE00210420FCF7F9FE64
:103BF00040F202210820FCF7F4FE00210920FCF726
:103C0000F0FE00210A20FCF7ECFE00210C20FCF75E
:103C1000E8FE00210D20FCF7E4FE00210F20FCF758
:103C2000E0FE00211020FCF7DCFE07211120FCF74C
:103C3000D8FE00211220FCF7D4FE00211320FCF74F
:103C4000D0FE00210720FCF7CCFE41F2906110204D
:103C5000FCF7C7FE40F227211120FCF7C2FE9D2190
:103C60001220FCF7BEFE4FF4C8511320FCF7B9FE3A
:103C700025212920FCF7B5FE0D212B20FCF7B1FEF4
:103C800007213020FCF7ADFE40F203313120FCF774
:103C9000A8FE03213220FCF7A4FE40F206213520C5
:103CA000FCF79FFE08213620FCF79BFE40F2064100
:103CB0003720FCF796FE4FF4417100E058E03820C1
:103CC000FCF78FFE07213920FCF78BFE40F20261E2
:103CD0003C20FCF786FE08213D20FCF782FE0021F7
:103CE0005020FCF77EFEEF215120FCF77AFE0021E8
:103CF0005220FCF776FE40F23F115320FCF771FE94
:103D00004FF427416020FCF76CFE01216120FCF795
:103D100068FE00216A20FCF764FE00218020FCF789
:103D200060FE00218120FCF75CFE00218220FCF770
:103D300058FE00218320FCF754FE00218420FCF76C
:103D400050FE00218520FCF74CFE10219020FCF74E
:103D500048FE4FF4C0619220FCF743FE40F233115D
:103D60000720FCF73EFE22210020FCF73AFE1FE769
:103D70008F48808849F2283188427DD141F28F01F5
:103D8000EC20FCF72EFE41F23421EF20FCF729FE57
:103D90004FF480710120FCF724FE4FF4E061022013
:103DA000FCF71FFE41F230010320FCF71AFE002150
:103DB0000420FCF716FE40F202210820FCF711FE59
:103DC00000210920FCF70DFE00210A20FCF709FE66
:103DD00001210C20FCF705FE00210D20FCF701FE5F
:103DE00000210F20FCF7FDFD00211020FCF7F9FD5C
:103DF00007211120FCF7F5FD00211220FCF7F1FD51
:103E000000211320FCF7EDFD01210720FCF7E9FD5F
:103E1000322001F07EFB41F290411020FCF7E1FDE1
:103E200040F227211120FCF7DCFD322001F071FB6C
:103E30008A211220FCF7D5FD322001F06AFB4FF4F5
:103E4000D0511320FCF7CDFD06212920FCF7C9FD38
:103E50000D212B20FCF7C5FD322001F05AFB00217B
:103E60002020FCF7BEFD00212120FCF7BAFD322006
:103E700001F04FFB002100E075E03020FCF7B1FDC0
:103E800040F204613120FCF7ACFD40F205313220F4
:103E9000FCF7A7FD00213520FCF7A3FD40F6094102
:103EA0003620FCF79EFD4FF401713720FCF799FD99
:103EB00040F201313820FCF794FD40F207713920BF
:103EC000FCF78FFD00213C20FCF78BFD40F60A211A
:103ED0003D20FCF786FD322001F01BFB0021502025
:103EE000FCF77FFDEF215120FCF77BFD00215220E4
:103EF000FCF777FD40F23F115320FCF772FD4FF4C1
:103F000027416020FCF76DFD01216120FCF769FD70
:103F100000216A20FCF765FD00218020FCF761FD8F
:103F200000218120FCF75DFD00218220FCF759FD76
:103F300000218320FCF755FD00218420FCF751FD72
:103F400000218520FCF74DFD10219020FCF749FD54
:103F50004FF4C0619220FCF744FD40F2331107207A
:103F6000FCF73FFD24E61248808849F22031884260
:103F70007ED100210846FCF734FD4FF4807101200A
:103F8000FCF72FFD4FF4E0610220FCF72AFD41F21F
:103F900030010320FCF725FD00210420FCF721FD62
:103FA00040F202210820FCF71CFD0021092001E05D
:103FB000B01B0020FCF715FD00210A20FCF711FDC5
:103FC00001210C20FCF70DFD00210D20FCF709FD5F
:103FD00000210F20FCF705FD322001F09AFA40F293
:103FE00001110720FCF7FDFC322001F092FA4FF49A
:103FF00086511020FCF7F5FC07211120FCF7F1FC9D
:104000004FF488711220FCF7ECFC4FF43061132060
:10401000FCF7E7FC00212920FCF7E3FC44F2100147
:104020002B20FCF7DEFC00215020FCF7DAFCEF210E
:104030005120FCF7D6FC00215220FCF7D2FC40F2C4
:104040003F115320FCF7CDFC4FF41C516020FCF7CE
:10405000C8FC01216120FCF7C4FC00216A20FCF7A8
:10406000C0FC00218020FCF7BCFC0021812000E086
:1040700030E0FCF7B6FC00218220FCF7B2FC002106
:104080008320FCF7AEFC00218420FCF7AAFC002171
:104090008520FCF7A6FC10219020FCF7A2FC002153
:1040A0009220FCF79EFC01219320FCF79AFC4FF430
:1040B00088719520FCF795FC00219720FCF791FC76
:1040C00000219820FCF78DFC40F273110720FCF7CB
:1040D00088FC6DE5FE48808849F2313188427DD107
:1040E00041F21401E720FCF77CFC4FF480710120C1
:1040F000FCF777FC4FF400710220FCF772FC41F2F0
:1041000038010320FCF76DFC40F202210820FCF787
:1041100068FC00210920FCF764FC00210A20FCF760
:1041200060FC00210C20FCF75CFC00210D20FCF75A
:1041300058FC00210F20FCF754FC00211020FCF754
:1041400050FC07211120FCF74CFC00211220FCF749
:1041500048FC00211320FCF744FCC82001F0D9F9E9
:1041600041F290611020FCF73CFC40F22721112025
:10417000FCF737FC322001F0CCF90C211220FCF7BF
:1041800030FC322001F0C5F94FF400611320FCF738
:1041900028FC11212920FCF724FC0B212B20FCF703
:1041A00020FC322001F0B5F900212020FCF719FC99
:1041B00040F23F112120FCF714FC00213020FCF7D5
:1041C00010FC4FF483713120FCF70BFC00213220EE
:1041D000FCF707FC4FF40171352000E064E0FCF7C8
:1041E00000FC41F20A613620FCF7FBFB40F207714C
:1041F0003720FCF7F6FB4FF483713820FCF7F1FB16
:1042000040F207713920FCF7ECFB40F202413C2000
:10421000FCF7E7FB40F60F413D20FCF7E2FB0021F5
:104220005020FCF7DEFBEF215120FCF7DAFB0021E8
:104230005220FCF7D6FB40F23F115320FCF7D1FB94
:104240004FF41C516020FCF7CCFB01216120FCF7EE
:10425000C8FB00216A20FCF7C4FB00218020FCF78A
:10426000C0FB00218120FCF7BCFB00218220FCF771
:10427000B8FB00218320FCF7B4FB00218420FCF76D
:10428000B0FB00218520FCF7ACFB10219020FCF74F
:10429000A8FB4FF4C0619220FCF7A3FB40F233115E
:1042A0000720FCF79EFB83E48948808845F208419B
:1042B00088427DD14FF480710120FCF792FB4FF4CE
:1042C000E0610220FCF78DFB41F230010320FCF796
:1042D00088FB00210420FCF784FB40F20721082022
:1042E000FCF77FFB00210920FCF77BFB00210A2063
:1042F000FCF777FB00210C20FCF773FB00210D205D
:10430000FCF76FFB00210F20FCF76BFB142001F082
:1043100000F941F2B0611020FCF763FB012111208C
:10432000FCF75FFB01211720FCF75BFB4FF49C714E
:104330001220FCF756FB4FF400611320FCF751FBF1
:1043400009212920FCF74DFB09212A20FCF749FB14
:104350000021A420FCF745FB00215020FCF741FB85
:10436000EF215120FCF73DFB00215220FCF739FBE7
:1043700040F23F115320FCF734FB4FF41C516020F6
:10438000FCF72FFB01216120FCF72BFB00216A20A9
:10439000FCF727FB00218020FCF723FB0021812074
:1043A000FCF71FFB00218220FCF71BFB002100E033
:1043B00024E08320FCF715FB00218420FCF711FB8F
:1043C00000218520FCF70DFB13219020FCF709FB51
:1043D00000219220FCF705FB03219320FCF701FB51
:1043E0004FF488719520FCF7FCFA40F27311072016
:1043F000FCF7F7FA322001F08CF8B8E434488088F2
:1044000041F2055188427DD100210720FCF7E9FAED
:10441000322001F07EF84FF48E711220FCF7E1FAA1
:104420000121A420FCF7DDFA0F210820FCF7D9FABE
:1044300008210A20FCF7D5FA08210D20FCF7D1FA53
:1044400040F207713020FCF7CCFA07213120FCF74D
:10445000C8FA40F203613220FCF7C3FA4FF4E0617E
:104460003320FCF7BEFA40F202213420FCF7B9FAFF
:1044700002213520FCF7B5FA41F60F713620FCF722
:10448000B0FA40F207713720FCF7ABFA0021382070
:10449000FCF7A7FA00213920FCF7A3FA40F20771D4
:1044A0003A20FCF79EFA00213B20FCF79AFA0721FC
:1044B0003C20FCF796FA00213D20FCF792FA3220CE
:1044C00001F027F801210720FCF78BFA012101E018
:1044D000B01B00201720FCF784FA322001F019F8F5
:1044E0004FF4BD511020FCF77CFA40F21721112047
:1044F000FCF777FA4FF48F711220FCF772FA4FF441
:10450000706100E098E01320FCF76BFA00212A208C
:10451000FCF767FA0A212920FCF763FA4FF49F7130
:104520001220FCF75EFA00215020FCF75AFAEF2126
:104530005120FCF756FA00215220FCF752FA40F2C3
:104540003F115320FCF74DFA4FF41C516020FCF74B
:1045500048FA01216120FCF744FA00216A20FCF7A7
:1045600040FA00218020FCF73CFA00218120FCF772
:1045700038FA00218220FCF734FA00218320FCF76E
:1045800030FA00218420FCF72CFA00218520FCF76A
:1045900028FA13219020FCF724FA4FF4407192205E
:1045A000FCF71FFA05219320FCF71BFA0021952048
:1045B000FCF717FA00219720FCF713FA0021982046
:1045C000FCF70FFA4FF480710120FCF70AFA4FF460
:1045D000E0610220FCF705FA41F238010320FCF704
:1045E00000FA00210420FCF7FCF900210C20FCF764
:1045F000F8F900210F20FCF7F4F900212020FCF746
:10460000F0F900212120FCF7ECF921210720FCF72B
:10461000E8F9142000F07DFF61210720FCF7E1F9A3
:10462000142000F076FF40F273110720FCF7D9F94F
:10463000142000F06EFF95E4FE4880884BF205518F
:1046400088427CD100210846FCF7CBF900210846BE
:10465000FCF7C7F900210846FCF7C3F9002108461A
:10466000FCF7BFF90121A420FCF7BBF9142000F0EE
:1046700050FF4FF41C516020FCF7B3F940F20221C7
:104680000820FCF7AEF94FF405713020FCF7A9F9CA
:1046900043F215713120FCF7A4F940F20461322095
:1046A000FCF79FF940F616613320FCF79AF942F2C5
:1046B00011213420FCF795F94FF4A8513520FCF76F
:1046C00090F948F207513620FCF78BF941F2074187
:1046D0003720FCF786F941F203413820FCF781F9D5
:1046E00020213920FCF77DF91A219020FCF779F977
:1046F00000211020FCF775F907211120FCF771F952
:1047000000211220FCF76DF900211320FCF769F954
:10471000142000F0FEFE4FF4E6611020FCF761F972
:1047200040F237111120FCF75CF9142000F0F1FE83
:104730004FF4DC711220FCF754F9142000E085E0FE
:1047400000F0E7FE4FF470611320FCF74AF9802176
:104750002A20FCF746F948212920FCF742F91420C9
:1047600000F0D7FE4FF480710120FCF73AF94FF4C6
:10477000E0610220FCF735F941F238010320FCF733
:1047800030F940F202210820FCF72BF900210A2021
:10479000FCF727F900210C20FCF723F900210D205C
:1047A000FCF71FF930210E20FCF71BF900215020E7
:1047B000FCF717F9EF215120FCF713F900215220E3
:1047C000FCF70FF940F23F115320FCF70AF94FF4C0
:1047D0001C516020FCF705F901216120FCF701F96B
:1047E00000216A20FCF7FDF811219020FCF7F9F870
:1047F0004FF4C0619220FCF7F4F840F2024193209C
:10480000FCF7EFF802219420FCF7EBF8142000F0FD
:1048100080FE01210720FCF7E4F8142000F079FE67
:1048200061210720FCF7DDF840F273110720FCF747
:10483000D8F800212020FCF7D4F800212120FCF733
:10484000D0F822210020FCF7CCF811E379488088C9
:104850004CF2055188427CD100210846FCF7C1F892
:1048600000210846FCF7BDF8142000F052FE00219C
:104870000846FCF7B6F800210846FCF7B2F800211C
:104880000846FCF7AEF800210846FCF7AAF801211B
:10489000A420FCF7A6F8142000F03BFE4FF41C51B6
:1048A0006020FCF79EF840F606010820FCF799F816
:1048B00040F203713020FCF794F801213120FCF71D
:1048C00090F804213220FCF78CF84FF481713320EA
:1048D000FCF787F84FF440713420FCF782F840F27F
:1048E00003113520FCF77DF81F213620FCF779F8FD
:1048F00040F203713720FCF774F801213820FCF7EF
:1049000070F804213920FCF76CF815219020FCF791
:1049100068F84FF482611020FCF763F840F24721F9
:104920001120FCF75EF84FF4DE711220FCF759F805
:104930004FF460611320FCF754F8782000F0E9FD93
:104940004FF480710120FCF74CF84FF40071022005
:1049500000E052E0FCF745F841F230010320FCF79B
:1049600040F808210A20FCF73CF800210C20FCF755
:1049700038F820210E20FCF734F800210F20FCF736
:1049800030F800212020FCF72CF800212120FCF732
:1049900028F83D212A20FCF724F8142000F0B9FD66
:1049A0002D212920FCF71DF800215020FCF719F8D3
:1049B0004DF2EF015120FCF714F800215220FCF7D2
:1049C00010F840F23F115320FCF70BF80021612052
:1049D000FCF707F800216A20FCF703F84FF4407158
:1049E0009220FBF7FEFF05219320FBF7FAFF4FF41F
:1049F00080710720FBF7F5FF3AE20E48808844F209
:104A0000315188427ED101210020FBF7EAFF0A20C4
:104A100000F07FFD41F228611020FBF7E2FF0E213C
:104A20001220FBF7DEFF40F639211320FBF7D9FFF8
:104A30000A2001E0B01B002000F06BFD4021112096
:104A4000FBF7CFFF50211520FBF7CBFF0A2000F02A
:104A500060FD1E211220FBF7C4FF0A2000F059FD63
:104A60004FF4B1511020FBF7BCFF42F6392113205F
:104A7000FBF7B7FF0A2000F04CFD4FF480710120D6
:104A8000FBF7AFFF4FF440710220FBF7AAFF41F2A2
:104A900038010320FBF7A5FF40F202210820FBF7B5
:104AA000A0FF08210A20FBF79CFF00213020FBF724
:104AB00098FF40F202413120FBF793FF4FF48371DE
:104AC0003220FBF78EFF40F203513320FBF789FFC2
:104AD0004FF482713420FBF784FF40F2013135201E
:104AE000FBF77FFF40F207713620FBF77AFF40F2B9
:104AF00005313720FBF775FF4FF402713820FBF7C3
:104B000070FF00E03EE040F60B713920FBF769FFD3
:104B100002214120FBF765FF4FF41C516020FBF799
:104B200060FF01216120FBF75CFF4FF404719020CE
:104B3000FBF757FF4FF485719220FBF752FF0421DA
:104B40009320FBF74EFF4FF48071A020FBF749FF45
:104B500001210720FBF745FF21210720FBF741FF3B
:104B600023210720FBF73DFF33210720FBF739FF07
:104B700040F233110720FBF734FF0021A020FBF7A0
:104B800030FF75E1F748808844F2355188427CD186
:104B900030211520FBF725FF10219A20FBF721FF7C
:104BA00020211120FBF71DFF43F228411020FBF7C5
:104BB00018FF02211220FBF714FF41F238011320E5
:104BC000FBF70FFF282000F0A4FC12210846FBF79A
:104BD00008FF282000F09DFC43F220411020FBF745
:104BE00000FF43F238011320FBF7FBFE462000F0E4
:104BF00090FC00213020FBF7F4FE40F2024131200E
:104C0000FBF7EFFE40F207313220FBF7EAFE4FF4EC
:104C100041713320FBF7E5FE04213420FBF7E1FE70
:104C200040F201413520FBF7DCFE40F207713620EF
:104C3000FBF7D7FE40F205313720FBF7D2FE4FF4E9
:104C4000C2613820FBF7CDFE4FF4C2613920FBF77B
:104C5000C8FE4FF480710120FBF7C3FE4FF4407192
:104C60000220FBF7BEFE41F230010320FBF7B9FE44
:104C700040F608010820FBF7B4FE08210A20FBF7E4
:104C8000B0FE4FF41C51602000E033E0FBF7A9FEBA
:104C900001216120FBF7A5FE4FF49F719020FBF7E7
:104CA000A0FE4FF480719220FBF79BFE4FF48071C1
:104CB0009320FBF796FE4FF44051A020FBF791FEA6
:104CC0001021A320FBF78DFE01210720FBF789FEB1
:104CD00021210720FBF785FE23210720FBF781FE1A
:104CE00033210720FBF77DFE40F233110720FBF74D
:104CF00078FEBDE09B48808841F663118842F8D178
:104D0000E220FBF75FFE1D20FBF75FFE0220FBF7B2
:104D10005CFE0420FBF759FE642000F0CFFBE0208E
:104D2000FBF750FE0120FBF750FE0A2000F0F1FBDC
:104D3000E020FBF747FE0320FBF747FE0C2000F0C6
:104D4000E8FB0120FBF73EFE0A2000F0E2FBE62034
:104D5000FBF738FE2F20FBF738FEFF20FBF735FE70
:104D6000FF20FBF732FEB020FBF72CFE2020FBF7E4
:104D70002CFE0020FBF729FE0320FBF726FE40F265
:104D80001F30FBF722FE0120FBF71FFE40F2DF1071
:104D9000FBF71BFE0020FBF718FEB420FBF712FE0A
:104DA0000420FBF712FE40F21F40FBF70EFE00202E
:104DB000FBF70BFE2E20FBF708FE0020FBF705FE9D
:104DC0000020FBF702FE0020FBF7FFFD0020FBF7B1
:104DD000FCFDB620FBF7F6FD0220FBF7F6FD4FF4D5
:104DE0000370FBF7F2FD0020FBF7EFFD1720FBF748
:104DF000ECFD1520FBF7E9FD0020FBF7E6FD0020A8
:104E0000FBF7E3FDF020FBF7DDFD0320FBF7DDFD05
:104E10002920FBF7D7FDD020FBF7D4FD0020FBF7BE
:104E2000D4FDBE20FBF7CEFD0520FBF7CEFDFE2016
:104E3000FBF7CBFD0120FBF7C8FD0020FBF7C5FD0C
:104E40000020FBF7C2FD0020FBF7BFFDB820FBF7F9
:104E5000B9FD0320FBF7B9FD0120FBF7B6FDBA2031
:104E6000FBF7B0FD0120FBF7B0FD6420FCF70DFA65
:104E70000120FCF732FA01203B4908604FF6FF7031
:104E8000FCF717FC1FB000BD2DE9FC4F05460E4690
:104E900017469846DDF82C90002001903148808814
:104EA00046F60401884229D12E488079012825D16F
:104EB000AB4635462B480088C01B401E86B247468D
:104EC00028480088A0EB0B00401E1FFA80F8002045
:104ED000244988712A2048812B20888143463A46FC
:104EE00031462846CDF80090FFF7CEFF01201D493E
:104EF00088712B2048812A2088811CE0781B401C67
:104F000080B20190344614E021462846FBF796FD16
:104F1000FBF777FD4FF0000A06E01448A0F8009078
:104F20000AF101001FFA80FA01988245F5DB601C46
:104F300084B24445E8DDBDE8FC8F2DE9F84F074613
:104F40000D4690469946DDF828B0A8EB0700401CB6
:104F50001FFA80FAA9EB0500401C80B200900024E3
:104F60001BE00000B01B0020808121420008006C83
:104F7000281981B23846FBF761FDFBF742FD002698
:104F800007E004FB0A603BF81000F8490880701C39
:104F900086B25645F5DB601C84B200988442E7DB9C
:104FA000BDE8F88F2DE9FF4F84B081468A46002086
:104FB000039002900698A0EB09050798A0EB0A065B
:104FC000CDF80490CDF800A0002D01DD012705E00B
:104FD0000DB9002702E04FF0FF376D42002E02DDD1
:104FE0004FF0010806E016B94FF0000802E04FF05C
:104FF000FF387642B54201DD2C4600E034464FF0E2
:10500000000B21E0009A91B2019A90B2FCF76FF880
:105010000398284403900298304402900398A042D9
:1050200005DD0398001B0390019838440190029815
:10503000A04205DD0298001B0290009840440090B9
:105040000BF101001FFA80FB601C8345DADD08B01C
:10505000BDE8F08FF0B504460D4616461F462B46B8
:10506000324629462046FFF79DFF3B462246294609
:105070002046FFF797FF3B46324639462046FFF76A
:1050800091FF3B46324629463046FFF78BFFF0BD85
:105090002DE9F04306460F4690460024454603207E
:1050A000A0EB48093CE07A1B91B2321990B2FCF7B0
:1050B0001EF83A1B91B2721990B2FCF718F83A191F
:1050C00091B2721990B2FCF712F87A1991B23219B2
:1050D00090B2FCF70CF87A1991B2321B90B2FCF73F
:1050E00006F83A1991B2721B90B2FCF700F87A1BDD
:1050F00091B2321B90B2FBF7FAFF3A1B91B2721BCE
:1051000090B2FBF7F4FF641CB9F1000F03DAA000C2
:10511000801D814404E0601B80000A3081446D1EC4
:10512000AC42C0DDBDE8F0832DE9F84F80460E4665
:1051300017461C46B3462046E31704EB5373DB10B7
:1051400021464FEAE47C04EB5C7C4FEAEC0CA4EBD8
:10515000CC0CBCF1000F02D04FF0010C01E04FF07D
:10516000000C6344224604EBD27C4FEA6C0C03FB38
:105170000CF3DBB20093A7F12000C7B2002556E084
:105180000C2C07D107EB4700794901EB800010F8A0
:10519000059013E0102C05D1764800EB071010F8AD
:1051A00005900BE0182C07D107EBC700724901EB03
:1051B000800010F8059001E0BDE8F88F4FF0000A7C
:1051C0002FE009F0800030B16C480288314640463B
:1051D000FBF79BFF07E00A9828B969480288314627
:1051E0004046FBF792FF4FEA49604FEA1069701C96
:1051F00086B264484088B04200DCDDE7A6EB0B00D5
:10520000A0420AD15E4608F101001FFA80F85D480D
:105210000088404500DCCFE706E00AF1010000F01D
:10522000FF0ABAF1080FCCDB00BF681CC5B20098BA
:105230008542A5DB00BFBFE710B50246012000E0B4
:1052400050430B1EA1F10104E1B2F9D110BD2DE9CB
:10525000FF4F81B0074691461E460E9D4FF0000A53
:10526000002439E0301B401EC1B20A20FFF7E4FFE2
:10527000B9FBF0F00A21B0FBF1F201FB1208BAF120
:10528000000F16D1701EA04213DDB8F1000F0ED131
:105290000020AB4605EBDB71491001FB0471009067
:1052A00088B22B4620220299FFF73EFF12E04FF012
:1052B000010A0020AB4605EBDB71491001FB0471CC
:1052C000009088B208F13001CAB22B460299FFF76C
:1052D0002BFF00BF601CC4B2B442C3DB05B0BDE805
:1052E000F08F2DE9FF4F82B0064692461F46DDE95A
:1052F0000F480020019000255CE0781B401EC1B2E1
:105300000A20FFF799FFBAFBF0F00A21B0FBF1F297
:1053100001FB1209019840BB781EA84236DDB9F1A5
:10532000000F31D108F0800078B108F00100A346E9
:1053300004EBDB71491001FB0561009088B2234644
:1053400030220399FFF7F0FE0EE008F00100A346BB
:1053500004EBDB71491001FB0561009088B2234624
:1053600020220399FFF7E0FE22E00FE00008006C26
:105370009AC701080ECC0108FED1010816000020D2
:1053800018000020B01B00200120019008F001004F
:10539000A34604EBDB71491001FB0561009088B264
:1053A00009F13001CAB223460399FFF7BDFE00BFE1
:1053B000681CC5B2BD42A0DB06B0BDE8F08F2DE988
:1053C000F84704460D4690469946DDE9096704F022
:1053D000FF0A08EB04001FFA80F809EB05001FFA2A
:1053E00080F916E0444502DB5446A81985B24D45C4
:1053F00000DB14E0002000903A783346294620462E
:10540000FFF792FE304606EBD07104EB61018CB2DF
:105410007F1C38787E2802DC38782028E2DA00BF4A
:10542000BDE8F88708B5684605F0F6FF08BD08B581
:10543000684606F03BF808BD38B504466A460821C0
:1054400020460CF027FB38BD10B5424800780128F3
:1054500005D105F023FF0CF0A9FD05F030FF10BDCC
:1054600010B56FF0040001F020FA3B4800683B499A
:10547000B0FBF1F03A490870374800683749B0FB93
:10548000F1F438480068C910B1FBF0F044433548E6
:1054900000684FF47A71B1FBF0F0334908804FF0A7
:1054A000E020006940F002004FF0E021086108466A
:1054B0004461006940F00100086110BD2DE9F0472A
:1054C000074600264FF0E020D0F8149024480078DA
:1054D00007FB00F800BFFFF7A5FF4FF0E02085694C
:1054E00011E04FF0E0208469AC420CD0AC4202D213
:1054F000281B064403E0A9EB040028440644254683
:10550000464500D300E0ECE700BFFFF790FFBDE8A1
:10551000F08770B504460F480078A0B113480078B2
:1055200088B911480088844206DB0F48008894FB44
:10553000F0F52846FFF780FF0B48008894FBF0F158
:1055400000FB114084B24FF47A7104FB01F0FFF7C5
:10555000B5FF70BD350200200000002000127A0067
:105560001A000020A0E101081C00002034020020E5
:10557000014600BF704700BF4B4A128802F040024C
:10558000002AF9D0C2B2484B1B1D1A80704710B5D3
:1055900086B00446012144F2040000F0CFFE4FF42F
:1055A0000070ADF8140003208DF8160018208DF857
:1055B000170005A93D4800F005FC4FF48060ADF8E8
:1055C000140004208DF8170005A9384800F0FAFBF4
:1055D00025208DF8000003208DF801008DF80200D1
:1055E00001208DF80300684601F015F901940020B0
:1055F000ADF80800ADF80A00ADF80C00ADF81000E9
:105600000C20ADF80E0001A9274800F03EFF012252
:1056100040F22551244800F0D0FF0121224800F03B
:10562000C0FF06B010BD10B505F038FE40F22551A0
:105630001D4801F0A7F810B31B4801F023F8C4B2CD
:105640001B48008800F40040C8B91948008800F4DD
:10565000804060B10A2C03D000201549088020E06A
:105660001348008840F400401149088019E00D2CCF
:1056700006D10F48008840F480400D49088010E0B2
:105680000B480088C0F30D000A490C5408480088F4
:10569000401C0749088008460088C72801DD002013
:1056A000088005F00CFE10BD0038014000080140E4
:1056B00024000020BE1B00200948804709480047FD
:1056C000FEE7FEE7FEE7FEE7FEE7FEE7FEE7FEE7B2
:1056D000FEE7FEE704480549054A064B704700000F
:1056E0006306000831010008F8E80020F8F2002005
:1056F000F8EA0020F8EA002030B943F2DB0281002A
:10570000A1F1C0410A6005E043F2D2028100A1F19B
:10571000C0410A606FF07042411C8900A1F1C04194
:105720000A608100A1F1C041C1F80421704710282E
:105730000AD118214FF020421166402151664FF0E6
:10574000FC319166D16610E01821F74A11604021C2
:105750004FF02042C2F884104FF0FC31F24A083278
:1057600011604FF02042C2F88C1070471820EE49AB
:105770002031086000200906C1F8A4004FF0FC3079
:10578000E94928310860091D0860091D0860704753
:10579000D0E901121143C268114302691143426901
:1057A000114382691143C2691143026A1143426A7B
:1057B0001143826A1143C26A1143026B11430268AA
:1057C0009200A2F1C0421160816808290BD10168E2
:1057D0008900A1F1C041096841F0400201688900D7
:1057E000A1F1C0410A60416B0968426B526841EA0D
:1057F0000211426B926841EA0221426B928941EAAE
:105800000241426B128A41EA0251426B127D41EA27
:105810000261426B926911430268521C9200A2F12C
:10582000C0421160C16AB1F5804F1BD1816B09681C
:10583000826B526841EA0211826B926841EA02214E
:10584000826B128A41EA0251826B127D41EA026147
:10585000826B9269114302689200A2F1C042C2F8C1
:10586000041107E06FF0704201688900A1F1C041A6
:10587000C1F80421704730B500210022002344689C
:1058800044F0080485682C43C5682C4305692C4303
:10589000456944EA4524856944EA4531C469246878
:1058A000C5696D6844EA0524C5692D8944EA054443
:1058B000C5692D7B44EA0562046A2468056A6D683F
:1058C00044EA0524056A2D8944EA0544056A2D7BCE
:1058D00044EA05630468102C05D14FF0204421668A
:1058E000A266E36608E0904C21604FF02044C4F8C3
:1058F00088208D4C0C34236030BD016841F01001CC
:10590000426841EA4221826841EA4231864A2032B5
:105910001160C1680968C268526841EA0221C26820
:10592000128941EA0241C268127B41EA02617E4A61
:1059300028321160016909680269526841EA02214E
:105940000269128941EA02410269127B41EA02615D
:10595000754A2C321160416909684269526841EA0E
:1059600002214269128941EA02414269127B41EAFD
:1059700002614FF02042C2F8B01070470021016070
:105980000221416000218160C1600161416181614A
:10599000C16101624FF4805141624900816200217E
:1059A000C16201630F21426B1160426B5160FF21A4
:1059B000426B91600F21426BD160426B1161426B6F
:1059C00051610021426B91610F21826B1160826BEA
:1059D0005160FF21826B91600F21826BD160826BDD
:1059E0001161826B51610021826B916170471021BE
:1059F0000160002141608160C1600161416181619C
:105A0000FC21C2691160C2695160C2699160C269BA
:105A1000D160026A1160026A5160026A9160026A92
:105A2000D16070470021016041608160FC21C26843
:105A30001160C2685160C2689160C268D160026939
:105A4000116002695160026991600269D160426926
:105A5000116042695160426991604269D16070474A
:105A600051B18200A2F1C042126842F001038200EB
:105A7000A2F1C042136009E08200A2F1C0421268A4
:105A80002A4B1A408300A3F1C0431A60704799B1B2
:105A9000102808D14FF02042126E42F004024FF05D
:105AA00020431A661DE0204A126842F004024FF0BB
:105AB0002043C3F8802014E0102809D14FF0204281
:105AC000126E1A4BDB1E1A404FF020431A6608E094
:105AD000154A1268154BDB1E1A404FF02043C3F8DD
