:020000040800F2
:10000000D80200202D020008310200083302000847
:10001000350200083702000839020008000000001D
:100020000000000000000000000000003B0200088B
:100030003D020008000000003F02000841020008E5
:10004000430200084302000843020008430200087C
:10005000430200084302000843020008430200086C
:10006000430200084302000843020008430200085C
:10007000430200084302000843020008430200084C
:10008000430200084302000843020008430200083C
:10009000430200084302000843020008430200082C
:1000A000430200084302000843020008430200081C
:1000B000430200084302000843020008430200080C
:1000C00043020008430200084302000843020008FC
:1000D00043020008A1070008430200084302000889
:1000E00043020008430200084302000800F002F83F
:1000F00000F03CF80AA090E8000C82448344AAF186
:100100000107DA4501D100F031F8AFF2090EBAE883
:100110000F0013F0010F18BFFB1A43F0010318473B
:10012000740E0000940E0000103A24BF78C878C105
:10013000FAD8520724BF30C830C144BF04680C60ED
:10014000704700000023002400250026103A28BF35
:1001500078C1FBD8520728BF30C148BF0B60704739
:100160001FB500F08AFE1FBD10B510BD00F032FCB7
:100170001146FFF7F5FF00F00BF800F050FC03B458
:10018000FFF7F2FF03BC00F0FDFA000030BF0000F3
:10019000092000F08EFA482000F0FAF800F0A9F8E3
:1001A0003BE0812000F05CF84FF0000406E01B49C2
:1001B000085D00F074F804F10100C4B20C2CF6DB09
:1001C000932000F04DF84FF0000406E01449085D5C
:1001D00000F065F804F10100C4B2042CF6DB8820BD
:1001E00000F03EF84FF0000406E00E49085D00F014
:1001F00056F804F10100C4B2102CF6DB982000F090
:100200002FF84FF0000406E00749085D00F047F8BA
:1002100004F10100C4B20C2CF6DBC2E700000020A0
:100220000C0000201000002020000020084800479B
:10023000FEE7FEE7FEE7FEE7FEE7FEE7FEE7FEE796
:10024000FEE7FEE703480449024A044B70470000FA
:10025000ED000008D8000020D8020020D8000020BF
:1002600010B504464FF00100424908604FF002000B
:1002700008604FF0040008603F4804604FF0010040
:1002800000F09FF84FF004003C4908604FF0010077
:1002900000F097F84FF004003649086010BD10B523
:1002A00004464FF00100354908604FF00200314923
:1002B00008604FF0040008602F4804604FF0010010
:1002C00000F07FF84FF004002C4908604FF0010067
:1002D00000F077F84FF004002649086010BD70B5B3
:1002E00005460C462846FFF7BBFF2046FFF7D7FF21
:1002F00070BD10B52248806940F020002049886117
:100300000846806940F0400088611E4800684FF050
:1003100000001C4908600846006840F0773008601B
:10032000154800684FF6FF7140EA01001249086065
:10033000154800686FF30B00134908600846006811
:1003400040F2777140EA01000F4908600F480068E9
:1003500040F007000D4908604FF4FA7000F031F8E2
:100360003020FFF77DFF0C20FFF77AFF0120FFF719
:1003700077FF10BD141801400C1401401018014003
:100380000010024000140140001801400C18014008
:100390004FF0E021096921F004014FF0E0221161E2
:1003A0004FEAE07200EB52724FEAE202244B1A70FD
:1003B000194609784FF47A7201FB02F1214A118043
:1003C000704701461F4A128801FB02F24FF0E023FA
:1003D0005A614FF000029A614FF001021A6100BFAA
:1003E0004FF0E022106910F0010F02D010F4803FAE
:1003F000F6D04FF000024FF0E0231A619A61704787
:1004000001460F4A127801FB02F24FF0E0235A61D5
:100410004FF000029A614FF001021A6100BF4FF0E5
:10042000E022106910F0010F02D010F4803FF6D0E6
:100430004FF000024FF0E0231A619A61704700000C
:100440002C0000202E000020BB4A01EA020242EAF2
:100450000002BA4B1A60704701464FF0070323EAC7
:1004600001024FEA0222B64B18684FF6FF0300EA7A
:100470000300B44B40EA030040EA0200B04B1860AE
:1004800070472DE9F0478046894614461D462046B0
:100490004FEAE47104EB91714FEAA10A4FEAE4716B
:1004A00004EB91714FEAA101A4EB8101CFB24FF0AF
:1004B000040000EBC700C7B22846FFF7CDFFC5F127
:1004C000040008FA00F64FF00F0040FA05F000EAC9
:1004D000090040EA060606F00F06202C0CDA9A48BE
:1004E00000684FF0010101FA04F140EA01004FF009
:1004F000E021C1F800010DE094480068A4F120015A
:100500004FF0010202FA01F240EA02004FF0E0214E
:10051000C1F804018E4850F82A0006FA07F140EAB3
:1005200001008B4941F82A00BDE8F08770B5044608
:100530000B464FEAE17601EB96764FEAA6004FEACA
:10054000E17601EB96764FEAA606A1EB86064FEA26
:1005500086664FEA16657F4B9B6943F001037D4E2B
:10056000B3614FEAB63353F820304FF00F0606FA66
:1005700005F623EA0603784E46F82030334653F852
:10058000203004FA05F643EA0603734E46F820309D
:10059000724B1E684FF0010303FA01F346EA0306AB
:1005A0006E4B1E6012F0010F09D06D4B1B684FF0AF
:1005B000010606FA01F643EA0603694E336012F0BB
:1005C000020F09D0674B1B684FF0010606FA01F6CF
:1005D00043EA0603634E336070BD00B54FF0000080
:1005E0005C490861C8604FF0140048614FF000009A
:1005F0008861C8610846006840F00100086008464C
:100600004068594900EA01005249486008460068BC
:10061000564900EA01004F4908600846006820F486
:10062000802008600846406820F4FE0048604FF0D3
:100630000000886001464FF00060FFF705FF00BD35
:1006400010B54B48006840F0040049490860414833
:10065000C06940F080503F49C8614648406840F456
:100660008070444948600846006840F00400086013
:100670000846006840F002000860FFF787FD10BDE3
:100680003D482F490860704701464FEA4161314AB1
:10069000926942F001022F4B9A61384A526822F067
:1006A000E062364B5A601A46526842EA01025A60CA
:1006B000704730B504464FF00005FFF78EFF254820
:1006C000006840F480302349086000BF214800687A
:1006D000400CFBD04FF480601E494860A4F102003A
:1006E000C4B20846406840EA844048600846406812
:1006F00040F4803048602248006840F032002049D1
:1007000008601448006840F080701249086000BF1B
:1007100010480068400EFBD00E48406840F00200D0
:100720000C49486005E00B484068C0F3870505F0B8
:100730000305022DF7D130BD80FFFF1F08ED00E05B
:100740000CED00E00000FA0500E100E004E100E04B
:1007500000E400E0001002400800014000040140F5
:100760000C040140080401400000FFF8FFFFF6FE02
:1007700010ED00E0007000400400FA0500000140A8
:1007800000200240014600BF7047C2B2764B1A807B
:1007900000BF754A121F128812F0400FF9D070473F
:1007A0007149091F098811F0200F36D06E49098858
:1007B000C8B26E49097811F0800F2ED16B490978C3
:1007C00011F0400F0DD00A2804D04FF00001674A05
:1007D000117022E06549097841F08001634A117087
:1007E0001BE00D2806D16149097841F040015F4ABC
:1007F000117012E05D49097801F03F015C4A5054E4
:100800005A49097801F10101584A117011460978D5
:100810003F2902DD4FF00001117070472DE9F05FB4
:1008200005460E464FEA061000F04CFA8146514943
:1008300005FB01F000F046FA8246494600F060F9F7
:100840000746384600F01EFA84B2204600F03AFA15
:100850008346394600F01DFB82464FF0834100F08D
:1008600045FA814600F00EFA80464FEA041404EB84
:10087000080084B24048806940F004003E49886125
:100880000846806940F4804088613C483C490860E3
:100890003948C06840F480403749C8600846C0689D
:1008A00020F48040C8603748048000F104000088CC
:1008B00042F20C0140EA01003349088008460088F2
:1008C00040F4807008800846008840F020000880CE
:1008D0004FF002034FF025024FF003010846FFF7E7
:1008E000D0FDBDE8F09F01E0A0F101000028FBD1A0
:1008F000704700BF1C49091F098811F0800FF9D00B
:10090000C0F30801184A1180704700BF1648001F45
:10091000008810F0200FF9D013480088C0F30800B9
:10092000704700B50D20FFF7E4FF0A20FFF7E1FF55
:1009300000BD70B50546284600F029F8A0F1010673
:100940004FF0000404E0285DFFF7D3FF04F1010439
:10095000B442F8DB285D0A2802D1FFF7E2FF02E08B
:10096000285DFFF7C6FF70BD04380140300000204D
:100970003800002040420F0000100240B4444444BC
:1009800004080140083801400C380140704710B598
:10099000431C02E010F8011B71B18107FAD14FF03E
:1009A000013202C88C1A8C4314EAC211F9D0C01A61
:1009B0000A0603D0C01E10BDC01A10BD0A0401D023
:1009C000801E10BD0902FCD0401E10BD704770474C
:1009D00070477047754600F029F8AE460500694635
:1009E000534620F00700854618B020B5FFF72AFCD3
:1009F000BDE820404FF000064FF000074FF0000820
:100A00004FF0000B21F00701AC46ACE8C009ACE8A0
:100A1000C009ACE8C009ACE8C0098D46704704467F
:100A2000AFF300802046FFF7AAFB000000487047A4
:100A300078000020004870477C00002090EA010FF9
:100A400048BF81F0004100F13682421A3CBF801A53
:100A500089184FEAD0524FF07F4C1CEA410FA2EBAD
:100A6000D15318BF9CEA026F00F03B804FF0004C5E
:100A70004CEA00204CEA012121FA03FC10EB0C0C9B
:100A80001ED202F1FF325FEA1C2040EBC25038BF99
:100A900070471CF07F0F4FEA400C18BFBCF17F4F2E
:100AA00038BF7047C3F12003994008BF20F0010010
:100AB000BCF17F4F38BF7047A0F1C04000F0E4B9EF
:100AC0004FEA3C00000A40EBC25028BF1CF0FF0F69
:100AD0004FEA400CE6D018BFBCF17F4F38BF7047DB
:100AE000EAE79CEA026F05D010EA5C0F08BF00F04D
:100AF0000040704710B500F07AF900BF64FBBE3EBD
:100B00004FF47F0C1CEAD0121EBF1CEAD11392EAEC
:100B10000C0F93EA0C0F00F0858090EA010F48BF9C
:100B200042F4807240F4000C41F400002CF07F414C
:100B300020F07F4000B58142A2EB03020FF2081CB7
:100B4000ACEB504EC0F100009EF800E04FEA4E0EB4
:100B500000FB0EFC38BF49004FEA2C1C02F5FA02DC
:100B60000CFB0EF34FEACE1E4FEA112C4FEAC121C7
:100B70000EEB635E42EB22420EFB0CFC4FEA1C5371
:100B800000FB03114FEA112C4FEA01310EFB0CFC64
:100B90004FEADC4C00FB0C11C14228BF09184CEB9A
:100BA00003335DF804EB10EB410143EBC250B2F5A7
:100BB0007C0F38BF704729D512F0F00F1CBF00F131
:100BC000C04000F0004070470081828384858687A2
:100BD00088898B8C8D8E8F919293959697999A9CFC
:100BE0009D9FA0A2A3A5A7A8AAACAEB0B2B3B5B76B
:100BF000B9BCBEC0C2C5C7C9CCCED1D4D7D9DCDF41
:100C0000E2E6E9ECF0F3F7FAFE0000004FEA400CF0
:100C10000CF1807CBCF17E4F28BF7047B0F1C04022
:100C200000F032B990EA010F0CEAD11348BF42F448
:100C30008072624538BF634507D213F47F0F16D028
:100C400080EA010000F00040704710B500F0CFF8D6
:100C5000097EFC3E00F005B880EA010000F000408B
:100C6000704780EA010000F0004000F00DB912F476
:100C70007F0F04BF0248704780EA010000F004B90A
:100C80000000C07FC10DD1F19E0206DB4FEA0023B8
:100C900043F0004323FA02F07047004207D54FEAC1
:100CA0004001B1F1FE4F02D24FF00000704710B585
:100CB00000F09DF849922480002070476FEA2000E0
:100CC00070470000B0FA80F310FA03F2C3F19D03FD
:100CD0000AD0D90501EB1220530638BF704700F146
:100CE000010008BF20F00100704700004FF47F0CA6
:100CF0001CEAD0121EBF1CEAD11392EA0C0F93EA31
:100D00000C0F00F0478090EA010F48BF42F4807258
:100D10004FF0004C4CEA00204CEA012102EB0302A8
:100D2000A0FB0113A2F50002002918BF43F0010344
:100D30005B0028BF4FEA330342EB22425FEA132CE9
:100D40004CEBC2502EBFBCEB436FB2F57C0F70472B
:100D50004FEA036CBCF1004F08BF20F00100B2F570
:100D60007C0F38BF70470BD582F0FF0212F5803F31
:100D7000C8BF704700F1C040D8BF00F000407047C6
:100D800000F5000C5FEA4C0C48BF7047B0F1C04062
:100D900000F07AB890EA010F0CEAD11348BF42F490
:100DA0008072624538BF634504D280EA010000F0DA
:100DB0000040704710B500F01AF800BF8900013EEE
:100DC00000F007B800F009B85FEA410C5FEA1C6C5C
:100DD00008D080EA010000F057B85FEA400C5FEAF3
:100DE0001C6CF6D14FF00040A0F5800070470EF16A
:100DF000020E2EF0030E5EF8044B244204D44FEA98
:100E00004102B2F17F4F11D84FEA4003B3F17F4F57
:100E10000CD80ED14FEAD07CB2F17F4F0CEB4C0CCA
:100E20000CF1020C08BF4CEBD17C04E04FF0080C35
:100E300001E04FEAD17C0CEB4C0324FA03F404F0FC
:100E40000704B4F1040C06D20EEB840CBDE810408C
:100E50004CF0010C6047DFE80CF0070802024FF08D
:100E60000040A0F5800010BD0846420018BFD2F136
:100E7000807288BF00F0004010BD10B5FFF7DAFDAA
:100E80004FF00001016010BDFF2141EAD050C005C4
:100E9000704780F0004090EA010F7FF5D6AD81F0F9
:100EA000004100F008B8000090EA010F48BF81F04F
:100EB00000413FF5CAAD421A04D882F00042A0EBCF
:100EC000020011444FEAD0524FF07F4C1CEA410F10
:100ED000A2EBD15318BF9CEA026F4AD04FF0004CEE
:100EE0004CEA00204CEA012121FA03FCB0EB0C0C87
:100EF0000FD412F0FE0F36D05FEA4C001DD5001261
:100F000040EBC25038BF70471CF03F0F18BF70470E
:100F10000BE0A2F101025FEA1C2040EBC25038BF97
:100F200070471CF07F0F18BF7047C3F12003994032
:100F300014BF401E20F00100704780084FEA1223C2
:100F400008BF7047B0FA80FCA2EB0C02CCF1280C71
:100F500060FA0CF093EA122F04BF00EBC250704706
:100F60004FEAC3707047130A5FEADC1008BF70478E
:100F7000F6E79CEA026F04D010EA5C0F08BF00207D
:100F8000704710B5FFF733FF40DFF63E81F00040B9
:100F900070470000B40F0008000000203800000077
:100FA00028010008EC0F000838000020A002000013
:100FB00044010008CDFEBAA3D6B0D2B5D1A7D4BAA9
:100FC00044353435D1A7BAC53A32303135303230B4
:100FD00033303339D0D5C3FBA3BAC1F5B0B2C0A406
:0C0FE00000000000000000000000000005
:040000050800022DC0
:00000001FF
