:020000040800F2
:10000000A0280020D1010008C92D000851090008CE
:10001000512D000841050008B37C000800000000D5
:100020000000000000000000000000005D780008F3
:10003000A107000800000000CF0400087179000843
:10004000EB010008EB010008EB010008EB010008E0
:10005000EB010008EB010008EB010008EB010008D0
:10006000EB010008EB010008EB010008EB010008C0
:10007000EB010008EB010008EB010008EB010008B0
:10008000EB010008EB010008EB010008EB010008A0
:10009000EB010008EB010008EB010008EB01000890
:1000A000EB010008EB010008EB010008EB01000880
:1000B000EB010008EB010008EB010008EB01000870
:1000C000EB010008EB010008EB010008EB01000860
:1000D000EB010008ED790008EB010008EB010008D6
:1000E000EB010008EB010008EB01000800F002F84A
:1000F00000F05FF80AA090E8000C82448344AAF163
:100100000107DA4501D100F054F8AFF2090EBAE860
:100110000F0013F0010F18BFFB1A43F0010318473B
:10012000E08F0000009000000A444FF0000C10F82F
:10013000013B13F0070408BF10F8014B1D1108BF65
:1001400010F8015B641E05D010F8016B641E01F805
:10015000016BF9D113F0080F1EBF10F8014BAD1C55
:100160000C1B09D16D1E58BF01F801CBFAD505E073
:1001700014F8016B01F8016B6D1EF9D59142D6D3CD
:10018000704700000023002400250026103A28BFF5
:1001900078C1FBD8520728BF30C148BF0B607047F9
:1001A000782900F09180002070471FB51FBD10B561
:1001B00010BD00F041F91146FFF7F7FF07F02CFEE4
:1001C00000F05FF903B4FFF7F2FF03BC07F073FD23
:1001D0000948804709480047FEE7FEE7FEE7FEE7DB
:1001E000FEE7FEE7FEE7FEE7FEE7FEE70448054917
:1001F000054A064B704700008D790008ED000008A5
:10020000A0220020A0280020A0240020A02400205C
:1002100072B6704762B67047EFF3108072B67047DF
:1002200080F31088704730BF704720BF7047B0FA26
:1002300080F0704790FAA0F0B0FA80F0704790FA22
:10024000A0F07047704700000FB4044910B503AA2E
:10025000029800F0C3F810BC5DF814FB5C000020AD
:100260002DE9F0410E460446002020622046E16858
:10027000884730B3252805D0D4E901219047206A6A
:10028000401CF2E7E168204600278847050018D0A7
:10029000A5F14100192802D820354FF400673246F5
:1002A000294620462760FFF77BFF40B1012804D094
:1002B000F61D26F007060836D8E7361DD6E728468D
:1002C000DAE7206ABDE8F08170B504460D462146A4
:1002D0001068AFF300802188090502D50F4A7A44DF
:1002E00002E00E4A7A440E32002104F1240305E0B4
:1002F00000F00F060009965D5E54491C0028F7D1F6
:1003000020780023000704D5702D02D009B1022304
:1003100011322046BDE8704000F006B8F68D0000AE
:1003200070477047704770472DE9F0470D46994672
:100330009246044600F124080168880604D5E06965
:1003400021F01001216000E00120A84201DD471BDF
:1003500000E00027A1697A1902EB0900081AA061E0
:100360002078C00602D42046AFF30080002608E0C3
:10037000D4E901211AF806009047206A401C761C37
:1003800020624E45F4DB2078C0060AD52046AFF344
:10039000008006E0D4E9012130209047206A401C0B
:1003A0002062381EA7F10107F4DC07E0D4E901213F
:1003B00018F805009047206A401C2062281EA5F10D
:1003C0000105F3DC2046AFF300802078000602D55B
:1003D0000220BDE8F0870120FBE70000074B70B565
:1003E0000D467B4400F011F80446284600F020F842
:1003F00010B14FF0FF3070BD204670BD177A00007D
:1004000001694A1C02610878704700B58FB0CDE9D8
:1004100001310021059105497944CDE903101146C8
:100420006846FFF71DFF0FB000BD0000E5FFFFFFAE
:10043000007B00F080007047754600F029F8AE465A
:1004400005006946534620F00700854618B020B5E0
:10045000FFF7CCFEBDE820404FF000064FF000074C
:100460004FF000084FF0000B21F00701AC46ACE85C
:10047000C009ACE8C009ACE8C009ACE8C0098D46C9
:1004800070470446AFF300802046FFF79BFE000054
:1004900000487047402200201D484FF6FF71017050
:1004A000002080F309881B48016881F308881A48F6
:1004B0004FF08051016062B6FEE717484FF080515F
:1004C0000160704714484FF080510160704772B668
:1004D000EFF3098028B1203880E8F00F0F49096850
:1004E000086000B50E4880475DF804EB0D480E49E2
:1004F0000A78027009480D490A680260106890E89D
:10050000F00F203080F309884EF0040E62B6704779
:1005100022ED00E06801002004ED00E06001002011
:1005200011400008EE000020EF00002064010020D0
:1005300000B585B0684607F027F9019805B000BD01
:1005400000BFFEE710B500F0FBF800F003F800F084
:10055000F3F810BD70B5002600201849088018492E
:100560000880184908601849086018490860184947
:10057000086018490860002400BFFFF74DFE0646DA
:1005800000BF00250BE000201049086000F074F85F
:1005900000F08CF80D4800680444681C85B2002DFA
:1005A000F1D00C4804600020084908600849086040
:1005B00000BF3046FFF734FE00BF70BD7C00002056
:1005C0007E00002080000020840000208C0000209D
:1005D000900000208800002001460846044A126866
:1005E000904203D9024A1268801A00E00020704746
:1005F0008800002070B5002500BFFFF70DFE0546FE
:1006000000BF0648046800BF2846FFF709FE00BF88
:100610002046FFF7E1FF0646304670BD8C00002003
:1006200070B50025FFF7E6FF044600BFFFF7F4FDB5
:10063000054600BF00200449086000BF2846FFF7B8
:10064000EFFD00BF204670BD8C00002070B5002576
:1006500000BFFFF7E1FD054600BF0648046800BF84
:100660002846FFF7DDFD00BF2046FFF7B5FF064631
:10067000304670BD9000002010B509480088401C2D
:10068000074908800748008818B900F083F8064930
:10069000086004480088401C0249088010BD000022
:1006A0007C0000207E0000208000002010B50F4854
:1006B0000088401E0D49088008460088A0B900F057
:1006C00069F80B490860084600680A490968441A35
:1006D00009480068A04201D2074804600748006842
:1006E000A04201D20548046010BD00007E00002039
:1006F00084000020800000208C000020900000205A
:1007000010B5002400BF00BFFFF786FD044600BF00
:10071000FFF7B2FF00BF1021064802F01BFB00BF2D
:10072000FFF7C4FF00BF2046FFF77AFD00BF00BF00
:1007300010BD00002C08002010B5FFF7E1FF10BD30
:1007400010B500200249086000F00AF810BD000052
:100750007800002001490860704700007800002000
:1007600010B5FFF7E5FE04460848006840F08070C9
:10077000064908600020064948600846006840F0C5
:10078000010008602046FFF7E5FF10BDFCED00E02A
:10079000001000E00149486870470000001000E0C8
:1007A00070472DE9F0410246002500260020002375
:1007B0000024002791F803C00CF00F0591F803C046
:1007C0000CF0100CBCF1000F03D091F802C04CEA01
:1007D000050591F800C0BCF1000F31D0146800206D
:1007E0002BE04FF0010C0CFA00F3B1F800C00CEA5A
:1007F00003069E4220D183004FF00F0C0CFA03F742
:10080000BC4305FA03FC4CEA040491F803C0BCF1B4
:10081000280F06D14FF0010C0CFA00FCC2F814C0EE
:100820000AE091F803C0BCF1480F05D14FF0010C6C
:100830000CFA00FCC2F810C0401C0828D1D3146088
:10084000B1F800C0BCF1FF0F34DD546800202EE089
:1008500000F1080C4FF0010808FA0CF3B1F800C0E1
:100860000CEA03069E4221D183004FF00F0C0CFAD4
:1008700003F7BC4305FA03FC4CEA040491F803C0F7
:10088000BCF1280F05D100F1080C08FA0CF8C2F8E9
:10089000148091F803C0BCF1480F07D100F1080C97
:1008A0004FF0010808FA0CF8C2F81080401C082824
:1008B000CED35460BDE8F081F0B50A460023002491
:1008C0000021002500F00046B6F1004F02D11D4E78
:1008D000F16901E01B4E7168C0F3034583B200F477
:1008E0004016B6F5401F08D121F07061154E7668AC
:1008F00026F07066134F7E6012E000F48016B6F5A5
:10090000801F06D1032606FA05F4A14341F0706169
:1009100006E0460D360103FA06F6B14341F0706178
:1009200022B1460D360103FA06F6314300F00046C7
:10093000B6F1004F02D1034EF16101E0014E71604A
:10094000F0BD000000000140416170470161704747
:1009500000BFFEE708B50121042006F0F5FE4FF4C4
:100960002040ADF8000048208DF8030069460B4890
:10097000FFF717FF4FF420410848FFF7E7FF01207A
:10098000ADF8000028208DF8030069460348FFF702
:1009900008FF01210148FFF7D7FF08BD000801400B
:1009A00010B501212648FFF787FF2648007878B365
:1009B0002548006840B124480830006820B122482A
:1009C00034380068012824D10A2007F0AFF900204C
:1009D0001C4908701C48006828B901211B48FFF712
:1009E0006BFF012010BD18480830006828B90121AC
:1009F0001648FFF761FF0220F4E713483438006817
:100A0000012816D101211148FFF756FF0320E9E71D
:100A1000FFE70D48006801280BD10B48083000683B
:100A2000012806D108483438006810B9012005496A
:100A3000087001210548FFF73FFF0020D2E70000C2
:100A40000004300050000020340121420002300038
:100A500070B5044600250021084601F0A9FF02F008
:100A60001BF900BF0DE04FF4807008490861400099
:100A7000486107480460802048610861800008617F
:100A80006D1CB5F5963FEED370BD0000001001401F
:100A90000C0C01402DE9FF4F85B081468A460020AD
:100AA000049003900798A0EB09050898A0EB0A06AC
:100AB000CDF80890CDF804A0002D01DD012705E058
:100AC0000DB9002702E04FF0FF376D42002E02DD26
:100AD0004FF0010806E016B94FF0000802E04FF0B1
:100AE000FF387642B54201DD2C4600E034464FF037
:100AF000000B21E0019A91B2029A90B200F022F824
:100B00000498284404900398304403900498A04229
:100B100005DD0498001B0490029838440290039865
:100B2000A04205DD0398001B03900198404401900A
:100B30000BF101001FFA80FB601C8345DADD09B070
:100B4000BDE8F08F70B504460D462946204601F0F9
:100B50002FFF02F0A1F84FF48070074908614000B0
:100B600048610648008806490860802002494861BB
:100B700008618000086170BD001001405200002033
:100B80000C0C01402DE9F04104460D4616461F4667
:100B90002B46324629462046FFF77CFF3B4622463D
:100BA00029462046FFF776FF3B4632463946204627
:100BB000FFF770FF3B46324629463046FFF76AFF93
:100BC000BDE8F0812DE9F04706460F46904699466C
:100BD000DDF820A0002001F093FD34461BE03D46E7
:100BE00015E02946204601F0E3FE02F055F84FF4E7
:100BF00080700C490861400048610B48C0F800A0B3
:100C000080204861086180000861681C85B24D45FC
:100C1000E7DB601C84B24445E1DB002001F070FD9D
:100C2000BDE8F087001001400C0C014008B501211F
:100C3000192006F089FD0121FE48FFF73DFE4FF423
:100C4000F860ADF8000010208DF8030003208DF847
:100C500002006946F848FFF7A4FD4FF4F861F64832
:100C6000FFF774FE4FF6FF70ADF800006946F348D9
:100C7000FFF797FD4FF6FF71F048FFF767FE322050
:100C800007F054F80121002002F018F8322007F094
:100C90004DF8002001F02CFDE94908800846008845
:100CA00028B1084600884FF6FF7188421BD1D32037
:100CB00001F0E0FF01F0E4FC01F0E2FC01F0E0FCF7
:100CC00000F0BF00DE490880084600884FF6FF713B
:100CD00001EA0020DA49088001F0D2FCD8490988ED
:100CE0000843D7490880D6480188D6A0FFF7ACFA58
:100CF000D348008849F2413188427DD1CF2001F0AC
:100D0000B9FF4FF48070CC49086140004861002071
:100D1000CA490C3108608020C749486108618000D9
:100D200008614010086140004861C120C3490C318E
:100D300008608020C0494861086180000861401057
:100D40000861400048613020BC490C3108608020B7
:100D5000B9494861086180000861ED2001F08AFF0F
:100D60004FF48070B4490861400048616420B34981
:100D70000C3108608020B04948610861800008613A
:100D800040100861400048610320AC490C31086004
:100D90008020A9494861086180000861401008610D
:100DA000400048611220A5490C3108608020A2490A
:100DB0004861086180000861401008614000486196
:100DC00081209E490C31086080209B494861086160
:100DD00080000861E82001F04DFF4FF480709649D3
:100DE000086140004861852094490C3108608020EA
:100DF00091494861086100E0A1E38000086140106A
:100E000008614000486110208C490C310860802046
:100E1000894948610861800008614010086140000C
:100E200048617A2085490C310860802082494861F8
:100E3000086180000861CB2001F01CFF4FF4807036
:100E40007D4908614000486139207C490C310860C7
:100E5000802079494861086180000861401008617C
:100E6000400048612C2075490C310860802072498F
:100E700048610861800008614010086140004861D5
:100E800000206E490C31086080206B494861086180
:100E900080000861401008614000486134206749C3
:100EA0000C31086080206449486108618000086155
:100EB0004010086140004861022060490C31086020
:100EC00080205D494861086180000861F72001F0D9
:100ED000D1FE4FF4807058490861400048612020DD
:100EE00056490C31086080205349486108618000F0
:100EF0000861EA2001F0BEFE4FF480704E4908619F
:100F00004000486100204D490C31086080204A496A
:100F10004861086180000861401008614000486134
:100F2000002046490C31086080204349486108612F
:100F300080000861C02001F09DFE4FF480703E49A2
:100F40000861400048611B203C490C31086080204A
:100F500039494861086180000861C12001F08AFEBA
:100F60004FF48070344908614000486101203349E2
:100F70000C310860802030494861086180000861B8
:100F8000C52001F077FE4FF480702B4908614000C6
:100F90004861302029490C31086080202649486189
:100FA00008618000086140100861400048613020FD
:100FB00022490C31086080201F4948610861800087
:100FC0000861C72001F056FE4FF480701A4908618D
:100FD00040004861B72019490C310860802016494B
:100FE0004861086180000861362001F043FE4FF43B
:100FF0008070114908614000486148200F490C3158
:10100000086080200C4948610861800008613A202E
:1010100001F030FE4FF480700749086140004861DC
:10102000552006490C310860802003494861086159
:1010300080000FE00002300000100140000C014071
:1010400056000020204C43442049443A25780D0A9C
:10105000000000000861B12001F00CFE4FF4807028
:10106000FE490861400048610020FD490860802079
:10107000FA49486108618000086140100861400039
:1010800048611A20F64908608020F44948610861E7
:1010900080000861B62001F0EDFD4FF48070EF494B
:1010A0000861400048610A20ED4908608020EB4952
:1010B0004861086180000861401008614000486193
:1010C000A220E74908608020E44948610861800067
:1010D0000861F22001F0CEFD4FF48070DF49086115
:1010E000400048610020DE4908608020DB494861FB
:1010F000086180000861262001F0BCFD4FF480707B
:10110000D6490861400048610120D5490860802027
:10111000D2494861086180000861E02001F0AAFD21
:101120004FF48070CD490861400048610F20CC49E0
:1011300008608020C949486108618000086140104A
:101140000861400048612A20C54908608020C349E1
:1011500048610861800008614010086140004861F2
:101160002820BF4908608020BC4948610861800090
:10117000086140100861400048610820B8490860D3
:101180008020B6494861086180000861401008610C
:10119000400048610E20B24908608020AF49486194
:1011A0000861800008614010086140004861082023
:1011B000AB4908608020A949486108618000086146
:1011C00040100861400048615420A5490860802013
:1011D000A249486108618000086140100861400030
:1011E0004861A9209E49086080209C4948610861A7
:1011F0008000086140100861400048614320984920
:1012000008608020954948610861800008614010AD
:101210000861400048610A209149086080208F4998
:101220004861086180000861401008614000486121
:101230000F208B4908608020884948610861800040
:10124000086140100861400048610020844908603E
:10125000802082494861086180000861401008616F
:101260004000486100207E49086080207B49486139
:10127000086180000861401008614000486100205A
:1012800077490860802075494861086180000861DD
:1012900040100861400048610020714908608020CA
:1012A0006E494861086180000861E12001F0E2FCBC
:1012B0004FF4807069490861400048610020684926
:1012C000086080206549486108618000086140101D
:1012D00008614000486115206149086080205F492D
:1012E0004861086180000861401008614000486161
:1012F00017205B49086080205849486108618000D8
:1013000008614010086140004861072054490860A6
:1013100080205249486108618000086140100861DE
:101320004000486111204E49086080204B494861C7
:101330000861800008614010086140004861062093
:10134000474908608020454948610861800008617C
:1013500040100861400048612B204149086080200E
:101360003E49486108618000086140100861400002
:10137000486156203A490860802038494861086130
:101380008000086140100861400048613C203449F9
:101390000860802031494861086180000861401080
:1013A00008614000486105202D49086080202B49D4
:1013B0004861086180000861401008614000486190
:1013C0001020274908608020244948610861800076
:1013D000086140100861400048610F202049086002
:1013E00080201E4948610861800008614010086142
:1013F000400048613F201A49086080201749486131
:1014000008618000086140100861400048613F2089
:101410001349086080201149486108618000086113
:1014200040100861400048610F200D49086080208D
:101430000A4948610861800008612B2001F01AFC0C
:101440004FF480700549086140004861002004495C
:101450000860802001494861086103E000100140F4
:101460000C0C014080000861401008614000486198
:101470000020FE4908608020FD4948610861800025
:10148000086140100861400048610120F749086088
:101490008020F749486108618000086140100861B8
:1014A000400048613F20F14908608020F0494861D0
:1014B0000861800008612A2001F0DCFB4FF4807095
:1014C000EB490861400048610020E849086080203D
:1014D000E7494861086180000861401008614000E8
:1014E00048610020E14908608020E14948610861C5
:1014F0008000086140100861400048610020DB491D
:1015000008608020DA494861086180000861401065
:10151000086140004861EF20D44908608020D44928
:101520004861086180000861112001F0A3FB782068
:1015300006F0FCFB292001F09DFB01F092B8CD489C
:10154000008849F2253188427ED147F6F001E52036
:1015500001F0B4FB4FF48071012001F0AFFB4FF4B8
:10156000E061022001F0AAFB41F23001032001F00A
:10157000A5FB0021042001F0A1FB40F2022108207C
:1015800001F09CFB0021092001F098FB00210A20BA
:1015900001F094FB00210C2001F090FB00210D20B4
:1015A00001F08CFB00210F2001F088FB00211020AE
:1015B00001F084FB0721112001F080FB00211220A3
:1015C00001F07CFB0021132001F078FB00210720B3
:1015D00001F074FB41F29061102001F06FFB40F2CA
:1015E0002721112001F06AFB9D21122001F066FBEA
:1015F0004FF4C851132001F061FB2521292001F08F
:101600005DFB0D212B2001F059FB0721302001F05B
:1016100055FB40F20331312001F050FB0321322011
:1016200001F04CFB40F20621352001F047FB082178
:10163000362001F043FB40F20641372001F03EFB2B
:101640004FF44171382000E057E001F037FB0721EB
:10165000392001F033FB40F202613C2001F02EFB07
:1016600008213D2001F02AFB0021502001F026FB3B
:10167000EF21512001F022FB0021522001F01EFB3E
:1016800040F23F11532001F019FB4FF42741602035
:1016900001F014FB0121612001F010FB00216A2000
:1016A00001F00CFB0021802001F008FB00218120CB
:1016B00001F004FB0021822001F000FB00218320C7
:1016C00001F0FCFA0021842001F0F8FA00218520C5
:1016D00001F0F4FA1021902001F0F0FA4FF4C0610B
:1016E000922001F0EBFA40F23311072001F0E6FA04
:1016F0002221002001F0E2FA1FE75E48008849F24B
:10170000283188427ED11021E72001F0D7FA01214B
:10171000002001F0D3FA4FF48071012001F0CEFADD
:101720004FF4E061022001F0C9FA41F230010320D8
:1017300001F0C4FA0021042001F0C0FA40F20721B0
:10174000082001F0BBFA0021092001F0B7FA0021BE
:101750000A2001F0B3FA01210C2001F0AFFA0021B8
:101760000D2001F0ABFA00210F2001F0A7FA0021B3
:10177000102001F0A3FA0721112001F09FFA0021A7
:10178000122001F09BFA0021132001F097FA322079
:1017900006F0CCFA41F29051102001F08FFA40F29D
:1017A0002721112001F08AFA322006F0BFFA9C218D
:1017B000122001F083FA322006F0B8FA4FF4C85133
:1017C000132001F07BFA2321292001F077FA0E2162
:1017D0002B2001F073FA322006F0A8FA0021202015
:1017E00001F06CFA40F23F11212001F067FA32203B
:1017F00006F09CFA0721302001F060FA40F20771F0
:10180000312000E08DE001F059FA0621322001F08C
:1018100055FA40F20471352001F050FA41F6047196
:10182000362001F04BFA0421372001F047FA00215D
:10183000382001F043FA40F20671392001F03EFAF7
:1018400040F201713C2001F039FA0F213D2001F0F6
:1018500035FA322006F06AFA0021502001F02EFA03
:10186000EF21512001F02AFA002105E00C0C014083
:101870000010014056000020522001F01FFA40F2F3
:101880003F11532001F01AFA4FF42741602001F074
:1018900015FA0121612001F011FA00216A2001F0FE
:1018A0000DFA0021802001F009FA0021812001F0C9
:1018B00005FA0021822001F001FA0021832001F0C5
:1018C000FDF90021842001F0F9F90021852001F0C3
:1018D000F5F91021902001F0F1F90021922001F09A
:1018E000EDF90321932001F0E9F94FF48871952077
:1018F00001F0E4F90021972001F0E0F9002198209F
:1019000001F0DCF940F23311072001F0D7F9002192
:10191000202001F0D3F940F23F11212001F0CEF94F
:101920000BE6FE48008849F22031884204D0FB488B
:101930000088B0F5134F7DD10021084601F0BEF9B3
:101940004FF48071012001F0B9F94FF4E0610220F9
:1019500001F0B4F941F23001032001F0AFF90021A8
:10196000042001F0ABF940F20221082001F0A6F9B1
:101970000021092001F0A2F900210A2001F09EF9BE
:1019800001210C2001F09AF900210D2001F096F9B7
:1019900000210F2001F092F9322006F0C7F940F241
:1019A0000111072001F08AF9322006F0BFF94FF447
:1019B0008651102001F082F90721112001F07EF9F3
:1019C0004FF48871122001F079F94FF4306113203F
:1019D00001F074F90021292001F070F944F210019E
:1019E0002B2001F06BF90021502001F067F9EF2165
:1019F000512001F063F90021522001F05FF940F21B
:101A00003F11532001F05AF94FF41C51602001F0AE
:101A100055F90121612001F051F900216A2001F0FE
:101A20004DF90021802001F049F90021812001F0C9
:101A300045F900E02EE00021822001F03FF900216D
:101A4000832001F03BF90021842001F037F90021C7
:101A5000852001F033F91021902001F02FF90021A9
:101A6000922001F02BF90121932001F027F94FF486
:101A70008871952001F022F90021972001F01EF9CC
:101A80000021982001F01AF940F27311072001F0AB
:101A900015F952E5A148008845F2084188427DD1F8
:101AA0004FF48071012001F009F94FF4E061022048
:101AB00001F004F941F23001032001F0FFF80021A8
:101AC000042001F0FBF840F20721082001F0F6F8AD
:101AD0000021092001F0F2F800210A2001F0EEF8BF
:101AE00000210C2001F0EAF800210D2001F0E6F8B9
:101AF00000210F2001F0E2F8142006F017F941F25E
:101B0000B061102001F0DAF80121112001F0D6F8BF
:101B10000121172001F0D2F84FF49C71122001F03E
:101B2000CDF84FF40061132001F0C8F809212920F5
:101B300001F0C4F809212A2001F0C0F80021A420F6
:101B400001F0BCF80021502001F0B8F8EF2151203D
:101B500001F0B4F80021522001F0B0F840F23F113A
:101B6000532001F0ABF84FF41C51602001F0A6F8AF
:101B70000121612001F0A2F800216A2001F09EF805
:101B80000021802001F09AF80021812001F096F8D0
:101B90000021822001F092F8002100E024E083205F
:101BA00001F08CF80021842001F088F800218520C4
:101BB00001F084F81321902001F080F80021922098
:101BC00001F07CF80321932001F078F84FF488713C
:101BD000952001F073F840F27311072001F06EF8C0
:101BE000322006F0A3F8A8E44C48008841F20551E1
:101BF00088427DD10021072001F060F8322006F0F4
:101C000095F84FF48E71122001F058F80121A420AC
:101C100001F054F80F21082001F050F808210A20A3
:101C200001F04CF808210D2001F048F840F207714E
:101C3000302001F043F80721312001F03FF840F255
:101C40000361322001F03AF84FF4E061332001F0F3
:101C500035F840F20221342001F030F8022135201D
:101C600001F02CF841F60F71362001F027F840F210
:101C70000771372001F022F80021382001F01EF80A
:101C80000021392001F01AF840F207713A2001F0E2
:101C900015F800213B2001F011F807213C2001F04C
:101CA0000DF800213D2001F009F8322006F03EF841
:101CB0000121072001F002F80121172000F0FEFFAA
:101CC000322006F033F84FF4BD51102000F0F6FF3B
:101CD00040F21721112000F0F1FF4FF48F71122014
:101CE00000F0ECFF4FF47061132000F0E7FF00E01C
:101CF00099E000212A2000F0E1FF0A21292000F0CC
:101D0000DDFF4FF49F71122000F0D8FF002150201A
:101D100000F0D4FFEF21512002E000005600002027
:101D200000F0CCFF0021522000F0C8FF40F23F112C
:101D3000532000F0C3FF4FF41C51602000F0BEFFA1
:101D40000121612000F0BAFF00216A2000F0B6FFF7
:101D50000021802000F0B2FF0021812000F0AEFFC2
:101D60000021822000F0AAFF0021832000F0A6FFBE
:101D70000021842000F0A2FF0021852000F09EFFBA
:101D80001321902000F09AFF4FF44071922000F050
:101D900095FF0521932000F091FF0021952000F090
:101DA0008DFF0021972000F089FF0021982000F08E
:101DB00085FF4FF48071012000F080FF4FF4E06157
:101DC000022000F07BFF41F23001032000F076FF9B
:101DD0000021042000F072FF00210C2000F06EFFB3
:101DE00000210F2000F06AFF0021202000F066FF94
:101DF0000021212000F062FF2121072000F05EFF7A
:101E0000142005F093FF6121072000F057FF1420F4
:101E100005F08CFF40F27311072000F04FFF1420F3
:101E200005F084FF68E4FE4800884BF205518842C3
:101E30007ED10021084600F041FF0021084600F055
:101E40003DFF0021084600F039FF0021084600F060
:101E500035FF0121A42000F031FF142005F066FFBA
:101E60004FF41C51602000F029FF40F202210820AD
:101E700000F024FF4FF40571302000F01FFF43F203
:101E80001571312000F01AFF40F20461322000F099
:101E900015FF40F61661332000F010FF42F21121C9
:101EA000342000F00BFF4FF4A851352000F006FF5E
:101EB00048F20751362000F001FF41F20741372078
:101EC00000F0FCFE41F20341382000F0F7FE202133
:101ED000392000F0F3FE1A21902000F0EFFE0021DF
:101EE000102000F0EBFE0721112000F0E7FE00219A
:101EF000122000F0E3FE0021132000F0DFFE14208A
:101F000005F014FF4FF4E661102000F0D7FE40F218
:101F10003711112000F0D2FE142005F007FF4FF416
:101F2000DC71122000F0CAFE142005F0FFFE00E074
:101F300083E04FF47061132000F0C0FE80212A205E
:101F400000F0BCFE4821292000F0B8FE142005F066
:101F5000EDFE4FF48071012000F0B0FE4FF4E0611F
:101F6000022000F0ABFE41F23021032000F0A6FE7B
:101F700040F20221082000F0A1FE00210A2000F01A
:101F80009DFE00210C2000F099FE00210D2000F0A4
:101F900095FE30210E2000F091FE0021502000F02F
:101FA0008DFEEF21512000F089FE0021522000F02B
:101FB00085FE40F23F11532000F080FE4FF41C518B
:101FC000602000F07BFE0121612000F077FE0021FF
:101FD0006A2000F073FE1121902000F06FFE4FF494
:101FE000C061922000F06AFE40F20241932000F0AE
:101FF00065FE0221942000F061FE142005F096FE9B
:102000000121072000F05AFE142005F08FFE612107
:10201000072000F053FE40F27311072000F04EFE3F
:102020000021202000F04AFE0021212000F046FE81
:102030002221002000F042FE13E3794800884CF290
:10204000055188427ED10021084600F037FE00216C
:10205000084600F033FE142005F068FE0021084613
:1020600000F02CFE0021084600F028FE0021084662
:1020700000F024FE0021084600F020FE0121A420EB
:1020800000F01CFE142005F051FE4FF41C5160209E
:1020900000F014FE40F60601082000F00FFE40F2AA
:1020A0000371302000F00AFE0121312000F006FE0D
:1020B0000421322000F002FE4FF48171332000F041
:1020C000FDFD4FF44071342000F0F8FD40F20311A3
:1020D000352000F0F3FD1F21362000F0EFFD40F227
:1020E0000371372000F0EAFD0121382000F0E6FD01
:1020F0000421392000F0E2FD1521902000F0DEFDE2
:102100004FF48261102000F0D9FD40F247211120E8
:1021100000F0D4FD4FF4DE71122000F0CFFD4FF43B
:102120006061132000F0CAFD782005F0FFFD4FF438
:102130008071012000F0C2FD4FF40071022000F018
:10214000BDFD00E050E041F23001032000F0B6FD9B
:1021500008210A2000F0B2FD00210C2000F0AEFDA5
:1021600020210E2000F0AAFD00210F2000F0A6FD86
:102170000021202000F0A2FD0021212000F09EFD82
:102180003D212A2000F09AFD142005F0CFFD2D21DD
:10219000292000F093FD0021502000F08FFD4DF22A
:1021A000EF01512000F08AFD0021522000F086FD51
:1021B00040F23F11532000F081FD0021612000F02A
:1021C0007DFD00216A2000F079FD4FF440719220DE
:1021D00000F074FD0521932000F070FD4FF4807134
:1021E000072000F06BFD3CE20D48008848F689119D
:1021F00088427DD10121002000F060FD4AF6A40153
:10220000032000F05BFD00210C2000F057FD40F69C
:102210000C010D2000F052FD4FF42C510E2001E076
:102220005600002000F04AFDB0211E2000F046FDBF
:1022300042F63F31012000F041FD4FF4C061022021
:1022400000F03CFD0021102000F038FD46F2700146
:10225000112000F033FD0021052000F02FFD0021AA
:10226000062000F02BFD4EF61C71162000F026FD16
:102270000321172000F022FD40F23321072000F057
:102280001DFD00210B2000F019FD00210F2000F0A2
:1022900015FD0021412000F011FD0021422000F039
:1022A0000DFD0021482000F009FD40F23F114920BA
:1022B00000F004FD00214A2000F000FD00214B2029
:1022C00000F0FCFC4FF46F41442000F0F7FC0021CB
:1022D000452000F0F3FC40F23F11462000F0EEFCF8
:1022E00040F20771302000F0E9FC4FF4017100E08A
:1022F00040E0312000F0E2FC4FF40171322000F0A8
:10230000DDFC40F20251332000F0D8FC40F20751CE
:10231000342000F0D3FC4FF40171352000F0CEFCE6
:102320004FF40171362000F0C9FC40F20251372011
:1023300000F0C4FC40F202313A2000F0BFFC40F251
:1023400002313B2000F0BAFC0021232000F0B6FC53
:102350000021242000F0B2FC4FF40041252000F0C1
:10236000ADFC00214F2000F0A9FC00214E2000F020
:10237000A5FC76E1C048008844F2315188427DD105
:102380000121002000F09AFC0A2005F0CFFC41F268
:102390002861102000F092FC0E21122000F08EFC2B
:1023A00040F63921132000F089FC0A2005F0BEFC1C
:1023B0004021112000F082FC5021152000F07EFC0D
:1023C0000A2005F0B3FC1E21122000F077FC0A2041
:1023D00005F0ACFC4FF4B151102000F06FFC42F658
:1023E0003921132000F06AFC0A2005F09FFC4FF40D
:1023F0008071012000F062FC4FF44071022000F077
:102400005DFC41F23001032000F058FC40F2022153
:10241000082000F053FC08210A2000F04FFC0021A6
:10242000302000F04BFC40F20241312000F046FC2D
:102430004FF48371322000F041FC40F2035133200D
:1024400000F03CFC4FF48271342000F037FC40F285
:102450000131352000F032FC40F20771362000F0E7
:102460002DFC40F20531372000F028FC4FF40271BA
:10247000382000F023FC40F60B7100E03CE03920EE
:1024800000F01CFC0221412000F018FC4FF41C510C
:10249000602000F013FC0121612000F00FFC4FF4DC
:1024A0000471902000F00AFC4FF48571922000F036
:1024B00005FC0421932000F001FC4FF48071A02062
:1024C00000F0FCFB0121072000F0F8FB2121072090
:1024D00000F0F4FB2321072000F0F0FB332107205C
:1024E00000F0ECFB40F23311072000F0E7FB002185
:1024F000A02000F0E3FBB4E05F48008844F23551CF
:102500008842F8D13021152000F0D8FB10219A2004
:1025100000F0D4FB2021112000F0D0FB43F2284131
:10252000102000F0CBFB0221122000F0C7FB41F28B
:102530003801132000F0C2FB282005F0F7FB122120
:10254000084600F0BBFB282005F0F0FB43F22041D9
:10255000102000F0B3FB43F23801132000F0AEFB73
:10256000462005F0E3FB0021302000F0A7FB40F2FD
:102570000241312000F0A2FB40F20731322000F08E
:102580009DFB4FF44171332000F098FB042134206F
:1025900000F094FB40F20141352000F08FFB40F247
:1025A0000771362000F08AFB40F20531372000F039
:1025B00085FB4FF4C261382000F080FB4FF4C2610C
:1025C000392000F07BFB4FF48071012000F076FB96
:1025D0004FF44071022000F071FB41F23001032002
:1025E00000F06CFB40F60801082000F067FB0821B2
:1025F0000A2000F063FB4FF41C51602000F05EFBEA
:102600000121612000F05AFB4FF49F71902000F0EF
:1026100055FB4FF48071922000F050FB4FF4807115
:10262000932000F04BFB4FF44051A02000F046FBFC
:102630001021A32000F042FB0121072000F03EFB07
:102640002121072000F03AFB2321072000F036FB70
:102650003321072000F032FB40F23311072000F055
:102660002DFB002000F04CF80120044908604FF6D3
:10267000FF70FEF7EDF908BD56000020A8012242C8
:1026800010B54FF0883017490860091D0860002018
:1026900014490C31086088151349086140004861ED
:1026A000402048611148008848F68911884202D1CB
:1026B000022005F075FB40200B49086109480830ED
:1026C000006884B2481508614FF03330054908604E
:1026D000091D08604FF6FF7002490C310860204662
:1026E00010BD0000000C0140001001405600002009
:1026F00010B50446204600F0BDFAFFF7C1FF10BD3B
:1027000070B5054600240026A648008849F24131EC
:1027100088427DD1082D1CD2DFE805F00406090CA3
:102720000F12151800BF14E044F0800411E044F0CB
:1027300040040EE044F0C0040BE044F0200408E044
:1027400044F0600405E044F0A00402E044F0E0043A
:1027500000BF00BF362644F008042146304600F092
:10276000ADFA04F02000002875D02A2000F082FA8B
:102770004FF480708C4908614000486100208B490B
:102780000860802088494861086180000861401025
:102790000861400048610020844908608020824927
:1027A000486108618000086140100861400048618C
:1027B00001207E49086080207B49486108618000D3
:1027C000086140100861400048613F207749086077
:1027D0008020754948610861800008612B2000F065
:1027E00049FA4FF480707049086140004861002048
:1027F0006E49086080206C4948610861800008616A
:10280000401008614000486100206849086000E00D
:1028100094E08020644948610861800008614010AC
:1028200008614000486100206049086080205E49DE
:1028300048610861800008614010086140004861FB
:10284000EF205A490860802057494861086180009C
:102850000861A5E0FFE72A2000F00CFA4FF4807031
:1028600051490861400048610020504908608020BB
:102870004D494861086180000861401008614000CE
:102880004861002049490860802047494861086143
:102890008000086140100861400048610020434901
:1028A000086080204049486108618000086140104C
:1028B000086140004861EF203C49086080203A49A7
:1028C00048610861800008612B2000F0D3F94FF4C3
:1028D0008070354908614000486100203349086034
:1028E000802031494861086180000861401008611A
:1028F0004000486100202D49086080202A49486135
:1029000008618000086140100861400048610120B2
:1029100026490860802024494861086180000861D8
:1029200040100861400048613F2020490860802035
:102930001D49486108618000086131E0082D1CD202
:10294000DFE805F004070A0D0F12151844F03004F3
:1029500013E044F0100410E044F020040DE000BF48
:102960000BE044F0380408E044F0280405E044F0AB
:10297000180402E044F0080400BF00BF09480088C2
:1029800048F68911884204D1112646F240000443DA
:1029900002E0032644F480542146304600F08EF9CC
:1029A00070BD000056000020001001400C0C0140DA
:1029B00030B504460D462E48008848F689118842F5
:1029C00008D121464E2000F079F929464F2000F029
:1029D00075F94CE02648008849F2413188423ED1E1
:1029E0002A2000F047F94FF4807022490861400026
:1029F000486120122049086080201E494861086112
:102A0000800008614010086140004861E0B21A4946
:102A100008608020174948610861800008612B2008
:102A200000F028F94FF480701249086140004861B5
:102A300028121149086080200E4948610861800011
:102A400008614010086140004861E8B20A49086026
:102A500080200849486108618000086107E021463C
:102A6000202000F02BF92946212000F027F930BD65
:102A700056000020001001400C0C01402DE9F84FD9
:102A80000746894616461D46BB463E4800880090CC
:102A9000E82F02DCB9F59C7F01DDBDE8F88FA6F1D7
:102AA0002000C6B20A98002839D1002434E00C2D49
:102AB00007D106EB4600344901EB800010F804A072
:102AC00004E0324800EB061010F804A04FF00008B4
:102AD00016E00AF0010018B12A490098088003E0C6
:102AE0002B4800882749088049463846FEF72AF8CF
:102AF0004FEA6A0A781C87B208F1010000F0FF086B
:102B000005EBD571B8EB610FE3DB5F4609F101001E
:102B10001FFA80F9601CC4B2AC42C8DB2DE000246F
:102B200029E00C2D07D106EB4600174901EB800088
:102B300010F804A004E0154800EB061010F804A0FB
:102B40004FF0000810E00AF0010038B109EB040270
:102B500091B207EB080290B2FDF7F4FF4FEA6A0A60
:102B600008F1010000F0FF0805EBD571B8EB610F2B
:102B7000E9DB601CC4B2AC42D3DB02490098088098
:102B800000BF8AE75200002064840008D88800084B
:102B9000540000202DE9FF4F81B0074691461E46A4
:102BA0000E9D4FF0000A002439E0301B401EC1B2D8
:102BB0000A2005F05BFAB9FBF0F00A21B0FBF1F254
:102BC00001FB1208BAF1000F16D1701EA04213DDEE
:102BD000B8F1000F0ED10020AB4605EBDB714910B8
:102BE00001FB0471009088B22B4620220299FFF766
:102BF00045FF12E04FF0010A0020AB4605EBDB7108
:102C0000491001FB0471009088B208F13001CAB28A
:102C10002B460299FFF732FF00BF601CC4B2B442DA
:102C2000C3DB05B0BDE8F08FF8B505460E46144687
:102C30001BE0E82D03DD002506F1100086B2B6F595
:102C40009C7F06DD0020054606464FF6FF70FDF727
:102C5000FFFE002000902278102331462846FFF71F
:102C60000DFF05F1080085B2641C20780028E0D132
:102C7000F8BD00004FF48071054A5161490051616F
:102C80000449086080215161116189001161704718
:102C9000001001400C0C014000B50748008849F2C3
:102CA0004131884203D12C20FFF7E4FF02E02220CB
:102CB000FFF7E0FF00BD00005600002010B50446FD
:102CC0000B462046FFF7D6FF4FF480700549086198
:102CD000400048610448036080204861086180002A
:102CE000086110BD001001400C0C014008B5012125
:102CF000042004F029FD4FF48070ADF8000010208E
:102D00008DF8030003208DF8020069460E48FDF798
:102D100048FD4FF480710C48FDF718FE012120207A
:102D200004F012FD0420ADF8000010208DF803001F
:102D300003208DF8020069460448FDF732FD0421A6
:102D40000248FDF703FE08BD0008014000140140E1
:102D500000BFFEE730B505460C4622460021284656
:102D600000F001F830BD2DE9F04103460C4617464E
:102D70000FB9BDE8F08103B9FBE70025002202E0AE
:102D80002D022543521C042AFAD3384603F0030CC3
:102D90001946BCF1000F08D0624603E001F8014B70
:102DA000401E521C08B1042AF8D30E4601E020C68A
:102DB000001F0428FBD2314602E001F8014B401EFF
:102DC0000028FAD100BFD4E77047000070B5002199
:102DD00000230F22C47804B3154C246804F4E06483
:102DE000C4F5E064210AC1F10403CA40447804FA3E
:102DF00003F184781440214309010E4C0678A15553
:102E0000047804F01F050124AC4005786D11AD0075
:102E100005F1E025C5F8004109E0047804F01F053C
:102E20000124AC40044D0678761145F8264070BD6B
:102E30000CED00E000E400E080E100E00249014325
:102E4000024A1160704700000000FA050CED00E036
:102E50007047000010B50348006810B101480068D1
:102E6000804710BDA400002070B5044600F0C2F8F1
:102E70000020484908704849087048490870484986
:102E8000086048490860484908704849087048493E
:102E9000087048490860484908604849086048493E
:102EA0000870484800680A21B0FBF1F04649086004
:102EB0004648006858B14648056845B14348066829
:102EC00003E0761E002028602D1D002EF9D1002081
:102ED000404908604049086040490860404908602E
:102EE000404908604049086040490860404908700E
:102EF00002F0B6FB02F0B4FC204601F011FD208880
:102F000000B170BD204602F02BF9208800B1F8E72F
:102F1000204602F031F9208800B1F2E7204602F0A5
:102F200015FA208800B1ECE7204602F0C9FB2088A2
:102F300000B1E6E7204602F019FE208800B1E0E784
:102F4000204603F083F9208800B1DAE7204602F03A
:102F500073F8208800B1D4E7204601F07DFE208878
:102F600000B1CEE7204604F0D9F9208800B1C8E7C7
:102F7000204603F0AFF8208800B1C2E7204604F0F5
:102F80003DFA208800B1BCE701F0F0FBFFF760FFDD
:102F900000BFB6E7B8000020C000002008010020F4
:102FA0006001002064010020EE000020EF000020FE
:102FB000F0000020FC00002000010020040100209F
:102FC00010010020288F00080C010020F88E000856
:102FD000F48E0008980000209C000020A000002033
:102FE000A4000020A8000020AC000020B0000020B9
:102FF0003E0100200A4A1168002002E0002204C1BC
:10300000401C084A12689042F8D3054A1268054BE2
:103010001B6802EB8302121F034B1A60704700000B
:10302000F48E0008F88E0008680100200848007837
:10303000012800D0704707480078FA2800DBF9E73C
:1030400004480078401C0349087000BFF2E7000004
:10305000C0000020B800002010B500242E480078E1
:10306000012800D010BD00BFFDF7D6F8044600BF10
:103070002A48007828B900BF2046FDF7D1F800BFE4
:10308000F0E726480078401E24490870084600787A
:10309000002805DD00BF2046FDF7C2F800BFE1E7CC
:1030A0001F480078002805DD00BF2046FDF7B8F86E
:1030B00000BFD7E702F0C0FA1A4908700846007846
:1030C00000EB4000184951F82000184908600846F4
:1030D000006817490968884205D100BF2046FDF7FE
:1030E0009FF800BFBEE711480068D0F89000401C70
:1030F0000E490968C1F890000E480068401C0D494F
:1031000008604FF080500C49086000BF2046FDF772
:1031100087F800BF00BFA5E7C0000020B80000206E
:1031200008010020EF000020681E0020640100203C
:10313000600100203401002004ED00E010B50024FF
:1031400020480078002800DD10BD1F4800780028C6
:1031500000DDF9E700BFFDF75FF8044600BF02F0AD
:103160006BFA1A4908700846007800EB40001849CD
:1031700051F8200017490860084600681649096898
:10318000884205D100BF2046FDF74AF800BFDBE7C3
:1031900010480068D0F89000401C0E490968C1F83A
:1031A00090000E480068401C0C4908604FF08050A9
:1031B0000B49086000BF2046FDF732F800BF00BF92
:1031C000C2E70000B800002008010020EF00002046
:1031D000681E0020640100206001002034010020EE
:1031E00004ED00E070B5044600251A480078002878
:1031F00003DD46F66250208070BD17480078012834
:1032000003D045F689602080F6E714480078FA2854
:1032100003DB45F209202080EEE700BF00BFFCF78A
:10322000FBFF054600BFFDF727FA00BF0B480078FB
:10323000401C0A49087002F0F7FB00BFFDF736FAA0
:1032400000BF2846FCF7ECFF00BF00BF0020208035
:1032500000BFD1E7B8000020C00000200801002016
:103260002DE9F04105460C461646002700BF00BF79
:10327000FCF7D2FF074600BFFDF7FEF900BF012DA6
:1032800003D000200E49087002E001200C490870AC
:1032900014B10C48046006E00B4800680A21B0FB3A
:1032A000F1F00849086000BFFDF700FA00BF38469A
:1032B000FCF7B6FF00BF00BF00203080BDE8F08102
:1032C000100100200C010020288F000870B5044672
:1032D000002523480078002803DD46F6655020804D
:1032E00070BD20480078012803D045F68960208011
:1032F000F6E71D48007818B946F664502080EFE7DD
:1033000000BF00BFFCF788FF054600BFFDF7B4F91A
:1033100000BF15480078401E134908700846007821
:1033200000280CDD00BFFDF7C1F900BF2846FCF7FF
:1033300077FF00BF00BF46F663502080D0E702F061
:1033400081FB00BFFDF7B2F900BF2846FCF768FF1C
:1033500000BF00BFFFF7F2FE0020208000BFBFE7E4
:10336000B8000020C00000200801002010B504466D
:1033700012480078E8B902F05FF911490870084670
:103380000078104908700E48007800EB40000E49A4
:1033900051F820000D490860084600680C49086093
:1033A000012006490870FDF777F843F69920208040
:1033B00002E045F68A60208010BD0000C0000020B9
:1033C000EF000020EE000020681E002064010020B5
:1033D000600100202DE9F04107464FF0000800BFD2
:1033E00000BFFCF719FF804600BFFDF745F900BF9D
:1033F00000204749086047490880474908804749F5
:1034000008604749086047490860474908604749DC
:1034100008604749088100BFFDF748F900BF4046F2
:10342000FCF7FEFE00BF00BF00BF00BFFCF7F4FECC
:10343000804600BFFDF720F900BF3E48046800BF8A
:10344000FDF734F900BF4046FCF7EAFE00BF00BFBD
:1034500026E000BF00BFFCF7DFFE804600BFFDF79F
:103460000BF900BF00207834E06320642060206303
:10347000A061A082E0826062A062FDF78BF9206209
:10348000783C04F164060020B081D4F8C04000BF4D
:10349000FDF70CF900BF4046FCF7C2FE00BF00BFBD
:1034A000002CD6D100BF00BFFCF7B6FE804600BF9F
:1034B000FDF7E2F800BF2048056800BFFDF7F6F809
:1034C00000BF4046FCF7ACFE00BF00BF16E000BFE7
:1034D00000BFFCF7A1FE804600BFFDF7CDF800BF9E
:1034E00005F120060020B081AD6900BFFDF7DEF8D0
:1034F00000BF4046FCF794FE00BF00BF002DE6D1A0
:1035000003F0D4FD04F076F800203880BDE8F081A7
:10351000D4000020CE0000201E0100203001002039
:103520004401002050010020BC00002000010020C8
:103530005C1E002038010020F4000020F8B504468D
:1035400000266946364800F033FDBDF8000018B18A
:10355000BDF800002080F8BD6A460021022000F07E
:10356000A9FDBDF8000018B1BDF800002080F2E709
:1035700000BF00BFFCF750FE064600BFFDF77CF819
:1035800000BF00202749086000BFFDF78FF800BF8B
:103590003046FCF745FE00BF00BF0025224800680A
:1035A00022490968884205D91F4800681F490968EF
:1035B000B0FBF1F525B91C4800680A21B0FBF1F514
:1035C0006A460021284600F075FD6946144800F05F
:1035D000A5FABDF8000018B1BDF800002080BAE7D8
:1035E00000BF00BFFCF718FE064600BFFDF744F819
:1035F00000BF00200E4908600A4800680D490860B5
:1036000001200D49087000BFFDF750F800BF30469B
:10361000FCF706FE00BF00BF0020208000BF9AE735
:103620007821002020010020288F0008108F00083A
:1036300030010020240100202C01002010B5034897
:10364000006810B101480068804710BDA800002044
:103650002DE9FF4F87B004469046DDE91BA5DDE963
:103660001496179F0020039095480078002805DDE8
:1036700047F24A1028800BB0BDE8F08F1CB947F222
:10368000AD102880F7E7B8F1000F03D147F24F10D3
:103690002880F0E71EB946F62F602880EBE78948BE
:1036A0000068874203D246F630602880E3E7169828
:1036B000B84203D346F631602880DCE7B9F1200F29
:1036C00003D346F273202880D5E7B9F1000F06D165
:1036D0007D48844203D046F273202880CBE7B9F1BD
:1036E0001F0F06D17948844203D046F27320288008
:1036F000C1E7204602F0BAFD002028800AF0010050
:1037000090B10AF0020078B105960020069008E01A
:103710000021059801600598001D05900698401C41
:1037200006900698B842F3D3169806EB80000490F2
:10373000CDE9007A32464046049B0A9900F0D8FB56
:103740000590C4F828800A98E0620898206284F8FE
:103750003790059820600498A060199860651998C2
:1037600018B95B480068A06501E01998A0651A982F
:1037700060606662A763A4F83CA04FF0000B08E00D
:10378000002104F17C0040F82B100BF1010000F047
:10379000FF0BBBF1000FF3D004F16400189901F0A6
:1037A0004BFD204600F09EF800BF00BF00BFFCF7B5
:1037B00033FD039000BFFCF75FFF00BF4548007872
:1037C000401C4449087008460078012801D102F0E5
:1037D0002BF900BFFCF76AFF00BF0398FCF720FD40
:1037E00000BF00BF00BF94F8370001F045FF20463E
:1037F00002F07EF8204602F0EFFC37480088401CBB
:103800003549088035480078012837D000BF00BF0F
:1038100000BFFCF701FD039000BFFCF72DFF00BFC8
:103820002C480078401E2B49087008460078D0B913
:1038300002F008F92A48008800280BDD00BFFCF7D9
:1038400035FF00BF0398FCF7EBFC00BF00BF02F0A0
:10385000BDF811E000BFFCF729FF00BF0398FCF79B
:10386000DFFC00BF08E000BFFCF720FF00BF0398AB
:10387000FCF7D6FC00BF00BF00BFFCE600BF00BFE6
:1038800000BFFCF7C9FC039000BFFCF7F5FE00BFCA
:1038900010480078401E0F4908700846007808B9A3
:1038A00002F0D0F800BFFCF701FF00BF0398FCF75F
:1038B000B7FC00BF00BF00BFFFF740FC00BFDAE667
:1038C000B8000020248F0008941D0020CC1C00208C
:1038D0000C010020080100203C010020C000002055
:1038E000CC00002010B504460348006818B12046FB
:1038F00001490968884710BD9800002070B504464A
:103900000D46002678480078002803DD47F24E1067
:10391000288070BD7548844203D147F24C1028803E
:10392000F7E77348844203D147F24D102880F0E74F
:103930009CB900BF00BFFCF76FFC064600BFFCF758
:103940009BFE00BF6B48046800BFFCF7AFFE00BFE2
:103950003046FCF765FC00BF00BF00BF00BF00BFE2
:10396000FCF75AFC064600BFFCF786FE00BF624823
:103970000078401C6049087008460078012801D191
:1039800002F052F800BFFCF791FE00BF3046FCF792
:1039900047FC00BF00BF00BF94F8360008282DD2B6
:1039A000DFE800F004090E10080A0F11204601F0AC
:1039B000DFFF5EE05DE000BF204603F05BFB58E008
:1039C00000BF00BF00BF204603F054FB94F8340052
:1039D000082810D2DFE800F004070508090A0B06E2
:1039E00000BF00BF08E000BF00BF00BF00BF20460F
:1039F00001F073FD00E000BF00BF3AE000BF00BF70
:103A000000BFFCF709FC064600BFFCF735FE00BF0F
:103A100039480078401E3849087008460078D0B907
:103A200002F010F83548008800280BDD00BFFCF7D5
:103A30003DFE00BF3046FCF7F3FB00BF00BF01F0C6
:103A4000C5FF11E000BFFCF731FE00BF3046FCF7B8
:103A5000E7FB00BF08E000BFFCF728FE00BF3046D0
:103A6000FCF7DEFB00BF00BF00BF46F62D602880DC
:103A70004FE700BF04F1640001F0BCFB204600F0FA
:103A800041F8204602F0C0FB1D480088401E1C493A
:103A90000880204602F0EAFBFF2084F8360000BFD1
:103AA00000BF00BFFCF7B8FB064600BFFCF7E4FD13
:103AB00000BF11480078401E0F4908700846007882
:103AC00008B901F0BFFF00BFFCF7F0FD00BF3046B2
:103AD000FCF7A6FB00BF00BF00BF00202880FFF757
:103AE0002DFB00BF15E70000B8000020CC1C002013
:103AF000941D00206001002008010020CC0000205F
:103B00003C01002010B504460348006818B1204667
:103B100001490968884710BD9C0000207FB5044614
:103B20000D46002600BF00BFFCF776FB064600BF2F
:103B3000FCF7A2FD00BF1CB11748006884420CD1FD
:103B400000BFFCF7B3FD00BF3046FCF769FB00BFC8
:103B500000BF47F2571028807FBD00BFFCF7A6FDCD
:103B600000BF3046FCF75CFB00BF00BF0B4800788D
:103B700000280BDD002000900190034602462146FC
:103B8000CDE90205064801F09FF8E5E72946204601
:103B900002F018FD00BFDFE760010020B800002040
:103BA0005452455310B504460348006818B12046E6
:103BB00001490968884710BDA00000202DE9F047A1
:103BC00080460E4614461D464FF000098C4800788A
:103BD000002805DD46F2AE1028800020BDE8F08701
:103BE0001EB1B6F5004F02D100E000BF04E045F67B
:103BF000256028800020F1E700BF0CB10020206084
:103C000000BF00BFFCF708FB814600BFFCF734FD96
:103C100000BF7C480068406CB8B37A480068406CCC
:103C2000401E78490968486476480068476C1CB1B2
:103C300074480068006C2060FCF7ACFD71490968AD
:103C4000096C401A6F490968C1F8A4006D48006802
:103C5000D0F8A8006B490968D1F8A410884207D2AF
:103C600068480068D0F8A40066490968C1F8A8004F
:103C700000BFFCF71BFD00BF4846FCF7D1FA00BFB0
:103C800000BF002028803846A8E7FFE706F4004080
:103C900068B100BFFCF70AFD00BF4846FCF7C0FA58
:103CA00000BF00BF46F2B0102880002096E75648BB
:103CB000007800280DDD00BFFCF7F8FC00BF484687
:103CC000FCF7AEFA00BF00BF46F663502880002024
:103CD00084E700BF4C480078401C4B4908700846F8
:103CE0000078012801D101F09FFE00BFFCF7DEFC47
:103CF00000BF4846FCF794FA00BF00BF00BF434630
:103D000007220021084601F02DFB00BF00BF00BFC5
:103D1000FCF782FA814600BFFCF7AEFC00BF3A48D0
:103D20000078401E384908700846007808B901F04C
:103D300089FE00BFFCF7BAFC00BF4846FCF770FAEA
:103D400000BF00BF00BFFFF7F9F900BF00BFFCF7DD
:103D500063FA814600BFFCF78FFC00BF294800686A
:103D600090F8350020B1012826D0032834D12CE06A
:103D7000FCB124480068006C2060FCF70BFD214971
:103D80000968096C401A1F490968C1F8A4001D4858
:103D90000068D0F8A8001B490968D1F8A41088422F
:103DA00007D218480068D0F8A40016490968C1F87D
:103DB000A8000020288013E01CB112480068006CA5
:103DC000206046F2A91028800AE00CB10020206093
:103DD00047F2D920288003E046F62E60288000BFF5
:103DE00000BF08480068476C00BFFCF75FFC00BFDD
:103DF0004846FCF715FA00BF00BF3846EEE6000063
:103E0000B800002060010020080100202DE9F047E3
:103E100005460E4617461C464FF0000A3248007809
:103E2000002804DD47F259102080BDE8F0871EB954
:103E300046F2D5202080F8E71FB946F2D520208031
:103E4000F3E700BF00BFFCF7E7F9824600BFFCF7CD
:103E500013FC00BF0DB925480568286878B900BF74
:103E6000FCF724FC00BF5046FCF7DAF900BF00BFA6
:103E700000203060386047F252102080D5E795F876
:103E80003C0000F0010078B900BFFCF70FFC00BF58
:103E90005046FCF7C5F900BF00BF00203060386015
:103EA00047F254102080C0E700BFFCF7FFFB00BFC3
:103EB0005046FCF7B5F900BF00BF4FF00008D5F839
:103EC000249003E009F1040908F10108D9F8000081
:103ED0000028F7D0C6F80080A86BA0EB0800386077
:103EE0000020208000BFA0E7B80000206001002073
:103EF000F0B50446DDE9055602EB85004FF0807C05
:103F0000071F3846C7F800C0071F38463C60DFF877
:103F10009CC0071F3846C7F800C04FF0123C071F6F
:103F20003846C7F800C04FF0033C071F3846C7F8B3
:103F300000C04FF0023C071F3846C7F800C0071FFB
:103F400038463B60071F384639604FF0113C071F69
:103F50003846C7F800C04FF0103C071F3846C7F876
:103F600000C04FF0093C071F3846C7F800C04FF0AB
:103F7000083C071F3846C7F800C04FF0073C071F32
:103F80003846C7F800C04FF0063C071F3846C7F850
:103F900000C04FF0053C071F3846C7F800C04FF07F
:103FA000043C071F3846C7F800C0F0BD4167000851
:103FB0007FB505460C461248854203D147F25B1097
:103FC00020807FBD0F48854203D147F25C102080DE
:103FD000F7E70D48007800280BDD002000900190E5
:103FE000034602462946CDE90204084800F06CFE6B
:103FF000E7E72146284602F083FE00BFE1E7000024
:10400000CC1C0020941D0020B800002054535553B0
:1040100070B52448006810B1224800688047FCF75A
:10402000B9FB04462048006820490968884215D039
:104030001D480068D0F89800201A1B490968C1F88B
:10404000940019480068D0F89C0017490968D1F815
:104050009410084414490968C1F89C00134800688A
:10406000C0F89840FCF7DCFA05460F480068D0F825
:10407000B400A84203D20C480068C0F8B4500A4803
:104080000068D0F8B8000A490968884205D2084893
:10409000006805490968C1F8B800002004490860B3
:1040A00070BD0000AC000020600100206401002011
:1040B000040100202DE9F04105460E461446002774
:1040C0004D480078002804DD47F275202080BDE8C7
:1040D000F0814A480078002803DD46F663502080CE
:1040E000F5E736B1022E05D0042E0AD0082E09D1EC
:1040F00001E000BF00BF1DB947F27E202080E6E747
:1041000004E003E045F625602080E0E700BF00BF43
:1041100000BF00BFFCF780F8074600BFFCF7ACFA11
:1041200000BF36480078401C3449087008460078C3
:10413000012801D101F078FC00BFFCF7B7FA00BFFD
:104140003846FCF76DF800BF00BF00BF01202C49C6
:10415000096881F836002346324629462848006817
:1041600002F0AAFE2088F0B100BF00BF00BFFCF73C
:1041700053F8074600BFFCF77FFA00BF1F480078DE
:10418000401E1E4908700846007808B901F05AFC24
:1041900000BFFCF78BFA00BF3846FCF741F800BFC0
:1041A00000BF00BF93E71648006801F0E1FB00BFC5
:1041B00000BF00BFFCF730F8074600BFFCF75CFA11
:1041C00000BF0E480078401E0C4908700846007871
:1041D00008B901F037FC00BFFCF768FA00BF3846A9
:1041E000FCF71EF800BF00BF00BFFEF7A7FF0020CE
:1041F000208000BF6BE70000B8000020080100200D
:10420000600100202DE9FF5F05460E4617469846DF
:10421000DDE90EA40020009081480078002804DD2C
:1042200047F275202080BDE8FF9F7E480078002877
:1042300003DD46F663502080F5E70AF00E0BBBF174
:10424000000F09D0BBF1020F07D0BBF1040F10D053
:10425000BBF1080F0ED101E000BF00BFB8F1000FA5
:1042600006D12FB926B91DB947F27E202080DAE7A2
:1042700004E003E045F625602080D4E700BF2AF083
:104280001E0008B1012000E00020039003980128DF
:1042900003D145F625602080C5E7CAF300100290DF
:1042A0000298C0B9B8F57A7F03D347F27B2020800B
:1042B000B9E73B2F03DD47F27A202080B3E73B2E9E
:1042C00003DD47F279202080ADE7632D12DD47F250
:1042D00078202080A7E742F20F70864203DD47F284
:1042E000792020809FE7B5F57A7F03DB47F27820BD
:1042F000208098E74C48D0F800904FF4FA70B0FB5B
:10430000F9F0404400FB09F04FF47A71B0FBF1F191
:104310004FF461606843C6EB061200EB820038443C
:1043200000FB091001900198002873D000BF00BF66
:1043300000BFFBF771FF009000BFFCF79DF900BFC5
:1043400038480078401C3749087008460078012832
:1043500001D101F069FB00BFFCF7A8F900BF00988C
:10436000FBF75EFF00BF00BF00BF01202F490968B7
:1043700081F8360023465A462C480199006802F01D
:104380009BFD2088F0B100BF00BF00BFFBF744FFDA
:10439000009000BFFCF770F900BF22480078401E73
:1043A000204908700846007808B901F04BFB00BFAF
:1043B000FCF77CF900BF0098FBF732FF00BF00BF9D
:1043C00000BF30E71948006801F0D2FA00BF00BF13
:1043D00000BFFBF721FF009000BFFCF74DF900BFC5
:1043E00010480078401E0F4908700846007808B948
:1043F00001F028FB00BFFCF759F900BF0098FBF75C
:104400000FFF00BF00BF00BFFEF798FE0020208016
:1044100003E0FFE747F27E20208000BF03E70000B3
:10442000B800002008010020288F0008600100204B
:1044300010B586B000F01EF8FCF7ACF9044605A8EC
:1044400000210091CDE9011403900748007800EBAA
:104450004000064A02EB800100231A46044800F09F
:1044600033FC06B010BD0000EE000020681E0020E6
:104470005449434B10B50348006810B10148006827
:10448000804710BDB00000202DE9F84F0446884653
:1044900016461F46DDE90BABDDF828900D9D002088
:1044A000009041480078002804DD47F2433028801E
:1044B000BDE8F88F1CB945F6C3502880F8E7B9F17C
:1044C000010F08D0B9F1020F0BD11FB947F24030EC
:1044D0002880EDE709E01EB947F23F302880E7E782
:1044E00003E045F625602880E2E700BF00BF00BF7B
:1044F00000BFFBF791FE009000BFFCF7BDF800BFC6
:104500002A480078401C294908700846007801288C
:1045100001D101F089FA00BFFCF7C8F800BF00988C
:10452000FBF77EFE00BF00BF00BF012084F82A0019
:104530001F482060C4F8048026620020A061E0616A
:104540006762A4F82890C4F808A0C4F80CB02061F1
:104550006061204602F03EFF16480088401C154965
:10456000088000BF00BF00BFFBF756FE009000BFF1
:10457000FCF782F800BF0D480078401E0B49087018
:104580000846007808B901F05DFA00BFFCF78EF824
:1045900000BF0098FBF744FE00BF00BF00BF002033
:1045A000288000BF84E70000B80000200801002038
:1045B000544D52204C010020F8B506460C462948BF
:1045C0000078002804DD47F2433020800020F8BD49
:1045D00026B947F2423020800020F8E722493068AF
:1045E000884204D045F6C45020800020EFE768469A
:1045F000FEF7F8FD96F82A0000B3012812D0022831
:1046000002D0032822D10EE0304603F065F80021E5
:10461000304602F087FF6846FEF758FE00202080F3
:1046200001251BE000BF0021304602F07BFF6846F9
:10463000FEF74CFE0020208001250FE06846FEF7C3
:1046400045FE47F23D302080002507E06846FEF732
:104650003DFE47F241302080002500BF00BF2846C4
:10466000B5E70000B8000020544D52202DE9F84372
:104670000546884691461C463A480078002805DDE4
:1046800047F2433020800020BDE8F88325B947F287
:10469000423020800020F7E733492868884204D060
:1046A00045F6C45020800020EEE76846FEF79AFDEC
:1046B00095F82A00002841D0012837D0022802D0DE
:1046C000032843D131E0284603F006F8002020807B
:1046D000B8F1000F1AD0B8F1030F03D0B8F1040FEE
:1046E00015D109E0AE681EB12846E968B04702E07E
:1046F00047F24430208012E0AE681EB14946284699
:10470000B04702E047F24430208008E007E0684606
:10471000FEF7DCFD45F6256020800020B4E700BFF1
:104720006846FEF7D3FD012718E000BF6846FEF794
:10473000CDFD47F24930208001270FE06846FEF7A3
:10474000C5FD47F23D302080002707E06846FEF7B0
:10475000BDFD47F241302080002700BF00BF384632
:1047600092E70000B8000020544D5220254A264907
:10477000264A274A2749284A2848294A294A2A4AAC
:104780002A4A2B482B482C482C4A2D482D4A2E4883
:104790002E4A2F482F4830483048314A314A324A51
:1047A0003248334A334A3448344835483548364825
:1047B00036483748374A384A384A394A39483A48F1
:1047C0003A483B4A3B4A3C4A3C483D483D483E49C2
:1047D0003E483F4A3F4A404A404A414A414A424A8B
:1047E0004248434A434A44484448454A454A464861
:1047F000464A474A47484848484800BF00BF00BFAC
:10480000704700006C8F0008D49000086D8F00087E
:104810006E8F0008708F0008748F0008788F000872
:10482000758F0008A08F0008A18F0008A28F0008D4
:10483000A48F0008A68F0008A88F0008AA8F000880
:10484000AC8F0008CC8F0008CE8F0008D08F0008F6
:10485000D28F0008D48F0008D68F0008D88F0008A8
:1048600004900008059000080690000808900008D1
:104870000A9000080B9000080C9000080E900008A9
:10488000109000081290000814900008169000087C
:104890001890000848900008499000084A900008C5
:1048A0004B9000084C9000084E9000085090000873
:1048B00078900008799000087A9000087B900008B2
:1048C0007C9000087E90000880900008849000088A
:1048D000859000088690000887900008889000085E
:1048E000899000088A9000088B9000088C9000083E
:1048F0008E9000088F900008909000089290000819
:10490000949000089590000898900008CC900008BA
:10491000CD900008CE900008D0900008D2900008FA
:104920000021034A1160034A118001807047000092
:10493000D8000020DC0000202DE9F04F85B00446AF
:10494000894692469B46DDF838800020009000BFE3
:1049500000BFFBF761FC009000BFFBF78DFE00BFBE
:10496000BAF1000F0AD0BAF1010F0DD0BAF5004F1D
:1049700005D06FF40040504460B906E000BF206AE3
:1049800040EA0900206216E000BF206A20EA090020
:10499000206210E000BFFBF789FE00BF0098FBF724
:1049A0003FFC00BF00BF45F62560A8F800000020CE
:1049B00005B0BDE8F08F00BFC4F824B004F10800D2
:1049C00001900198008968B900BFFBF76FFE00BF36
:1049D0000098FBF725FC00BF00BF0020A8F80000EE
:1049E000206AE5E700BF71480078401C6F490870F5
:1049F00008460078012801D101F016F800BFFBF746
:104A000055FE00BF0098FBF70BFC00BF00BF00BFC6
:104A100001980768BD6889E07868029095F8880079
:104A200000F00F0003900398012821D002282ED017
:104A3000042802D0082836D10EE0206AD5F880106C
:104A400000EA0106D5F88000B04204D15A4631464A
:104A5000284600F0AFF863E0206AD5F8801000EA3D
:104A6000010626B15A463146284600F0A3F857E021
:104A7000D5F88000216A20EA0106D5F88000B0420E
:104A800004D15A463146284600F094F848E0D5F85B
:104A90008000216A20EA010626B15A46314628469E
:104AA00000F088F83CE000BF00BF00BFFBF7B4FB9C
:104AB000009000BFFBF7E0FD00BF3C480078401EBF
:104AC0003A49087008460078D0B900F0BBFF384872
:104AD000008800280BDD00BFFBF7E8FD00BF009851
:104AE000FBF79EFB00BF00BF00F070FF11E000BFAE
:104AF000FBF7DCFD00BF0098FBF792FB00BF08E06E
:104B000000BFFBF7D3FD00BF0098FBF789FB00BF98
:104B100000BF00BF43F6FF20A8F80000002047E7D1
:104B200000BF029F0FB1BD6800E00025002D7FF49B
:104B300073AF00BF00BF00BFFBF76EFB009000BF6C
:104B4000FBF79AFD00BF19480078401E174908700E
:104B50000846007808B900F075FF00BFFBF7A6FD16
:104B600000BF0098FBF75CFB00BF00BF00BF0AF46A
:104B7000004008B9FEF7E2FA00BF00BFFBF74CFBAC
:104B8000009000BFFBF778FD00BF206A049000BFD3
:104B9000FBF78CFD00BF0098FBF742FB00BF00BF96
:104BA0000020A8F80000049802E700000801002097
:104BB000CC00002070B504460E46154634342665F8
:104BC000002060702070E560A078343C082816D280
:104BD000DFE800F0040508090706101100BF00BF58
:104BE00000BF0DE000BF204601F0DEFC002084F88D
:104BF000360005E000BF042084F8360000E000BF66
:104C000000BF204600F069FC70BD0000002400BF1A
:104C10001DE000BF00BFFBF7FFFA044600BFFBF733
:104C20002BFD00BF0A480068401C0949086009487C
:104C30000068401C0749086000BFFBF737FD00BF54
:104C40002046FBF7EDFA00BF00BFFEF703F9E0E7EF
:104C5000B40000202001002010B58AB004460020D6
:104C60000E4908600B2000210591CDE9070406914B
:104C700008460B4909680B4A12680B4B1B68CDE9C3
:104C80000132CDE903101F200023084A08A100903B
:104C90000C48FEF7DDFC0AB010BD0000B400002097
:104CA000D08E0008CC8E0008C88E00080D4C00087D
:104CB00075432F4F532D4949492049646C65205451
:104CC00061736B00CC1C00202DE9F84F04460D46A3
:104CD00016461F46DDE90BABDDF82890DDF8348081
:104CE0000020009000BF00BFFBF796FA009000BFC5
:104CF000FBF7C2FC00BF2C4800882C490988884279
:104D00003EDA29480088401C274908802848008846
:104D10000988884203DA2448008825490880254804
:104D20000068046023480068856022480068C66007
:104D30002048006807821F480068C0F814901D488A
:104D40000068A0F818A01B480068C0F81CB01948FB
:104D50000068406817490860012017490881174812
:104D600008604860002000F087FC1548007818B102
:104D700013480078134908700020A8F8000008E0E4
:104D800011480088401C1049088044F25360A8F87C
:104D9000000000BFFBF78AFC00BF0098FBF740FA59
:104DA00000BF00BFBDE8F88FCC000020DC8E0008FB
:104DB000CE000020C4000020681E0020941D0020AA
:104DC000EE000020F0000020D00000203EB5594841
:104DD00000680068584A811A904279D00FDC574920
:104DE000084400283ED056490844A8B15549084413
:104DF000002860D05449084400286AD13FE0534855
:104E00000844002850D052490844002862D0514933
:104E100008440028F1D110E002A8464D00902D680A
:104E2000EB69444D2D682A8B424D2D686969414DCF
:104E30002D68A868FFF780FD7AE002A93D48006868
:104E4000C0693C4DCDE900012D682B8B394D2D6893
:104E50002A8A384D2D68E968364D2D68A86800F01B
:104E60003BFC65E0334B1B68DA69324B1B68198BDE
:104E7000304B1B68986802AB00F084FE58E002A932
:104E80002C480068C0692B4DCDE900012D682B8BA3
:104E9000284D2D682A8A274D2D68E968254D2D68F3
:104EA000A86801F04BFA43E022490968886802A922
:104EB00001F088FB3CE01F4B1B68DA691D4B1B6847
:104EC000198B1C4B1B68986802AB01F045FC2FE066
:104ED00007E02CE017490968886802A901F010FF73
:104EE00026E01D49097801EB41011C4A02EB8100D3
:104EF00000F0C6FD0F48006802AB0021C2691848E7
:104F000001F02AFC17480068401E16490860084650
:104F1000006858B9144800680860FBF73BFC044679
:104F200002AB22460021114801F016FC00E000BF50
:104F300000BF3EBDC80000205449434BADBAB2BECD
:104F40000DF90BFAF2F8F7FF0006F6FF00F7FDF790
:104F500000FFEFFF03FE0FFEF0000020681E0020A0
:104F6000B02000205C0100205801002078210020A2
:104F7000002700BF56E0002652E000BF00BFFBF74D
:104F80004BF9074600BFFBF777FB00BF26480088B8
:104F900098B90020254908810860486000F07EFB30
:104FA00000BFFBF783FB00BF3846FBF739F900BFB2
:104FB00000BFFEF7C3F8012632E000BFFBF776FB27
:104FC00000BF3846FBF72CF900BF00BFFBF7E2FB40
:104FD0000546FFF7FBFEFBF7DDFB441B14480068AA
:104FE000A04201D21248046000BF00BFFBF714F9D1
:104FF000074600BFFBF740FB00BF0E480068406853
:105000000C49086008480088401E0749088000BF16
:10501000FBF74CFB00BF3846FBF702F900BF00BFAF
:10502000002EAAD0A7E70000CC000020681E0020B8
:10503000D4000020C8000020F0B589B0054600204B
:10504000314908803148006820B944F25260288014
:1050500009B0F0BD2E480088022803DA44F25460FB
:105060002880F5E700202B49086028480468264678
:10507000203600270CE0284820600020A060E06077
:10508000208260612083666020342036781C87B2DD
:105090001F4800888742EEDB203C1C48066866609B
:1050A0001E4806601E48066000201E4908801E49F2
:1050B00008801E48006818B944F255602880C7E788
:1050C0001B4800681B490968884203D244F25660B5
:1050D0002880BDE7032000210591CDE90705069151
:1050E00013480068144A1268104B1B68CDE903018D
:1050F000CDE9013200910B46104A11A11748FEF785
:10510000A7FA00BFA4E70000D0000020D88E000856
:10511000DC8E0008D40000204E4F4E45C400002015
:10512000C8000020CC000020CE000020E48E000843
:10513000EC8E0008248F0008E88E0008714F0008EC
:1051400075432F4F532D49494920495352205175DA
:10515000657565205461736B00000000941D00208C
:105160000021034A1160034A11800180704700004A
:10517000E0000020E400002070B501461A4D2D68C3
:105180001DB945F21E750D8070BD184D2D881DB9D5
:1051900045F21D750D80F7E7134D28682A68103217
:1051A000124D2D886D1EACB2002308E00260002570
:1051B00045600581C560103010325D1CABB2A34262
:1051C000F4DB0025056045600581C560064D2D684E
:1051D000074E3560054D2D88B5800025F580358159
:1051E0000D8000BFD0E70000088F0008008F000886
:1051F0005C1E002010B5014648894B89002B17DD45
:105200000A680C4B1B6813600A4C4B6823602346EA
:10521000DB884C891B1B074CE38023469B884C8909
:105220002344044CA38000234B818B810B604B6093
:1052300010BD00005C1E002001810022428182819D
:1052400002604260704700002DE9F0410D46DDE943
:105250000674B0F80AC0B0F80880C44505DB46F211
:10526000935CA4F800C0BDE8F081DFF8DCC0BCF8B6
:1052700004C0BCF1000F04D145F21D7CA4F800C0AD
:10528000F1E7DFF8C4C0DCF80010DFF8BC80D1F82B
:1052900000C0C8F800C0C446BCF804C0ACF1010CA2
:1052A000A8F804C0C446BCF806C00CF1010CA8F86C
:1052B00006C0C446BCF808C0B8F80680C44507DA82
:1052C000DFF884C0BCF806C0DFF87C80A8F808C00E
:1052D000B0F80AC0BCF1000F0AD1016041604FF084
:1052E000010CA0F80AC04FF0000CC1F800C017E094
:1052F00003F0100CBCF1000F07D1066831600160AB
:105300004FF0000CC1F800C004E0D0F804C0C1F8B0
:1053100000C04160B0F80AC00CF1010CA0F80AC04E
:10532000B0F80CC0B0F80A80C44503DAB0F80AC07F
:10533000A0F80CC04D600A81CF604FF0000CA4F8BB
:1053400000C000BF8FE700005C1E00200021034A60
:105350001160034A1180018070470000E8000020BE
:10536000EC0000202DE9F04105460C4616461F468C
:105370001548006880F8346000201349096881F8F6
:10538000350039461048006800F00AFF6CB104F19E
:105390000808EC60012229460B48006800F016F866
:1053A0002946404600F066F806E0002006490968F4
:1053B000C88705490968086303480168204600F06A
:1053C00019F8BDE8F08100006001002010B5C28727
:1053D000016300230AE000244C600C600C614C6106
:1053E0000C83CC61886020315C1CA3B29342F2DB59
:1053F00010BD000030B548B14568C1F8C45000F197
:105400000804226893681D6AC56113E091F834505E
:10541000022D02D0072D08D103E007A5C1F8C45022
:1054200007E007A5C1F8C45003E008A5C1F8C450BF
:1054300000BF00BF30BD00005461736B20510000FD
:105440005461736B2053656D000000002000000064
:1054500030B507A5C1F8C45000F1080422681AB19C
:1054600093681D6AC56101E001A5C56130BD0000FA
:1054700020000000F0B58E6896F8375007893FB9D4
:105480000127078100274F600F600160416023E022
:1054900007897F1C0781026806E0946894F83770DA
:1054A000AF4200DD02E05268002AF6D100BF32B9F7
:1054B00000274F6043680B60596041600CE017683B
:1054C0002FB9116000270F604A60016004E0136883
:1054D0000B604A6059601160F0BD2DE9F04104464F
:1054E000256BE68F0AE0D5F80C8008F108072946FD
:1054F000384600F00AF82035701E86B2002EF2DC25
:105500000020E0872063BDE8F08110B50489012CFC
:1055100003D100240460446011E00C6824B94A6897
:105520000024146002600AE04C6824B90B6800246F
:105530005C60436003E00B684A685A60136004894A
:10554000641E048100244C600C6010BD2DE9F843FA
:1055500006460C4617469846089D94F836000828DB
:1055600050D2DFE800F00405080906072B2C00BF25
:1055700000BF00BF47E000BF94F83400032807D104
:1055800043463A4621463046009500F03FF803E096
:10559000E765A4F86080256436B12046FFF79DFFDB
:1055A00021463046FFF754FF204600F0FDFF002063
:1055B0003434A070607004F8340924E000BF94F81B
:1055C0003400032807D143463A4621463046009529
:1055D00000F01CF803E0E765A4F86080256420462D
:1055E00001F048FD36B12046FFF777FF21463046EF
:1055F000FFF72EFF04203434A0700020607004F800
:10560000340900E000BF00BFBDE8F883F0B50446F0
:10561000059E086BCD8F0AE0C768A74204D10461DC
:1056200042610383C66104E020306F1EBDB2002DCD
:10563000F2DC00BFF0BD000070B50025074C03E0B0
:1056400005F12000C5B2241D20680028F8D020688C
:10565000FAF7EDFD2844C5B2284670BD940000203D
:10566000002004E00021034A42F82010401C0028DA
:10567000F8D070479400002030B5420900F01F03B5
:105680000121C3F11F04A140034C54F822400C43F4
:10569000014D45F8224030BD9400002030B542094C
:1056A00000F01F030121C3F11F04A140034C54F873
:1056B00022408C43014D45F8224030BD940000202B
:1056C0000021034A1160034A1180018070470000E5
:1056D000F4000020F80000202DE9F04F85B00746C7
:1056E0008A4693461C460020029000BF00BF00BFC0
:1056F000FAF792FD029000BFFAF7BEFF00BF5648CE
:105700000078401C5449087008460078012801D1EF
:1057100000F08AF900BFFAF7C9FF00BF0298FAF754
:105720007FFD00BF00BF00BF07F1080630890028D9
:105730004CD104F0100010B94FF0000801E04FF018
:105740001008DDE90E0143465A46CDE900015146F5
:1057500007F12000FFF778FD00BF00BF00BFFAF798
:105760005BFD029000BFFAF787FF00BF3A48007860
:10577000401E3949087008460078D0B900F062F937
:105780003648008800280BDD00BFFAF78FFF00BF06
:105790000298FAF745FD00BF00BF00F017F911E0CD
:1057A00000BFFAF783FF00BF0298FAF739FD00BF88
:1057B00008E000BFFAF77AFF00BF0298FAF730FD61
:1057C00000BF00BF00BF05B0BDE8F08F04F400705B
:1057D00008B1358900E00125D6F8009011E0D9F82C
:1057E00008000390D9F8040004900E985B465246D6
:1057F000009038460399FFF7A9FEDDF81090681E67
:1058000085B2002DEBD100BF00BF00BFFAF704FD49
:10581000029000BFFAF730FF00BF0F480078401E2B
:105820000D4908700846007808B900F00BF900BF70
:10583000FAF73CFF00BF0298FAF7F2FC00BF00BF86
:1058400000BF04F4004008B9FDF778FC00210F9870
:10585000018000BFB7E7000008010020CC00002055
:1058600000210AE001EB4102054B03EB820000221C
:105870000281026042604A1CD1B22029F2D37047F3
:10588000681E002010B5044694F83700FFF7F4FEB8
:1058900094F8370005490978884203D1204600F082
:1058A00027F802E0204600F003F810BDEE000020CB
:1058B00010B590F8373003EB43030C4C04EB830135
:1058C0000B893BB901230B810023C360036108608E
:1058D000486009E00B895B1C0B810B68C3600023E7
:1058E00003610A681061086010BD0000681E002096
:1058F00010B590F8373003EB43030B4C04EB8301F6
:105900000B893BB901230B810023C360036108604D
:10591000486008E00B895B1C0B810023C3604A6868
:105920000261D060486010BD681E002010B50146BD
:105930000C8924B1012C03D0022C0CD101E000BF52
:1059400014E008684A6802610024C4601461D060F1
:105950000A6048600AE008684A68C36800241C615D
:10596000C4600261D0600B60486000BF00BF10BD22
:105970002DE9F041054695F8370000EB400012494B
:1059800001EB80042F69EE6887B946B900202081B9
:105990002060606095F83700FFF780FE0EE02089F8
:1059A000401E208100203061266007E02089401ED3
:1059B0002081FE600EB9676000E037610020286139
:1059C000E860BDE8F0810000681E002010B50024EA
:1059D00000BFFAF721FC044600BF00200D49087003
:1059E0000D480E49086008460068D0F89000401C39
:1059F0000968C1F890000A480068401C084908601E
:105A00004FF080500749086000BF2046FAF708FCB5
:105A100000BF10BDEF000020941D00206401002095
:105A20003401002004ED00E010B50448007801289E
:105A300003D1FAF7AFFE0249086010BD080100204B
:105A4000FC00002010B50A48007880B9FAF7A2FEE1
:105A500008490968441A08480068A04201D206486B
:105A6000046006480068A04201D20448046010BDEA
:105A700008010020FC00002000010020040100209B
:105A800070B50546002635480078012800D070BD65
:105A900000BF00BFFAF7C0FB064600BFFAF7ECFDF7
:105AA00000BF2C684CB900BFFAF700FE00BF3046BB
:105AB000FAF7B6FB00BF00BFE9E72948844209D1E5
:105AC00000BFFAF7F3FD00BF3046FAF7A9FB00BFAD
:105AD00000BFDCE7A06D10B1A06D401EA065A06DF9
